{
  "address": "0xcFDC1B0b7024269469d1d9C51978910aa487858e",
  "abi": [
    {
      "inputs": [
        {
          "internalType": "address",
          "name": "_VRFCoordinator",
          "type": "address"
        },
        {
          "internalType": "address",
          "name": "_LinkToken",
          "type": "address"
        },
        {
          "internalType": "bytes32",
          "name": "_keyhash",
          "type": "bytes32"
        },
        {
          "internalType": "uint256",
          "name": "_fee",
          "type": "uint256"
        }
      ],
      "stateMutability": "nonpayable",
      "type": "constructor"
    },
    {
      "anonymous": false,
      "inputs": [
        {
          "indexed": true,
          "internalType": "address",
          "name": "owner",
          "type": "address"
        },
        {
          "indexed": true,
          "internalType": "address",
          "name": "approved",
          "type": "address"
        },
        {
          "indexed": true,
          "internalType": "uint256",
          "name": "tokenId",
          "type": "uint256"
        }
      ],
      "name": "Approval",
      "type": "event"
    },
    {
      "anonymous": false,
      "inputs": [
        {
          "indexed": true,
          "internalType": "address",
          "name": "owner",
          "type": "address"
        },
        {
          "indexed": true,
          "internalType": "address",
          "name": "operator",
          "type": "address"
        },
        {
          "indexed": false,
          "internalType": "bool",
          "name": "approved",
          "type": "bool"
        }
      ],
      "name": "ApprovalForAll",
      "type": "event"
    },
    {
      "anonymous": false,
      "inputs": [
        {
          "indexed": true,
          "internalType": "uint256",
          "name": "tokenId",
          "type": "uint256"
        },
        {
          "indexed": false,
          "internalType": "string",
          "name": "tokenURI",
          "type": "string"
        }
      ],
      "name": "CreatedRandomSVGNFT",
      "type": "event"
    },
    {
      "anonymous": false,
      "inputs": [
        {
          "indexed": true,
          "internalType": "uint256",
          "name": "tokenId",
          "type": "uint256"
        },
        {
          "indexed": false,
          "internalType": "uint256",
          "name": "randomNumber",
          "type": "uint256"
        }
      ],
      "name": "CreatedUnfinishedRandomSVG",
      "type": "event"
    },
    {
      "anonymous": false,
      "inputs": [
        {
          "indexed": true,
          "internalType": "bytes32",
          "name": "requestId",
          "type": "bytes32"
        },
        {
          "indexed": true,
          "internalType": "uint256",
          "name": "tokenId",
          "type": "uint256"
        }
      ],
      "name": "RequestedRandomSVG",
      "type": "event"
    },
    {
      "anonymous": false,
      "inputs": [
        {
          "indexed": true,
          "internalType": "address",
          "name": "from",
          "type": "address"
        },
        {
          "indexed": true,
          "internalType": "address",
          "name": "to",
          "type": "address"
        },
        {
          "indexed": true,
          "internalType": "uint256",
          "name": "tokenId",
          "type": "uint256"
        }
      ],
      "name": "Transfer",
      "type": "event"
    },
    {
      "inputs": [
        {
          "internalType": "address",
          "name": "to",
          "type": "address"
        },
        {
          "internalType": "uint256",
          "name": "tokenId",
          "type": "uint256"
        }
      ],
      "name": "approve",
      "outputs": [],
      "stateMutability": "nonpayable",
      "type": "function"
    },
    {
      "inputs": [
        {
          "internalType": "address",
          "name": "owner",
          "type": "address"
        }
      ],
      "name": "balanceOf",
      "outputs": [
        {
          "internalType": "uint256",
          "name": "",
          "type": "uint256"
        }
      ],
      "stateMutability": "view",
      "type": "function"
    },
    {
      "inputs": [
        {
          "internalType": "uint256",
          "name": "",
          "type": "uint256"
        }
      ],
      "name": "colours",
      "outputs": [
        {
          "internalType": "string",
          "name": "",
          "type": "string"
        }
      ],
      "stateMutability": "view",
      "type": "function"
    },
    {
      "inputs": [],
      "name": "create",
      "outputs": [
        {
          "internalType": "bytes32",
          "name": "requestId",
          "type": "bytes32"
        }
      ],
      "stateMutability": "nonpayable",
      "type": "function"
    },
    {
      "inputs": [],
      "name": "fee",
      "outputs": [
        {
          "internalType": "uint256",
          "name": "",
          "type": "uint256"
        }
      ],
      "stateMutability": "view",
      "type": "function"
    },
    {
      "inputs": [
        {
          "internalType": "uint256",
          "name": "_tokenId",
          "type": "uint256"
        }
      ],
      "name": "finishMint",
      "outputs": [],
      "stateMutability": "nonpayable",
      "type": "function"
    },
    {
      "inputs": [
        {
          "internalType": "string",
          "name": "_imageURI",
          "type": "string"
        }
      ],
      "name": "formatTokenURI",
      "outputs": [
        {
          "internalType": "string",
          "name": "",
          "type": "string"
        }
      ],
      "stateMutability": "pure",
      "type": "function"
    },
    {
      "inputs": [
        {
          "internalType": "uint256",
          "name": "_randomNumber",
          "type": "uint256"
        }
      ],
      "name": "generatePath",
      "outputs": [
        {
          "internalType": "string",
          "name": "pathSVG",
          "type": "string"
        }
      ],
      "stateMutability": "view",
      "type": "function"
    },
    {
      "inputs": [
        {
          "internalType": "uint256",
          "name": "_randomNumber",
          "type": "uint256"
        },
        {
          "internalType": "string",
          "name": "_command",
          "type": "string"
        }
      ],
      "name": "generatePathCommand",
      "outputs": [
        {
          "internalType": "string",
          "name": "pathCommand",
          "type": "string"
        }
      ],
      "stateMutability": "view",
      "type": "function"
    },
    {
      "inputs": [
        {
          "internalType": "uint256",
          "name": "_randomNumber",
          "type": "uint256"
        }
      ],
      "name": "generateSVG",
      "outputs": [
        {
          "internalType": "string",
          "name": "finalSVG",
          "type": "string"
        }
      ],
      "stateMutability": "view",
      "type": "function"
    },
    {
      "inputs": [
        {
          "internalType": "uint256",
          "name": "tokenId",
          "type": "uint256"
        }
      ],
      "name": "getApproved",
      "outputs": [
        {
          "internalType": "address",
          "name": "",
          "type": "address"
        }
      ],
      "stateMutability": "view",
      "type": "function"
    },
    {
      "inputs": [
        {
          "internalType": "address",
          "name": "owner",
          "type": "address"
        },
        {
          "internalType": "address",
          "name": "operator",
          "type": "address"
        }
      ],
      "name": "isApprovedForAll",
      "outputs": [
        {
          "internalType": "bool",
          "name": "",
          "type": "bool"
        }
      ],
      "stateMutability": "view",
      "type": "function"
    },
    {
      "inputs": [],
      "name": "keyHash",
      "outputs": [
        {
          "internalType": "bytes32",
          "name": "",
          "type": "bytes32"
        }
      ],
      "stateMutability": "view",
      "type": "function"
    },
    {
      "inputs": [],
      "name": "maxPathCommands",
      "outputs": [
        {
          "internalType": "uint256",
          "name": "",
          "type": "uint256"
        }
      ],
      "stateMutability": "view",
      "type": "function"
    },
    {
      "inputs": [],
      "name": "maxPaths",
      "outputs": [
        {
          "internalType": "uint256",
          "name": "",
          "type": "uint256"
        }
      ],
      "stateMutability": "view",
      "type": "function"
    },
    {
      "inputs": [],
      "name": "name",
      "outputs": [
        {
          "internalType": "string",
          "name": "",
          "type": "string"
        }
      ],
      "stateMutability": "view",
      "type": "function"
    },
    {
      "inputs": [
        {
          "internalType": "uint256",
          "name": "tokenId",
          "type": "uint256"
        }
      ],
      "name": "ownerOf",
      "outputs": [
        {
          "internalType": "address",
          "name": "",
          "type": "address"
        }
      ],
      "stateMutability": "view",
      "type": "function"
    },
    {
      "inputs": [
        {
          "internalType": "uint256",
          "name": "",
          "type": "uint256"
        }
      ],
      "name": "pathCommands",
      "outputs": [
        {
          "internalType": "string",
          "name": "",
          "type": "string"
        }
      ],
      "stateMutability": "view",
      "type": "function"
    },
    {
      "inputs": [
        {
          "internalType": "bytes32",
          "name": "requestId",
          "type": "bytes32"
        },
        {
          "internalType": "uint256",
          "name": "randomness",
          "type": "uint256"
        }
      ],
      "name": "rawFulfillRandomness",
      "outputs": [],
      "stateMutability": "nonpayable",
      "type": "function"
    },
    {
      "inputs": [
        {
          "internalType": "bytes32",
          "name": "",
          "type": "bytes32"
        }
      ],
      "name": "requestIdToSender",
      "outputs": [
        {
          "internalType": "address",
          "name": "",
          "type": "address"
        }
      ],
      "stateMutability": "view",
      "type": "function"
    },
    {
      "inputs": [
        {
          "internalType": "bytes32",
          "name": "",
          "type": "bytes32"
        }
      ],
      "name": "requestIdToTokenId",
      "outputs": [
        {
          "internalType": "uint256",
          "name": "",
          "type": "uint256"
        }
      ],
      "stateMutability": "view",
      "type": "function"
    },
    {
      "inputs": [
        {
          "internalType": "address",
          "name": "from",
          "type": "address"
        },
        {
          "internalType": "address",
          "name": "to",
          "type": "address"
        },
        {
          "internalType": "uint256",
          "name": "tokenId",
          "type": "uint256"
        }
      ],
      "name": "safeTransferFrom",
      "outputs": [],
      "stateMutability": "nonpayable",
      "type": "function"
    },
    {
      "inputs": [
        {
          "internalType": "address",
          "name": "from",
          "type": "address"
        },
        {
          "internalType": "address",
          "name": "to",
          "type": "address"
        },
        {
          "internalType": "uint256",
          "name": "tokenId",
          "type": "uint256"
        },
        {
          "internalType": "bytes",
          "name": "_data",
          "type": "bytes"
        }
      ],
      "name": "safeTransferFrom",
      "outputs": [],
      "stateMutability": "nonpayable",
      "type": "function"
    },
    {
      "inputs": [
        {
          "internalType": "address",
          "name": "operator",
          "type": "address"
        },
        {
          "internalType": "bool",
          "name": "approved",
          "type": "bool"
        }
      ],
      "name": "setApprovalForAll",
      "outputs": [],
      "stateMutability": "nonpayable",
      "type": "function"
    },
    {
      "inputs": [],
      "name": "size",
      "outputs": [
        {
          "internalType": "uint256",
          "name": "",
          "type": "uint256"
        }
      ],
      "stateMutability": "view",
      "type": "function"
    },
    {
      "inputs": [
        {
          "internalType": "bytes4",
          "name": "interfaceId",
          "type": "bytes4"
        }
      ],
      "name": "supportsInterface",
      "outputs": [
        {
          "internalType": "bool",
          "name": "",
          "type": "bool"
        }
      ],
      "stateMutability": "view",
      "type": "function"
    },
    {
      "inputs": [
        {
          "internalType": "string",
          "name": "_svg",
          "type": "string"
        }
      ],
      "name": "svgToImageURI",
      "outputs": [
        {
          "internalType": "string",
          "name": "",
          "type": "string"
        }
      ],
      "stateMutability": "pure",
      "type": "function"
    },
    {
      "inputs": [],
      "name": "symbol",
      "outputs": [
        {
          "internalType": "string",
          "name": "",
          "type": "string"
        }
      ],
      "stateMutability": "view",
      "type": "function"
    },
    {
      "inputs": [],
      "name": "tokenCounter",
      "outputs": [
        {
          "internalType": "uint256",
          "name": "",
          "type": "uint256"
        }
      ],
      "stateMutability": "view",
      "type": "function"
    },
    {
      "inputs": [
        {
          "internalType": "uint256",
          "name": "",
          "type": "uint256"
        }
      ],
      "name": "tokenIdToRandomNumber",
      "outputs": [
        {
          "internalType": "uint256",
          "name": "",
          "type": "uint256"
        }
      ],
      "stateMutability": "view",
      "type": "function"
    },
    {
      "inputs": [
        {
          "internalType": "uint256",
          "name": "tokenId",
          "type": "uint256"
        }
      ],
      "name": "tokenURI",
      "outputs": [
        {
          "internalType": "string",
          "name": "",
          "type": "string"
        }
      ],
      "stateMutability": "view",
      "type": "function"
    },
    {
      "inputs": [
        {
          "internalType": "address",
          "name": "from",
          "type": "address"
        },
        {
          "internalType": "address",
          "name": "to",
          "type": "address"
        },
        {
          "internalType": "uint256",
          "name": "tokenId",
          "type": "uint256"
        }
      ],
      "name": "transferFrom",
      "outputs": [],
      "stateMutability": "nonpayable",
      "type": "function"
    }
  ],
  "transactionHash": "0x8e5f30075c960c488c50c6eab64ee513af2609bbb8c98bd199a803c0d5edbd9a",
  "args": [
    "0xb3dCcb4Cf7a26f6cf6B120Cf5A73875B7BBc655B",
    "0x01be23585060835e02b77ef475b0cc51aa1e0709",
    "0x2ed0feb3e7fd2022120aa84fab1945545a9f2ffc9076fd6156fa96eaff4c1311",
    "100000000000000000"
  ],
  "numDeployments": 1,
  "solcInputHash": "9109b389a7ed0226e4ad7881767f06bc",
  "bytecode": "0x60c06040523480156200001157600080fd5b506040516200536c3803806200536c8339818101604052810190620000379190620005fe565b83836040518060400160405280600c81526020017f52616e646f6d5356474e465400000000000000000000000000000000000000008152506040518060400160405280600581526020017f72734e46540000000000000000000000000000000000000000000000000000008152508160009080519060200190620000bd929190620003cd565b508060019080519060200190620000d6929190620003cd565b5050508173ffffffffffffffffffffffffffffffffffffffff1660a08173ffffffffffffffffffffffffffffffffffffffff1660601b815250508073ffffffffffffffffffffffffffffffffffffffff1660808173ffffffffffffffffffffffffffffffffffffffff1660601b81525050505081600881905550806009819055506000600a81905550600a600b819055506005600c819055506101f4600d8190555060405180604001604052806040518060400160405280600181526020017f4d0000000000000000000000000000000000000000000000000000000000000081525081526020016040518060400160405280600181526020017f4c00000000000000000000000000000000000000000000000000000000000000815250815250600e906002620002099291906200045e565b506040518060e001604052806040518060400160405280600581526020017f626c61636b00000000000000000000000000000000000000000000000000000081525081526020016040518060400160405280600481526020017f626c75650000000000000000000000000000000000000000000000000000000081525081526020016040518060400160405280600381526020017f726564000000000000000000000000000000000000000000000000000000000081525081526020016040518060400160405280600581526020017f677265656e00000000000000000000000000000000000000000000000000000081525081526020016040518060400160405280600681526020017f79656c6c6f77000000000000000000000000000000000000000000000000000081525081526020016040518060400160405280600681526020017f707572706c65000000000000000000000000000000000000000000000000000081525081526020016040518060400160405280600681526020017f6f72616e67650000000000000000000000000000000000000000000000000000815250815250600f906007620003c2929190620004c5565b505050505062000765565b828054620003db90620006b2565b90600052602060002090601f016020900481019282620003ff57600085556200044b565b82601f106200041a57805160ff19168380011785556200044b565b828001600101855582156200044b579182015b828111156200044a5782518255916020019190600101906200042d565b5b5090506200045a91906200052c565b5090565b828054828255906000526020600020908101928215620004b2579160200282015b82811115620004b1578251829080519060200190620004a0929190620003cd565b50916020019190600101906200047f565b5b509050620004c191906200054b565b5090565b82805482825590600052602060002090810192821562000519579160200282015b828111156200051857825182908051906020019062000507929190620003cd565b5091602001919060010190620004e6565b5b5090506200052891906200054b565b5090565b5b80821115620005475760008160009055506001016200052d565b5090565b5b808211156200056f576000818162000565919062000573565b506001016200054c565b5090565b5080546200058190620006b2565b6000825580601f10620005955750620005b6565b601f016020900490600052602060002090810190620005b591906200052c565b5b50565b600081519050620005ca8162000717565b92915050565b600081519050620005e18162000731565b92915050565b600081519050620005f8816200074b565b92915050565b600080600080608085870312156200061557600080fd5b60006200062587828801620005b9565b94505060206200063887828801620005b9565b93505060406200064b87828801620005d0565b92505060606200065e87828801620005e7565b91505092959194509250565b6000620006778262000688565b9050919050565b6000819050919050565b600073ffffffffffffffffffffffffffffffffffffffff82169050919050565b6000819050919050565b60006002820490506001821680620006cb57607f821691505b60208210811415620006e257620006e1620006e8565b5b50919050565b7f4e487b7100000000000000000000000000000000000000000000000000000000600052602260045260246000fd5b62000722816200066a565b81146200072e57600080fd5b50565b6200073c816200067e565b81146200074857600080fd5b50565b6200075681620006a8565b81146200076257600080fd5b50565b60805160601c60a05160601c614bd462000798600039600081816113630152612650015260006126140152614bd46000f3fe608060405234801561001057600080fd5b50600436106101f05760003560e01c806371aee1931161010f578063c76ab940116100a2578063ddca3f4311610071578063ddca3f431461063d578063df9bcd241461065b578063e985e9c514610679578063efc81a8c146106a9576101f0565b8063c76ab9401461058f578063c87b56dd146105bf578063ca0bc0ed146105ef578063d082e3811461061f576101f0565b806395d89b41116100de57806395d89b41146105095780639c1cd79514610527578063a22cb46514610557578063b88d4fde14610573576101f0565b806371aee1931461046f57806394985ddd1461049f578063949d225d146104bb578063955968d4146104d9576101f0565b806330d871c611610187578063624194c711610156578063624194c7146103c35780636352211e146103df5780636dcee4ca1461040f57806370a082311461043f576101f0565b806330d871c61461032957806333af59891461035957806342842e0e1461038957806361728f39146103a5576101f0565b8063095ea7b3116101c3578063095ea7b314610291578063219c0eee146102ad57806322881f88146102dd57806323b872dd1461030d576101f0565b806301f920c6146101f557806301ffc9a71461021357806306fdde0314610243578063081812fc14610261575b600080fd5b6101fd6106c7565b60405161020a9190613e37565b60405180910390f35b61022d600480360381019061022891906131e0565b6106cd565b60405161023a9190613af1565b60405180910390f35b61024b6107af565b6040516102589190613b95565b60405180910390f35b61027b60048036038101906102769190613273565b610841565b6040516102889190613a4c565b60405180910390f35b6102ab60048036038101906102a69190613116565b6108c6565b005b6102c760048036038101906102c2919061317b565b6109de565b6040516102d49190613a4c565b60405180910390f35b6102f760048036038101906102f2919061317b565b610a11565b6040516103049190613e37565b60405180910390f35b61032760048036038101906103229190613010565b610a29565b005b610343600480360381019061033e9190613232565b610a89565b6040516103509190613b95565b60405180910390f35b610373600480360381019061036e9190613273565b610b22565b6040516103809190613b95565b60405180910390f35b6103a3600480360381019061039e9190613010565b610f11565b005b6103ad610f31565b6040516103ba9190613b0c565b60405180910390f35b6103dd60048036038101906103d89190613273565b610f37565b005b6103f960048036038101906103f49190613273565b6110a5565b6040516104069190613a4c565b60405180910390f35b61042960048036038101906104249190613273565b611157565b6040516104369190613b95565b60405180910390f35b61045960048036038101906104549190612fab565b611259565b6040516104669190613e37565b60405180910390f35b61048960048036038101906104849190613232565b611311565b6040516104969190613b95565b60405180910390f35b6104b960048036038101906104b491906131a4565b611361565b005b6104c36113fd565b6040516104d09190613e37565b60405180910390f35b6104f360048036038101906104ee9190613273565b611403565b6040516105009190613b95565b60405180910390f35b6105116114af565b60405161051e9190613b95565b60405180910390f35b610541600480360381019061053c9190613273565b611541565b60405161054e9190613e37565b60405180910390f35b610571600480360381019061056c91906130da565b611559565b005b61058d6004803603810190610588919061305f565b61156f565b005b6105a960048036038101906105a49190613273565b6115d1565b6040516105b69190613b95565b60405180910390f35b6105d960048036038101906105d49190613273565b61167d565b6040516105e69190613b95565b60405180910390f35b6106096004803603810190610604919061329c565b6117cf565b6040516106169190613b95565b60405180910390f35b6106276118a5565b6040516106349190613e37565b60405180910390f35b6106456118ab565b6040516106529190613e37565b60405180910390f35b6106636118b1565b6040516106709190613e37565b60405180910390f35b610693600480360381019061068e9190612fd4565b6118b7565b6040516106a09190613af1565b60405180910390f35b6106b161194b565b6040516106be9190613b0c565b60405180910390f35b600b5481565b60007f80ac58cd000000000000000000000000000000000000000000000000000000007bffffffffffffffffffffffffffffffffffffffffffffffffffffffff1916827bffffffffffffffffffffffffffffffffffffffffffffffffffffffff1916148061079857507f5b5e139f000000000000000000000000000000000000000000000000000000007bffffffffffffffffffffffffffffffffffffffffffffffffffffffff1916827bffffffffffffffffffffffffffffffffffffffffffffffffffffffff1916145b806107a857506107a782611a15565b5b9050919050565b6060600080546107be9061415e565b80601f01602080910402602001604051908101604052809291908181526020018280546107ea9061415e565b80156108375780601f1061080c57610100808354040283529160200191610837565b820191906000526020600020905b81548152906001019060200180831161081a57829003601f168201915b5050505050905090565b600061084c82611a7f565b61088b576040517f08c379a000000000000000000000000000000000000000000000000000000000815260040161088290613d57565b60405180910390fd5b6004600083815260200190815260200160002060009054906101000a900473ffffffffffffffffffffffffffffffffffffffff169050919050565b60006108d1826110a5565b90508073ffffffffffffffffffffffffffffffffffffffff168373ffffffffffffffffffffffffffffffffffffffff161415610942576040517f08c379a000000000000000000000000000000000000000000000000000000000815260040161093990613dd7565b60405180910390fd5b8073ffffffffffffffffffffffffffffffffffffffff16610961611aeb565b73ffffffffffffffffffffffffffffffffffffffff161480610990575061098f8161098a611aeb565b6118b7565b5b6109cf576040517f08c379a00000000000000000000000000000000000000000000000000000000081526004016109c690613c97565b60405180910390fd5b6109d98383611af3565b505050565b60106020528060005260406000206000915054906101000a900473ffffffffffffffffffffffffffffffffffffffff1681565b60116020528060005260406000206000915090505481565b610a3a610a34611aeb565b82611bac565b610a79576040517f08c379a0000000000000000000000000000000000000000000000000000000008152600401610a7090613e17565b60405180910390fd5b610a84838383611c8a565b505050565b606060006040518060400160405280601a81526020017f646174613a696d6167652f7376672b786d6c3b6261736536342c00000000000081525090506000610aef84604051602001610adb91906138ac565b604051602081830303815290604052611ef1565b905060008282604051602001610b069291906138c3565b6040516020818303038152906040529050809350505050919050565b606060006002600c5484610b36919061421e565b610b409190613f45565b90506040518060400160405280600981526020017f3c7061746820643d2700000000000000000000000000000000000000000000008152509150600083600d54604051602001610b91929190613e52565b6040516020818303038152906040528051906020012060001c90506000610c8582600e600081548110610bed577f4e487b7100000000000000000000000000000000000000000000000000000000600052603260045260246000fd5b906000526020600020018054610c029061415e565b80601f0160208091040260200160405190810160405280929190818152602001828054610c2e9061415e565b8015610c7b5780601f10610c5057610100808354040283529160200191610c7b565b820191906000526020600020905b815481529060010190602001808311610c5e57829003601f168201915b50505050506117cf565b90508381604051602001610c9a9291906138c3565b604051602081830303815290604052935060005b83811015610e01578581600d54610cc59190613f45565b604051602001610cd6929190613e52565b6040516020818303038152906040528051906020012060001c9250610dc883600e600181548110610d30577f4e487b7100000000000000000000000000000000000000000000000000000000600052603260045260246000fd5b906000526020600020018054610d459061415e565b80601f0160208091040260200160405190810160405280929190818152602001828054610d719061415e565b8015610dbe5780601f10610d9357610100808354040283529160200191610dbe565b820191906000526020600020905b815481529060010190602001808311610da157829003601f168201915b50505050506117cf565b91508482604051602001610ddd9291906138c3565b60405160208183030381529060405294508080610df9906141c1565b915050610cae565b506000600f808054905087610e16919061421e565b81548110610e4d577f4e487b7100000000000000000000000000000000000000000000000000000000600052603260045260246000fd5b906000526020600020018054610e629061415e565b80601f0160208091040260200160405190810160405280929190818152602001828054610e8e9061415e565b8015610edb5780601f10610eb057610100808354040283529160200191610edb565b820191906000526020600020905b815481529060010190602001808311610ebe57829003601f168201915b50505050509050848182604051602001610ef79392919061392e565b604051602081830303815290604052945050505050919050565b610f2c8383836040518060200160405280600081525061156f565b505050565b60085481565b6000610f428261167d565b5114610f83576040517f08c379a0000000000000000000000000000000000000000000000000000000008152600401610f7a90613c57565b60405180910390fd5b80600a5411610fc7576040517f08c379a0000000000000000000000000000000000000000000000000000000008152600401610fbe90613df7565b60405180910390fd5b600060126000838152602001908152602001600020541161101d576040517f08c379a000000000000000000000000000000000000000000000000000000000815260040161101490613d77565b60405180910390fd5b600060126000838152602001908152602001600020549050600061104082611157565b9050600061104d82610a89565b9050600061105a82611311565b90506110668582612090565b847fcb25abd690c2dce293e6237b33535facf92481a7036a95e95ff3977eeaa66688826040516110969190613b95565b60405180910390a25050505050565b6000806002600084815260200190815260200160002060009054906101000a900473ffffffffffffffffffffffffffffffffffffffff169050600073ffffffffffffffffffffffffffffffffffffffff168173ffffffffffffffffffffffffffffffffffffffff16141561114e576040517f08c379a000000000000000000000000000000000000000000000000000000000815260040161114590613cd7565b60405180910390fd5b80915050919050565b606060006002600b548461116b919061421e565b6111759190613f45565b9050611182600d54612104565b61118d600d54612104565b60405160200161119e9291906139e5565b604051602081830303815290604052915060005b8181101561123057600084826040516020016111cf929190613e52565b6040516020818303038152906040528051906020012060001c905060006111f582610b22565b9050848160405160200161120a9291906138c3565b604051602081830303815290604052945050508080611228906141c1565b9150506111b2565b50816040516020016112429190613980565b604051602081830303815290604052915050919050565b60008073ffffffffffffffffffffffffffffffffffffffff168273ffffffffffffffffffffffffffffffffffffffff1614156112ca576040517f08c379a00000000000000000000000000000000000000000000000000000000081526004016112c190613cb7565b60405180910390fd5b600360008373ffffffffffffffffffffffffffffffffffffffff1673ffffffffffffffffffffffffffffffffffffffff168152602001908152602001600020549050919050565b606061133b8260405160200161132791906139a2565b604051602081830303815290604052611ef1565b60405160200161134b9190613a2a565b6040516020818303038152906040529050919050565b7f000000000000000000000000000000000000000000000000000000000000000073ffffffffffffffffffffffffffffffffffffffff163373ffffffffffffffffffffffffffffffffffffffff16146113ef576040517f08c379a00000000000000000000000000000000000000000000000000000000081526004016113e690613db7565b60405180910390fd5b6113f982826122d9565b5050565b600d5481565b600e818154811061141357600080fd5b90600052602060002001600091509050805461142e9061415e565b80601f016020809104026020016040519081016040528092919081815260200182805461145a9061415e565b80156114a75780601f1061147c576101008083540402835291602001916114a7565b820191906000526020600020905b81548152906001019060200180831161148a57829003601f168201915b505050505081565b6060600180546114be9061415e565b80601f01602080910402602001604051908101604052809291908181526020018280546114ea9061415e565b80156115375780601f1061150c57610100808354040283529160200191611537565b820191906000526020600020905b81548152906001019060200180831161151a57829003601f168201915b5050505050905090565b60126020528060005260406000206000915090505481565b61156b611564611aeb565b8383612389565b5050565b61158061157a611aeb565b83611bac565b6115bf576040517f08c379a00000000000000000000000000000000000000000000000000000000081526004016115b690613e17565b60405180910390fd5b6115cb848484846124f6565b50505050565b600f81815481106115e157600080fd5b9060005260206000200160009150905080546115fc9061415e565b80601f01602080910402602001604051908101604052809291908181526020018280546116289061415e565b80156116755780601f1061164a57610100808354040283529160200191611675565b820191906000526020600020905b81548152906001019060200180831161165857829003601f168201915b505050505081565b606061168882611a7f565b6116c7576040517f08c379a00000000000000000000000000000000000000000000000000000000081526004016116be90613d37565b60405180910390fd5b60006006600084815260200190815260200160002080546116e79061415e565b80601f01602080910402602001604051908101604052809291908181526020018280546117139061415e565b80156117605780601f1061173557610100808354040283529160200191611760565b820191906000526020600020905b81548152906001019060200180831161174357829003601f168201915b505050505090506000611771612552565b90506000815114156117875781925050506117ca565b6000825111156117bc5780826040516020016117a49291906138c3565b604051602081830303815290604052925050506117ca565b6117c584612569565b925050505b919050565b60606000600d54846002600d546117e69190614003565b6040516020016117f7929190613e52565b6040516020818303038152906040528051906020012060001c61181a919061421e565b90506000600d54856003600d546118319190614003565b604051602001611842929190613e52565b6040516020818303038152906040528051906020012060001c611865919061421e565b90508361187183612104565b61187a83612104565b60405160200161188c939291906138e7565b6040516020818303038152906040529250505092915050565b600a5481565b60095481565b600c5481565b6000600560008473ffffffffffffffffffffffffffffffffffffffff1673ffffffffffffffffffffffffffffffffffffffff16815260200190815260200160002060008373ffffffffffffffffffffffffffffffffffffffff1673ffffffffffffffffffffffffffffffffffffffff16815260200190815260200160002060009054906101000a900460ff16905092915050565b600061195b600854600954612610565b9050336010600083815260200190815260200160002060006101000a81548173ffffffffffffffffffffffffffffffffffffffff021916908373ffffffffffffffffffffffffffffffffffffffff1602179055506000600a5490508060116000848152602001908152602001600020819055506001600a546119dd9190613f45565b600a8190555080827fd18cd6f82baac9078af064ea020dd3dc7bff649bd8d50684f972d5995fec6e6960405160405180910390a35090565b60007f01ffc9a7000000000000000000000000000000000000000000000000000000007bffffffffffffffffffffffffffffffffffffffffffffffffffffffff1916827bffffffffffffffffffffffffffffffffffffffffffffffffffffffff1916149050919050565b60008073ffffffffffffffffffffffffffffffffffffffff166002600084815260200190815260200160002060009054906101000a900473ffffffffffffffffffffffffffffffffffffffff1673ffffffffffffffffffffffffffffffffffffffff1614159050919050565b600033905090565b816004600083815260200190815260200160002060006101000a81548173ffffffffffffffffffffffffffffffffffffffff021916908373ffffffffffffffffffffffffffffffffffffffff160217905550808273ffffffffffffffffffffffffffffffffffffffff16611b66836110a5565b73ffffffffffffffffffffffffffffffffffffffff167f8c5be1e5ebec7d5bd14f71427d1e84f3dd0314c0f7b2291e5b200ac8c7c3b92560405160405180910390a45050565b6000611bb782611a7f565b611bf6576040517f08c379a0000000000000000000000000000000000000000000000000000000008152600401611bed90613c77565b60405180910390fd5b6000611c01836110a5565b90508073ffffffffffffffffffffffffffffffffffffffff168473ffffffffffffffffffffffffffffffffffffffff161480611c7057508373ffffffffffffffffffffffffffffffffffffffff16611c5884610841565b73ffffffffffffffffffffffffffffffffffffffff16145b80611c815750611c8081856118b7565b5b91505092915050565b8273ffffffffffffffffffffffffffffffffffffffff16611caa826110a5565b73ffffffffffffffffffffffffffffffffffffffff1614611d00576040517f08c379a0000000000000000000000000000000000000000000000000000000008152600401611cf790613bd7565b60405180910390fd5b600073ffffffffffffffffffffffffffffffffffffffff168273ffffffffffffffffffffffffffffffffffffffff161415611d70576040517f08c379a0000000000000000000000000000000000000000000000000000000008152600401611d6790613c17565b60405180910390fd5b611d7b838383612772565b611d86600082611af3565b6001600360008573ffffffffffffffffffffffffffffffffffffffff1673ffffffffffffffffffffffffffffffffffffffff1681526020019081526020016000206000828254611dd6919061405d565b925050819055506001600360008473ffffffffffffffffffffffffffffffffffffffff1673ffffffffffffffffffffffffffffffffffffffff1681526020019081526020016000206000828254611e2d9190613f45565b92505081905550816002600083815260200190815260200160002060006101000a81548173ffffffffffffffffffffffffffffffffffffffff021916908373ffffffffffffffffffffffffffffffffffffffff160217905550808273ffffffffffffffffffffffffffffffffffffffff168473ffffffffffffffffffffffffffffffffffffffff167fddf252ad1be2c89b69c2b068fc378daa952ba7f163c4a11628f55a4df523b3ef60405160405180910390a4611eec838383612777565b505050565b6060600082511415611f145760405180602001604052806000815250905061208b565b6000604051806060016040528060408152602001614b5f6040913990506000600360028551611f439190613f45565b611f4d9190613fd2565b6004611f599190614003565b90506000602082611f6a9190613f45565b67ffffffffffffffff811115611fa9577f4e487b7100000000000000000000000000000000000000000000000000000000600052604160045260246000fd5b6040519080825280601f01601f191660200182016040528015611fdb5781602001600182028036833780820191505090505b509050818152600183018586518101602084015b8183101561204a576003830192508251603f8160121c168501518253600182019150603f81600c1c168501518253600182019150603f8160061c168501518253600182019150603f8116850151825360018201915050611fef565b60038951066001811461206457600281146120745761207f565b613d3d60f01b600283035261207f565b603d60f81b60018303525b50505050508093505050505b919050565b61209982611a7f565b6120d8576040517f08c379a00000000000000000000000000000000000000000000000000000000081526004016120cf90613cf7565b60405180910390fd5b806006600084815260200190815260200160002090805190602001906120ff929190612da5565b505050565b6060600082141561214c576040518060400160405280600181526020017f300000000000000000000000000000000000000000000000000000000000000081525090506122d4565b600082905060005b6000821461217e578080612167906141c1565b915050600a826121779190613fd2565b9150612154565b60008167ffffffffffffffff8111156121c0577f4e487b7100000000000000000000000000000000000000000000000000000000600052604160045260246000fd5b6040519080825280601f01601f1916602001820160405280156121f25781602001600182028036833780820191505090505b50905060008290505b600086146122cc57600181612210919061405d565b90506000600a80886122229190613fd2565b61222c9190614003565b87612237919061405d565b60306122439190613f9b565b905060008160f81b905080848481518110612287577f4e487b7100000000000000000000000000000000000000000000000000000000600052603260045260246000fd5b60200101907effffffffffffffffffffffffffffffffffffffffffffffffffffffffffffff1916908160001a905350600a886122c39190613fd2565b975050506121fb565b819450505050505b919050565b60006010600084815260200190815260200160002060009054906101000a900473ffffffffffffffffffffffffffffffffffffffff169050600060116000858152602001908152602001600020549050612333828261277c565b826012600083815260200190815260200160002081905550807faad5362ce528ed941024b95d4c18dfd49b8503e1f586a5c353631d98c2af41b78460405161237b9190613e37565b60405180910390a250505050565b8173ffffffffffffffffffffffffffffffffffffffff168373ffffffffffffffffffffffffffffffffffffffff1614156123f8576040517f08c379a00000000000000000000000000000000000000000000000000000000081526004016123ef90613c37565b60405180910390fd5b80600560008573ffffffffffffffffffffffffffffffffffffffff1673ffffffffffffffffffffffffffffffffffffffff16815260200190815260200160002060008473ffffffffffffffffffffffffffffffffffffffff1673ffffffffffffffffffffffffffffffffffffffff16815260200190815260200160002060006101000a81548160ff0219169083151502179055508173ffffffffffffffffffffffffffffffffffffffff168373ffffffffffffffffffffffffffffffffffffffff167f17307eab39ab6107e8899845ad3d59bd9653f200f220920489ca2b5937696c31836040516124e99190613af1565b60405180910390a3505050565b612501848484611c8a565b61250d8484848461279a565b61254c576040517f08c379a000000000000000000000000000000000000000000000000000000000815260040161254390613bb7565b60405180910390fd5b50505050565b606060405180602001604052806000815250905090565b606061257482611a7f565b6125b3576040517f08c379a00000000000000000000000000000000000000000000000000000000081526004016125aa90613d97565b60405180910390fd5b60006125bd612552565b905060008151116125dd5760405180602001604052806000815250612608565b806125e784612931565b6040516020016125f89291906138c3565b6040516020818303038152906040525b915050919050565b60007f000000000000000000000000000000000000000000000000000000000000000073ffffffffffffffffffffffffffffffffffffffff16634000aea07f000000000000000000000000000000000000000000000000000000000000000084866000604051602001612684929190613b27565b6040516020818303038152906040526040518463ffffffff1660e01b81526004016126b193929190613ab3565b602060405180830381600087803b1580156126cb57600080fd5b505af11580156126df573d6000803e3d6000fd5b505050506040513d601f19601f820116820180604052508101906127039190613152565b506000612726846000306007600089815260200190815260200160002054612ade565b9050600160076000868152602001908152602001600020546127489190613f45565b60076000868152602001908152602001600020819055506127698482612b1a565b91505092915050565b505050565b505050565b612796828260405180602001604052806000815250612b4d565b5050565b60006127bb8473ffffffffffffffffffffffffffffffffffffffff16612ba8565b15612924578373ffffffffffffffffffffffffffffffffffffffff1663150b7a026127e4611aeb565b8786866040518563ffffffff1660e01b81526004016128069493929190613a67565b602060405180830381600087803b15801561282057600080fd5b505af192505050801561285157506040513d601f19601f8201168201806040525081019061284e9190613209565b60015b6128d4573d8060008114612881576040519150601f19603f3d011682016040523d82523d6000602084013e612886565b606091505b506000815114156128cc576040517f08c379a00000000000000000000000000000000000000000000000000000000081526004016128c390613bb7565b60405180910390fd5b805181602001fd5b63150b7a0260e01b7bffffffffffffffffffffffffffffffffffffffffffffffffffffffff1916817bffffffffffffffffffffffffffffffffffffffffffffffffffffffff191614915050612929565b600190505b949350505050565b60606000821415612979576040518060400160405280600181526020017f30000000000000000000000000000000000000000000000000000000000000008152509050612ad9565b600082905060005b600082146129ab578080612994906141c1565b915050600a826129a49190613fd2565b9150612981565b60008167ffffffffffffffff8111156129ed577f4e487b7100000000000000000000000000000000000000000000000000000000600052604160045260246000fd5b6040519080825280601f01601f191660200182016040528015612a1f5781602001600182028036833780820191505090505b5090505b60008514612ad257600182612a38919061405d565b9150600a85612a47919061421e565b6030612a539190613f45565b60f81b818381518110612a8f577f4e487b7100000000000000000000000000000000000000000000000000000000600052603260045260246000fd5b60200101907effffffffffffffffffffffffffffffffffffffffffffffffffffffffffffff1916908160001a905350600a85612acb9190613fd2565b9450612a23565b8093505050505b919050565b600084848484604051602001612af79493929190613b50565b6040516020818303038152906040528051906020012060001c9050949350505050565b60008282604051602001612b2f929190613880565b60405160208183030381529060405280519060200120905092915050565b612b578383612bcb565b612b64600084848461279a565b612ba3576040517f08c379a0000000000000000000000000000000000000000000000000000000008152600401612b9a90613bb7565b60405180910390fd5b505050565b6000808273ffffffffffffffffffffffffffffffffffffffff163b119050919050565b600073ffffffffffffffffffffffffffffffffffffffff168273ffffffffffffffffffffffffffffffffffffffff161415612c3b576040517f08c379a0000000000000000000000000000000000000000000000000000000008152600401612c3290613d17565b60405180910390fd5b612c4481611a7f565b15612c84576040517f08c379a0000000000000000000000000000000000000000000000000000000008152600401612c7b90613bf7565b60405180910390fd5b612c9060008383612772565b6001600360008473ffffffffffffffffffffffffffffffffffffffff1673ffffffffffffffffffffffffffffffffffffffff1681526020019081526020016000206000828254612ce09190613f45565b92505081905550816002600083815260200190815260200160002060006101000a81548173ffffffffffffffffffffffffffffffffffffffff021916908373ffffffffffffffffffffffffffffffffffffffff160217905550808273ffffffffffffffffffffffffffffffffffffffff16600073ffffffffffffffffffffffffffffffffffffffff167fddf252ad1be2c89b69c2b068fc378daa952ba7f163c4a11628f55a4df523b3ef60405160405180910390a4612da160008383612777565b5050565b828054612db19061415e565b90600052602060002090601f016020900481019282612dd35760008555612e1a565b82601f10612dec57805160ff1916838001178555612e1a565b82800160010185558215612e1a579182015b82811115612e19578251825591602001919060010190612dfe565b5b509050612e279190612e2b565b5090565b5b80821115612e44576000816000905550600101612e2c565b5090565b6000612e5b612e5684613ea0565b613e7b565b905082815260208101848484011115612e7357600080fd5b612e7e84828561411c565b509392505050565b6000612e99612e9484613ed1565b613e7b565b905082815260208101848484011115612eb157600080fd5b612ebc84828561411c565b509392505050565b600081359050612ed381614aeb565b92915050565b600081359050612ee881614b02565b92915050565b600081519050612efd81614b02565b92915050565b600081359050612f1281614b19565b92915050565b600081359050612f2781614b30565b92915050565b600081519050612f3c81614b30565b92915050565b600082601f830112612f5357600080fd5b8135612f63848260208601612e48565b91505092915050565b600082601f830112612f7d57600080fd5b8135612f8d848260208601612e86565b91505092915050565b600081359050612fa581614b47565b92915050565b600060208284031215612fbd57600080fd5b6000612fcb84828501612ec4565b91505092915050565b60008060408385031215612fe757600080fd5b6000612ff585828601612ec4565b925050602061300685828601612ec4565b9150509250929050565b60008060006060848603121561302557600080fd5b600061303386828701612ec4565b935050602061304486828701612ec4565b925050604061305586828701612f96565b9150509250925092565b6000806000806080858703121561307557600080fd5b600061308387828801612ec4565b945050602061309487828801612ec4565b93505060406130a587828801612f96565b925050606085013567ffffffffffffffff8111156130c257600080fd5b6130ce87828801612f42565b91505092959194509250565b600080604083850312156130ed57600080fd5b60006130fb85828601612ec4565b925050602061310c85828601612ed9565b9150509250929050565b6000806040838503121561312957600080fd5b600061313785828601612ec4565b925050602061314885828601612f96565b9150509250929050565b60006020828403121561316457600080fd5b600061317284828501612eee565b91505092915050565b60006020828403121561318d57600080fd5b600061319b84828501612f03565b91505092915050565b600080604083850312156131b757600080fd5b60006131c585828601612f03565b92505060206131d685828601612f96565b9150509250929050565b6000602082840312156131f257600080fd5b600061320084828501612f18565b91505092915050565b60006020828403121561321b57600080fd5b600061322984828501612f2d565b91505092915050565b60006020828403121561324457600080fd5b600082013567ffffffffffffffff81111561325e57600080fd5b61326a84828501612f6c565b91505092915050565b60006020828403121561328557600080fd5b600061329384828501612f96565b91505092915050565b600080604083850312156132af57600080fd5b60006132bd85828601612f96565b925050602083013567ffffffffffffffff8111156132da57600080fd5b6132e685828601612f6c565b9150509250929050565b6132f981614091565b82525050565b613308816140a3565b82525050565b613317816140af565b82525050565b61332e613329826140af565b61420a565b82525050565b600061333f82613f02565b6133498185613f18565b935061335981856020860161412b565b6133628161430b565b840191505092915050565b600061337882613f0d565b6133828185613f29565b935061339281856020860161412b565b61339b8161430b565b840191505092915050565b60006133b182613f0d565b6133bb8185613f3a565b93506133cb81856020860161412b565b80840191505092915050565b60006133e4600983613f3a565b91506133ef8261431c565b600982019050919050565b6000613407603283613f29565b915061341282614345565b604082019050919050565b600061342a602583613f29565b915061343582614394565b604082019050919050565b600061344d601c83613f29565b9150613458826143e3565b602082019050919050565b6000613470600883613f3a565b915061347b8261440c565b600882019050919050565b6000613493600a83613f3a565b915061349e82614435565b600a82019050919050565b60006134b6602483613f29565b91506134c18261445e565b604082019050919050565b60006134d9601983613f29565b91506134e4826144ad565b602082019050919050565b60006134fc601783613f29565b9150613507826144d6565b602082019050919050565b600061351f602c83613f29565b915061352a826144ff565b604082019050919050565b6000613542600183613f3a565b915061354d8261454e565b600182019050919050565b6000613565600383613f3a565b915061357082614577565b600382019050919050565b6000613588600783613f3a565b9150613593826145a0565b600782019050919050565b60006135ab603883613f29565b91506135b6826145c9565b604082019050919050565b60006135ce602a83613f29565b91506135d982614618565b604082019050919050565b60006135f1602983613f29565b91506135fc82614667565b604082019050919050565b6000613614602e83613f29565b915061361f826146b6565b604082019050919050565b6000613637600283613f3a565b915061364282614705565b600282019050919050565b600061365a602083613f29565b91506136658261472e565b602082019050919050565b600061367d603183613f29565b915061368882614757565b604082019050919050565b60006136a0602c83613f29565b91506136ab826147a6565b604082019050919050565b60006136c3602783613f29565b91506136ce826147f5565b604082019050919050565b60006136e6603083613f3a565b91506136f182614844565b603082019050919050565b6000613709602f83613f29565b915061371482614893565b604082019050919050565b600061372c601f83613f29565b9150613737826148e2565b602082019050919050565b600061374f604283613f3a565b915061375a8261490b565b604282019050919050565b6000613772602183613f29565b915061377d82614980565b604082019050919050565b6000613795601d83613f3a565b91506137a0826149cf565b601d82019050919050565b60006137b8601f83613f29565b91506137c3826149f8565b602082019050919050565b60006137db603183613f29565b91506137e682614a21565b604082019050919050565b60006137fe600283613f3a565b915061380982614a70565b600282019050919050565b6000613821600683613f3a565b915061382c82614a99565b600682019050919050565b6000613844600983613f3a565b915061384f82614ac2565b600982019050919050565b61386381614105565b82525050565b61387a61387582614105565b614214565b82525050565b600061388c828561331d565b60208201915061389c8284613869565b6020820191508190509392505050565b60006138b882846133a6565b915081905092915050565b60006138cf82856133a6565b91506138db82846133a6565b91508190509392505050565b60006138f382866133a6565b91506138ff82856133a6565b915061390a82613535565b915061391682846133a6565b915061392182613535565b9150819050949350505050565b600061393a82866133a6565b915061394582613463565b915061395182856133a6565b915061395c82613486565b915061396882846133a6565b915061397382613558565b9150819050949350505050565b600061398c82846133a6565b915061399782613814565b915081905092915050565b60006139ad826133d7565b91506139b88261357b565b91506139c382613742565b91506139cf82846133a6565b91506139da8261362a565b915081905092915050565b60006139f0826136d9565b91506139fc82856133a6565b9150613a0782613837565b9150613a1382846133a6565b9150613a1e826137f1565b91508190509392505050565b6000613a3582613788565b9150613a4182846133a6565b915081905092915050565b6000602082019050613a6160008301846132f0565b92915050565b6000608082019050613a7c60008301876132f0565b613a8960208301866132f0565b613a96604083018561385a565b8181036060830152613aa88184613334565b905095945050505050565b6000606082019050613ac860008301866132f0565b613ad5602083018561385a565b8181036040830152613ae78184613334565b9050949350505050565b6000602082019050613b0660008301846132ff565b92915050565b6000602082019050613b21600083018461330e565b92915050565b6000604082019050613b3c600083018561330e565b613b49602083018461385a565b9392505050565b6000608082019050613b65600083018761330e565b613b72602083018661385a565b613b7f60408301856132f0565b613b8c606083018461385a565b95945050505050565b60006020820190508181036000830152613baf818461336d565b905092915050565b60006020820190508181036000830152613bd0816133fa565b9050919050565b60006020820190508181036000830152613bf08161341d565b9050919050565b60006020820190508181036000830152613c1081613440565b9050919050565b60006020820190508181036000830152613c30816134a9565b9050919050565b60006020820190508181036000830152613c50816134cc565b9050919050565b60006020820190508181036000830152613c70816134ef565b9050919050565b60006020820190508181036000830152613c9081613512565b9050919050565b60006020820190508181036000830152613cb08161359e565b9050919050565b60006020820190508181036000830152613cd0816135c1565b9050919050565b60006020820190508181036000830152613cf0816135e4565b9050919050565b60006020820190508181036000830152613d1081613607565b9050919050565b60006020820190508181036000830152613d308161364d565b9050919050565b60006020820190508181036000830152613d5081613670565b9050919050565b60006020820190508181036000830152613d7081613693565b9050919050565b60006020820190508181036000830152613d90816136b6565b9050919050565b60006020820190508181036000830152613db0816136fc565b9050919050565b60006020820190508181036000830152613dd08161371f565b9050919050565b60006020820190508181036000830152613df081613765565b9050919050565b60006020820190508181036000830152613e10816137ab565b9050919050565b60006020820190508181036000830152613e30816137ce565b9050919050565b6000602082019050613e4c600083018461385a565b92915050565b6000604082019050613e67600083018561385a565b613e74602083018461385a565b9392505050565b6000613e85613e96565b9050613e918282614190565b919050565b6000604051905090565b600067ffffffffffffffff821115613ebb57613eba6142dc565b5b613ec48261430b565b9050602081019050919050565b600067ffffffffffffffff821115613eec57613eeb6142dc565b5b613ef58261430b565b9050602081019050919050565b600081519050919050565b600081519050919050565b600082825260208201905092915050565b600082825260208201905092915050565b600081905092915050565b6000613f5082614105565b9150613f5b83614105565b9250827fffffffffffffffffffffffffffffffffffffffffffffffffffffffffffffffff03821115613f9057613f8f61424f565b5b828201905092915050565b6000613fa68261410f565b9150613fb18361410f565b92508260ff03821115613fc757613fc661424f565b5b828201905092915050565b6000613fdd82614105565b9150613fe883614105565b925082613ff857613ff761427e565b5b828204905092915050565b600061400e82614105565b915061401983614105565b9250817fffffffffffffffffffffffffffffffffffffffffffffffffffffffffffffffff04831182151516156140525761405161424f565b5b828202905092915050565b600061406882614105565b915061407383614105565b9250828210156140865761408561424f565b5b828203905092915050565b600061409c826140e5565b9050919050565b60008115159050919050565b6000819050919050565b60007fffffffff0000000000000000000000000000000000000000000000000000000082169050919050565b600073ffffffffffffffffffffffffffffffffffffffff82169050919050565b6000819050919050565b600060ff82169050919050565b82818337600083830152505050565b60005b8381101561414957808201518184015260208101905061412e565b83811115614158576000848401525b50505050565b6000600282049050600182168061417657607f821691505b6020821081141561418a576141896142ad565b5b50919050565b6141998261430b565b810181811067ffffffffffffffff821117156141b8576141b76142dc565b5b80604052505050565b60006141cc82614105565b91507fffffffffffffffffffffffffffffffffffffffffffffffffffffffffffffffff8214156141ff576141fe61424f565b5b600182019050919050565b6000819050919050565b6000819050919050565b600061422982614105565b915061423483614105565b9250826142445761424361427e565b5b828206905092915050565b7f4e487b7100000000000000000000000000000000000000000000000000000000600052601160045260246000fd5b7f4e487b7100000000000000000000000000000000000000000000000000000000600052601260045260246000fd5b7f4e487b7100000000000000000000000000000000000000000000000000000000600052602260045260246000fd5b7f4e487b7100000000000000000000000000000000000000000000000000000000600052604160045260246000fd5b6000601f19601f8301169050919050565b7f7b226e616d65223a220000000000000000000000000000000000000000000000600082015250565b7f4552433732313a207472616e7366657220746f206e6f6e20455243373231526560008201527f63656976657220696d706c656d656e7465720000000000000000000000000000602082015250565b7f4552433732313a207472616e736665722066726f6d20696e636f72726563742060008201527f6f776e6572000000000000000000000000000000000000000000000000000000602082015250565b7f4552433732313a20746f6b656e20616c7265616479206d696e74656400000000600082015250565b7f272066696c6c3d27000000000000000000000000000000000000000000000000600082015250565b7f27207374726f6b653d2700000000000000000000000000000000000000000000600082015250565b7f4552433732313a207472616e7366657220746f20746865207a65726f2061646460008201527f7265737300000000000000000000000000000000000000000000000000000000602082015250565b7f4552433732313a20617070726f766520746f2063616c6c657200000000000000600082015250565b7f746f6b656e55524920697320616c726561647920736574000000000000000000600082015250565b7f4552433732313a206f70657261746f7220717565727920666f72206e6f6e657860008201527f697374656e7420746f6b656e0000000000000000000000000000000000000000602082015250565b7f2000000000000000000000000000000000000000000000000000000000000000600082015250565b7f272f3e0000000000000000000000000000000000000000000000000000000000600082015250565b7f535647204e465400000000000000000000000000000000000000000000000000600082015250565b7f4552433732313a20617070726f76652063616c6c6572206973206e6f74206f7760008201527f6e6572206e6f7220617070726f76656420666f7220616c6c0000000000000000602082015250565b7f4552433732313a2062616c616e636520717565727920666f7220746865207a6560008201527f726f206164647265737300000000000000000000000000000000000000000000602082015250565b7f4552433732313a206f776e657220717565727920666f72206e6f6e657869737460008201527f656e7420746f6b656e0000000000000000000000000000000000000000000000602082015250565b7f45524337323155524953746f726167653a2055524920736574206f66206e6f6e60008201527f6578697374656e7420746f6b656e000000000000000000000000000000000000602082015250565b7f227d000000000000000000000000000000000000000000000000000000000000600082015250565b7f4552433732313a206d696e7420746f20746865207a65726f2061646472657373600082015250565b7f45524337323155524953746f726167653a2055524920717565727920666f722060008201527f6e6f6e6578697374656e7420746f6b656e000000000000000000000000000000602082015250565b7f4552433732313a20617070726f76656420717565727920666f72206e6f6e657860008201527f697374656e7420746f6b656e0000000000000000000000000000000000000000602082015250565b7f52616e646f6d206e756d626572206e6f7420796574207265636965766564206660008201527f726f6d2056524600000000000000000000000000000000000000000000000000602082015250565b7f3c73766720786d6c6e733d27687474703a2f2f7777772e77332e6f72672f323060008201527f30302f73766727206865696768743d2700000000000000000000000000000000602082015250565b7f4552433732314d657461646174613a2055524920717565727920666f72206e6f60008201527f6e6578697374656e7420746f6b656e0000000000000000000000000000000000602082015250565b7f4f6e6c7920565246436f6f7264696e61746f722063616e2066756c66696c6c00600082015250565b7f222c20226465736372697074696f6e223a22416e204e4654206261736564206f60008201527f6e20535647222c202261747472696275746573223a22222c2022696d6167652260208201527f3a22000000000000000000000000000000000000000000000000000000000000604082015250565b7f4552433732313a20617070726f76616c20746f2063757272656e74206f776e6560008201527f7200000000000000000000000000000000000000000000000000000000000000602082015250565b7f646174613a6170706c69636174696f6e2f6a736f6e3b6261736536342c000000600082015250565b7f746f6b656e496420686173206e6f7420796574206265656e206d696e74656400600082015250565b7f4552433732313a207472616e736665722063616c6c6572206973206e6f74206f60008201527f776e6572206e6f7220617070726f766564000000000000000000000000000000602082015250565b7f273e000000000000000000000000000000000000000000000000000000000000600082015250565b7f3c2f7376673e0000000000000000000000000000000000000000000000000000600082015250565b7f272077696474683d270000000000000000000000000000000000000000000000600082015250565b614af481614091565b8114614aff57600080fd5b50565b614b0b816140a3565b8114614b1657600080fd5b50565b614b22816140af565b8114614b2d57600080fd5b50565b614b39816140b9565b8114614b4457600080fd5b50565b614b5081614105565b8114614b5b57600080fd5b5056fe4142434445464748494a4b4c4d4e4f505152535455565758595a6162636465666768696a6b6c6d6e6f707172737475767778797a303132333435363738392b2fa2646970667358221220ed0bfcefbaa9644f601ee1d3674ad145568ae59bf065c3da38e8e5197b1b562e64736f6c63430008010033",
  "devdoc": {
    "kind": "dev",
    "methods": {
      "approve(address,uint256)": {
        "details": "See {IERC721-approve}."
      },
      "balanceOf(address)": {
        "details": "See {IERC721-balanceOf}."
      },
      "getApproved(uint256)": {
        "details": "See {IERC721-getApproved}."
      },
      "isApprovedForAll(address,address)": {
        "details": "See {IERC721-isApprovedForAll}."
      },
      "name()": {
        "details": "See {IERC721Metadata-name}."
      },
      "ownerOf(uint256)": {
        "details": "See {IERC721-ownerOf}."
      },
      "safeTransferFrom(address,address,uint256)": {
        "details": "See {IERC721-safeTransferFrom}."
      },
      "safeTransferFrom(address,address,uint256,bytes)": {
        "details": "See {IERC721-safeTransferFrom}."
      },
      "setApprovalForAll(address,bool)": {
        "details": "See {IERC721-setApprovalForAll}."
      },
      "supportsInterface(bytes4)": {
        "details": "See {IERC165-supportsInterface}."
      },
      "symbol()": {
        "details": "See {IERC721Metadata-symbol}."
      },
      "tokenURI(uint256)": {
        "details": "See {IERC721Metadata-tokenURI}."
      },
      "transferFrom(address,address,uint256)": {
        "details": "See {IERC721-transferFrom}."
      }
    },
    "version": 1
  },
  "userdoc": {
    "kind": "user",
    "methods": {},
    "version": 1
  },
  "storageLayout": {
    "storage": [
      {
        "astId": 291,
        "contract": "contracts/RandomSVGNFT.sol:RandomSVGNFT",
        "label": "_name",
        "offset": 0,
        "slot": "0",
        "type": "t_string_storage"
      },
      {
        "astId": 293,
        "contract": "contracts/RandomSVGNFT.sol:RandomSVGNFT",
        "label": "_symbol",
        "offset": 0,
        "slot": "1",
        "type": "t_string_storage"
      },
      {
        "astId": 297,
        "contract": "contracts/RandomSVGNFT.sol:RandomSVGNFT",
        "label": "_owners",
        "offset": 0,
        "slot": "2",
        "type": "t_mapping(t_uint256,t_address)"
      },
      {
        "astId": 301,
        "contract": "contracts/RandomSVGNFT.sol:RandomSVGNFT",
        "label": "_balances",
        "offset": 0,
        "slot": "3",
        "type": "t_mapping(t_address,t_uint256)"
      },
      {
        "astId": 305,
        "contract": "contracts/RandomSVGNFT.sol:RandomSVGNFT",
        "label": "_tokenApprovals",
        "offset": 0,
        "slot": "4",
        "type": "t_mapping(t_uint256,t_address)"
      },
      {
        "astId": 311,
        "contract": "contracts/RandomSVGNFT.sol:RandomSVGNFT",
        "label": "_operatorApprovals",
        "offset": 0,
        "slot": "5",
        "type": "t_mapping(t_address,t_mapping(t_address,t_bool))"
      },
      {
        "astId": 1278,
        "contract": "contracts/RandomSVGNFT.sol:RandomSVGNFT",
        "label": "_tokenURIs",
        "offset": 0,
        "slot": "6",
        "type": "t_mapping(t_uint256,t_string_storage)"
      },
      {
        "astId": 79,
        "contract": "contracts/RandomSVGNFT.sol:RandomSVGNFT",
        "label": "nonces",
        "offset": 0,
        "slot": "7",
        "type": "t_mapping(t_bytes32,t_uint256)"
      },
      {
        "astId": 2102,
        "contract": "contracts/RandomSVGNFT.sol:RandomSVGNFT",
        "label": "keyHash",
        "offset": 0,
        "slot": "8",
        "type": "t_bytes32"
      },
      {
        "astId": 2104,
        "contract": "contracts/RandomSVGNFT.sol:RandomSVGNFT",
        "label": "fee",
        "offset": 0,
        "slot": "9",
        "type": "t_uint256"
      },
      {
        "astId": 2106,
        "contract": "contracts/RandomSVGNFT.sol:RandomSVGNFT",
        "label": "tokenCounter",
        "offset": 0,
        "slot": "10",
        "type": "t_uint256"
      },
      {
        "astId": 2108,
        "contract": "contracts/RandomSVGNFT.sol:RandomSVGNFT",
        "label": "maxPaths",
        "offset": 0,
        "slot": "11",
        "type": "t_uint256"
      },
      {
        "astId": 2110,
        "contract": "contracts/RandomSVGNFT.sol:RandomSVGNFT",
        "label": "maxPathCommands",
        "offset": 0,
        "slot": "12",
        "type": "t_uint256"
      },
      {
        "astId": 2112,
        "contract": "contracts/RandomSVGNFT.sol:RandomSVGNFT",
        "label": "size",
        "offset": 0,
        "slot": "13",
        "type": "t_uint256"
      },
      {
        "astId": 2115,
        "contract": "contracts/RandomSVGNFT.sol:RandomSVGNFT",
        "label": "pathCommands",
        "offset": 0,
        "slot": "14",
        "type": "t_array(t_string_storage)dyn_storage"
      },
      {
        "astId": 2118,
        "contract": "contracts/RandomSVGNFT.sol:RandomSVGNFT",
        "label": "colours",
        "offset": 0,
        "slot": "15",
        "type": "t_array(t_string_storage)dyn_storage"
      },
      {
        "astId": 2122,
        "contract": "contracts/RandomSVGNFT.sol:RandomSVGNFT",
        "label": "requestIdToSender",
        "offset": 0,
        "slot": "16",
        "type": "t_mapping(t_bytes32,t_address)"
      },
      {
        "astId": 2126,
        "contract": "contracts/RandomSVGNFT.sol:RandomSVGNFT",
        "label": "requestIdToTokenId",
        "offset": 0,
        "slot": "17",
        "type": "t_mapping(t_bytes32,t_uint256)"
      },
      {
        "astId": 2130,
        "contract": "contracts/RandomSVGNFT.sol:RandomSVGNFT",
        "label": "tokenIdToRandomNumber",
        "offset": 0,
        "slot": "18",
        "type": "t_mapping(t_uint256,t_uint256)"
      }
    ],
    "types": {
      "t_address": {
        "encoding": "inplace",
        "label": "address",
        "numberOfBytes": "20"
      },
      "t_array(t_string_storage)dyn_storage": {
        "base": "t_string_storage",
        "encoding": "dynamic_array",
        "label": "string[]",
        "numberOfBytes": "32"
      },
      "t_bool": {
        "encoding": "inplace",
        "label": "bool",
        "numberOfBytes": "1"
      },
      "t_bytes32": {
        "encoding": "inplace",
        "label": "bytes32",
        "numberOfBytes": "32"
      },
      "t_mapping(t_address,t_bool)": {
        "encoding": "mapping",
        "key": "t_address",
        "label": "mapping(address => bool)",
        "numberOfBytes": "32",
        "value": "t_bool"
      },
      "t_mapping(t_address,t_mapping(t_address,t_bool))": {
        "encoding": "mapping",
        "key": "t_address",
        "label": "mapping(address => mapping(address => bool))",
        "numberOfBytes": "32",
        "value": "t_mapping(t_address,t_bool)"
      },
      "t_mapping(t_address,t_uint256)": {
        "encoding": "mapping",
        "key": "t_address",
        "label": "mapping(address => uint256)",
        "numberOfBytes": "32",
        "value": "t_uint256"
      },
      "t_mapping(t_bytes32,t_address)": {
        "encoding": "mapping",
        "key": "t_bytes32",
        "label": "mapping(bytes32 => address)",
        "numberOfBytes": "32",
        "value": "t_address"
      },
      "t_mapping(t_bytes32,t_uint256)": {
        "encoding": "mapping",
        "key": "t_bytes32",
        "label": "mapping(bytes32 => uint256)",
        "numberOfBytes": "32",
        "value": "t_uint256"
      },
      "t_mapping(t_uint256,t_address)": {
        "encoding": "mapping",
        "key": "t_uint256",
        "label": "mapping(uint256 => address)",
        "numberOfBytes": "32",
        "value": "t_address"
      },
      "t_mapping(t_uint256,t_string_storage)": {
        "encoding": "mapping",
        "key": "t_uint256",
        "label": "mapping(uint256 => string)",
        "numberOfBytes": "32",
        "value": "t_string_storage"
      },
      "t_mapping(t_uint256,t_uint256)": {
        "encoding": "mapping",
        "key": "t_uint256",
        "label": "mapping(uint256 => uint256)",
        "numberOfBytes": "32",
        "value": "t_uint256"
      },
      "t_string_storage": {
        "encoding": "bytes",
        "label": "string",
        "numberOfBytes": "32"
      },
      "t_uint256": {
        "encoding": "inplace",
        "label": "uint256",
        "numberOfBytes": "32"
      }
    }
  }
}