{
  "address": "0x5B1ee72056CE1C6e3A0905eaeE06FEb59ac2fE6D",
  "abi": [
    {
      "inputs": [
        {
          "internalType": "address",
          "name": "_VRFCoordinator",
          "type": "address"
        },
        {
          "internalType": "address",
          "name": "_LinkToken",
          "type": "address"
        },
        {
          "internalType": "bytes32",
          "name": "_keyhash",
          "type": "bytes32"
        },
        {
          "internalType": "uint256",
          "name": "_fee",
          "type": "uint256"
        }
      ],
      "stateMutability": "nonpayable",
      "type": "constructor"
    },
    {
      "anonymous": false,
      "inputs": [
        {
          "indexed": true,
          "internalType": "address",
          "name": "owner",
          "type": "address"
        },
        {
          "indexed": true,
          "internalType": "address",
          "name": "approved",
          "type": "address"
        },
        {
          "indexed": true,
          "internalType": "uint256",
          "name": "tokenId",
          "type": "uint256"
        }
      ],
      "name": "Approval",
      "type": "event"
    },
    {
      "anonymous": false,
      "inputs": [
        {
          "indexed": true,
          "internalType": "address",
          "name": "owner",
          "type": "address"
        },
        {
          "indexed": true,
          "internalType": "address",
          "name": "operator",
          "type": "address"
        },
        {
          "indexed": false,
          "internalType": "bool",
          "name": "approved",
          "type": "bool"
        }
      ],
      "name": "ApprovalForAll",
      "type": "event"
    },
    {
      "anonymous": false,
      "inputs": [
        {
          "indexed": true,
          "internalType": "uint256",
          "name": "tokenId",
          "type": "uint256"
        },
        {
          "indexed": false,
          "internalType": "string",
          "name": "tokenURI",
          "type": "string"
        }
      ],
      "name": "CreatedRandomSVGNFT",
      "type": "event"
    },
    {
      "anonymous": false,
      "inputs": [
        {
          "indexed": true,
          "internalType": "uint256",
          "name": "tokenId",
          "type": "uint256"
        },
        {
          "indexed": false,
          "internalType": "uint256",
          "name": "randomNumber",
          "type": "uint256"
        }
      ],
      "name": "CreatedUnfinishedRandomSVG",
      "type": "event"
    },
    {
      "anonymous": false,
      "inputs": [
        {
          "indexed": true,
          "internalType": "bytes32",
          "name": "requestId",
          "type": "bytes32"
        },
        {
          "indexed": false,
          "internalType": "uint256",
          "name": "tokenId",
          "type": "uint256"
        }
      ],
      "name": "RequestedRandomSVG",
      "type": "event"
    },
    {
      "anonymous": false,
      "inputs": [
        {
          "indexed": true,
          "internalType": "address",
          "name": "from",
          "type": "address"
        },
        {
          "indexed": true,
          "internalType": "address",
          "name": "to",
          "type": "address"
        },
        {
          "indexed": true,
          "internalType": "uint256",
          "name": "tokenId",
          "type": "uint256"
        }
      ],
      "name": "Transfer",
      "type": "event"
    },
    {
      "inputs": [
        {
          "internalType": "address",
          "name": "to",
          "type": "address"
        },
        {
          "internalType": "uint256",
          "name": "tokenId",
          "type": "uint256"
        }
      ],
      "name": "approve",
      "outputs": [],
      "stateMutability": "nonpayable",
      "type": "function"
    },
    {
      "inputs": [
        {
          "internalType": "address",
          "name": "owner",
          "type": "address"
        }
      ],
      "name": "balanceOf",
      "outputs": [
        {
          "internalType": "uint256",
          "name": "",
          "type": "uint256"
        }
      ],
      "stateMutability": "view",
      "type": "function"
    },
    {
      "inputs": [
        {
          "internalType": "uint256",
          "name": "",
          "type": "uint256"
        }
      ],
      "name": "colours",
      "outputs": [
        {
          "internalType": "string",
          "name": "",
          "type": "string"
        }
      ],
      "stateMutability": "view",
      "type": "function"
    },
    {
      "inputs": [],
      "name": "create",
      "outputs": [
        {
          "internalType": "bytes32",
          "name": "requestId",
          "type": "bytes32"
        }
      ],
      "stateMutability": "nonpayable",
      "type": "function"
    },
    {
      "inputs": [],
      "name": "fee",
      "outputs": [
        {
          "internalType": "uint256",
          "name": "",
          "type": "uint256"
        }
      ],
      "stateMutability": "view",
      "type": "function"
    },
    {
      "inputs": [
        {
          "internalType": "uint256",
          "name": "_tokenId",
          "type": "uint256"
        }
      ],
      "name": "finishMint",
      "outputs": [],
      "stateMutability": "nonpayable",
      "type": "function"
    },
    {
      "inputs": [
        {
          "internalType": "string",
          "name": "_imageURI",
          "type": "string"
        }
      ],
      "name": "formatTokenURI",
      "outputs": [
        {
          "internalType": "string",
          "name": "",
          "type": "string"
        }
      ],
      "stateMutability": "pure",
      "type": "function"
    },
    {
      "inputs": [
        {
          "internalType": "uint256",
          "name": "_randomNumber",
          "type": "uint256"
        }
      ],
      "name": "generatePath",
      "outputs": [
        {
          "internalType": "string",
          "name": "pathSVG",
          "type": "string"
        }
      ],
      "stateMutability": "view",
      "type": "function"
    },
    {
      "inputs": [
        {
          "internalType": "uint256",
          "name": "_randomNumber",
          "type": "uint256"
        }
      ],
      "name": "generatePathCommand",
      "outputs": [
        {
          "internalType": "string",
          "name": "pathCommand",
          "type": "string"
        }
      ],
      "stateMutability": "view",
      "type": "function"
    },
    {
      "inputs": [
        {
          "internalType": "uint256",
          "name": "_randomNumber",
          "type": "uint256"
        }
      ],
      "name": "generateSVG",
      "outputs": [
        {
          "internalType": "string",
          "name": "finalSVG",
          "type": "string"
        }
      ],
      "stateMutability": "view",
      "type": "function"
    },
    {
      "inputs": [
        {
          "internalType": "uint256",
          "name": "tokenId",
          "type": "uint256"
        }
      ],
      "name": "getApproved",
      "outputs": [
        {
          "internalType": "address",
          "name": "",
          "type": "address"
        }
      ],
      "stateMutability": "view",
      "type": "function"
    },
    {
      "inputs": [
        {
          "internalType": "address",
          "name": "owner",
          "type": "address"
        },
        {
          "internalType": "address",
          "name": "operator",
          "type": "address"
        }
      ],
      "name": "isApprovedForAll",
      "outputs": [
        {
          "internalType": "bool",
          "name": "",
          "type": "bool"
        }
      ],
      "stateMutability": "view",
      "type": "function"
    },
    {
      "inputs": [],
      "name": "keyHash",
      "outputs": [
        {
          "internalType": "bytes32",
          "name": "",
          "type": "bytes32"
        }
      ],
      "stateMutability": "view",
      "type": "function"
    },
    {
      "inputs": [],
      "name": "maxPathCommands",
      "outputs": [
        {
          "internalType": "uint256",
          "name": "",
          "type": "uint256"
        }
      ],
      "stateMutability": "view",
      "type": "function"
    },
    {
      "inputs": [],
      "name": "maxPaths",
      "outputs": [
        {
          "internalType": "uint256",
          "name": "",
          "type": "uint256"
        }
      ],
      "stateMutability": "view",
      "type": "function"
    },
    {
      "inputs": [],
      "name": "name",
      "outputs": [
        {
          "internalType": "string",
          "name": "",
          "type": "string"
        }
      ],
      "stateMutability": "view",
      "type": "function"
    },
    {
      "inputs": [
        {
          "internalType": "uint256",
          "name": "tokenId",
          "type": "uint256"
        }
      ],
      "name": "ownerOf",
      "outputs": [
        {
          "internalType": "address",
          "name": "",
          "type": "address"
        }
      ],
      "stateMutability": "view",
      "type": "function"
    },
    {
      "inputs": [
        {
          "internalType": "uint256",
          "name": "",
          "type": "uint256"
        }
      ],
      "name": "pathCommands",
      "outputs": [
        {
          "internalType": "string",
          "name": "",
          "type": "string"
        }
      ],
      "stateMutability": "view",
      "type": "function"
    },
    {
      "inputs": [
        {
          "internalType": "bytes32",
          "name": "requestId",
          "type": "bytes32"
        },
        {
          "internalType": "uint256",
          "name": "randomness",
          "type": "uint256"
        }
      ],
      "name": "rawFulfillRandomness",
      "outputs": [],
      "stateMutability": "nonpayable",
      "type": "function"
    },
    {
      "inputs": [
        {
          "internalType": "bytes32",
          "name": "",
          "type": "bytes32"
        }
      ],
      "name": "requestIdToSender",
      "outputs": [
        {
          "internalType": "address",
          "name": "",
          "type": "address"
        }
      ],
      "stateMutability": "view",
      "type": "function"
    },
    {
      "inputs": [
        {
          "internalType": "bytes32",
          "name": "",
          "type": "bytes32"
        }
      ],
      "name": "requestIdToTokenId",
      "outputs": [
        {
          "internalType": "uint256",
          "name": "",
          "type": "uint256"
        }
      ],
      "stateMutability": "view",
      "type": "function"
    },
    {
      "inputs": [
        {
          "internalType": "address",
          "name": "from",
          "type": "address"
        },
        {
          "internalType": "address",
          "name": "to",
          "type": "address"
        },
        {
          "internalType": "uint256",
          "name": "tokenId",
          "type": "uint256"
        }
      ],
      "name": "safeTransferFrom",
      "outputs": [],
      "stateMutability": "nonpayable",
      "type": "function"
    },
    {
      "inputs": [
        {
          "internalType": "address",
          "name": "from",
          "type": "address"
        },
        {
          "internalType": "address",
          "name": "to",
          "type": "address"
        },
        {
          "internalType": "uint256",
          "name": "tokenId",
          "type": "uint256"
        },
        {
          "internalType": "bytes",
          "name": "_data",
          "type": "bytes"
        }
      ],
      "name": "safeTransferFrom",
      "outputs": [],
      "stateMutability": "nonpayable",
      "type": "function"
    },
    {
      "inputs": [
        {
          "internalType": "address",
          "name": "operator",
          "type": "address"
        },
        {
          "internalType": "bool",
          "name": "approved",
          "type": "bool"
        }
      ],
      "name": "setApprovalForAll",
      "outputs": [],
      "stateMutability": "nonpayable",
      "type": "function"
    },
    {
      "inputs": [],
      "name": "size",
      "outputs": [
        {
          "internalType": "uint256",
          "name": "",
          "type": "uint256"
        }
      ],
      "stateMutability": "view",
      "type": "function"
    },
    {
      "inputs": [
        {
          "internalType": "bytes4",
          "name": "interfaceId",
          "type": "bytes4"
        }
      ],
      "name": "supportsInterface",
      "outputs": [
        {
          "internalType": "bool",
          "name": "",
          "type": "bool"
        }
      ],
      "stateMutability": "view",
      "type": "function"
    },
    {
      "inputs": [
        {
          "internalType": "string",
          "name": "_svg",
          "type": "string"
        }
      ],
      "name": "svgToImageURI",
      "outputs": [
        {
          "internalType": "string",
          "name": "",
          "type": "string"
        }
      ],
      "stateMutability": "pure",
      "type": "function"
    },
    {
      "inputs": [],
      "name": "symbol",
      "outputs": [
        {
          "internalType": "string",
          "name": "",
          "type": "string"
        }
      ],
      "stateMutability": "view",
      "type": "function"
    },
    {
      "inputs": [],
      "name": "tokenCounter",
      "outputs": [
        {
          "internalType": "uint256",
          "name": "",
          "type": "uint256"
        }
      ],
      "stateMutability": "view",
      "type": "function"
    },
    {
      "inputs": [
        {
          "internalType": "uint256",
          "name": "",
          "type": "uint256"
        }
      ],
      "name": "tokenIdToRandomNumber",
      "outputs": [
        {
          "internalType": "uint256",
          "name": "",
          "type": "uint256"
        }
      ],
      "stateMutability": "view",
      "type": "function"
    },
    {
      "inputs": [
        {
          "internalType": "uint256",
          "name": "tokenId",
          "type": "uint256"
        }
      ],
      "name": "tokenURI",
      "outputs": [
        {
          "internalType": "string",
          "name": "",
          "type": "string"
        }
      ],
      "stateMutability": "view",
      "type": "function"
    },
    {
      "inputs": [
        {
          "internalType": "address",
          "name": "from",
          "type": "address"
        },
        {
          "internalType": "address",
          "name": "to",
          "type": "address"
        },
        {
          "internalType": "uint256",
          "name": "tokenId",
          "type": "uint256"
        }
      ],
      "name": "transferFrom",
      "outputs": [],
      "stateMutability": "nonpayable",
      "type": "function"
    }
  ],
  "transactionHash": "0x5540aa82a901e0c010f04dff0854c6ec1615950feb1759529c89c5f8d291e944",
  "args": [
    "0xb3dCcb4Cf7a26f6cf6B120Cf5A73875B7BBc655B",
    "0x01be23585060835e02b77ef475b0cc51aa1e0709",
    "0x2ed0feb3e7fd2022120aa84fab1945545a9f2ffc9076fd6156fa96eaff4c1311",
    "100000000000000000"
  ],
  "numDeployments": 1,
  "solcInputHash": "9e2e1520c444da444c4650aefe262fab",
  "bytecode": "0x60c06040523480156200001157600080fd5b50604051620052403803806200524083398181016040528101906200003791906200063a565b83836040518060400160405280600c81526020017f52616e646f6d5356474e465400000000000000000000000000000000000000008152506040518060400160405280600581526020017f72734e46540000000000000000000000000000000000000000000000000000008152508160009080519060200190620000bd92919062000409565b508060019080519060200190620000d692919062000409565b5050508173ffffffffffffffffffffffffffffffffffffffff1660a08173ffffffffffffffffffffffffffffffffffffffff1660601b815250508073ffffffffffffffffffffffffffffffffffffffff1660808173ffffffffffffffffffffffffffffffffffffffff1660601b81525050505081600881905550806009819055506000600a81905550600a600b819055506005600c819055506101f4600d8190555060405180604001604052806040518060400160405280600181526020017f4d0000000000000000000000000000000000000000000000000000000000000081525081526020016040518060400160405280600181526020017f4c00000000000000000000000000000000000000000000000000000000000000815250815250600e906002620002099291906200049a565b506040518061010001604052806040518060400160405280600581526020017f626c61636b00000000000000000000000000000000000000000000000000000081525081526020016040518060400160405280600581526020017f776869746500000000000000000000000000000000000000000000000000000081525081526020016040518060400160405280600481526020017f626c75650000000000000000000000000000000000000000000000000000000081525081526020016040518060400160405280600381526020017f726564000000000000000000000000000000000000000000000000000000000081525081526020016040518060400160405280600581526020017f677265656e00000000000000000000000000000000000000000000000000000081525081526020016040518060400160405280600681526020017f79656c6c6f77000000000000000000000000000000000000000000000000000081525081526020016040518060400160405280600681526020017f707572706c65000000000000000000000000000000000000000000000000000081525081526020016040518060400160405280600681526020017f6f72616e67650000000000000000000000000000000000000000000000000000815250815250600f906008620003fe92919062000501565b5050505050620007a1565b8280546200041790620006ee565b90600052602060002090601f0160209004810192826200043b576000855562000487565b82601f106200045657805160ff191683800117855562000487565b8280016001018555821562000487579182015b828111156200048657825182559160200191906001019062000469565b5b50905062000496919062000568565b5090565b828054828255906000526020600020908101928215620004ee579160200282015b82811115620004ed578251829080519060200190620004dc92919062000409565b5091602001919060010190620004bb565b5b509050620004fd919062000587565b5090565b82805482825590600052602060002090810192821562000555579160200282015b82811115620005545782518290805190602001906200054392919062000409565b509160200191906001019062000522565b5b50905062000564919062000587565b5090565b5b808211156200058357600081600090555060010162000569565b5090565b5b80821115620005ab5760008181620005a19190620005af565b5060010162000588565b5090565b508054620005bd90620006ee565b6000825580601f10620005d15750620005f2565b601f016020900490600052602060002090810190620005f1919062000568565b5b50565b600081519050620006068162000753565b92915050565b6000815190506200061d816200076d565b92915050565b600081519050620006348162000787565b92915050565b600080600080608085870312156200065157600080fd5b60006200066187828801620005f5565b94505060206200067487828801620005f5565b935050604062000687878288016200060c565b92505060606200069a8782880162000623565b91505092959194509250565b6000620006b382620006c4565b9050919050565b6000819050919050565b600073ffffffffffffffffffffffffffffffffffffffff82169050919050565b6000819050919050565b600060028204905060018216806200070757607f821691505b602082108114156200071e576200071d62000724565b5b50919050565b7f4e487b7100000000000000000000000000000000000000000000000000000000600052602260045260246000fd5b6200075e81620006a6565b81146200076a57600080fd5b50565b6200077881620006ba565b81146200078457600080fd5b50565b6200079281620006e4565b81146200079e57600080fd5b50565b60805160601c60a05160601c614a6c620007d460003960008181611168015261253c015260006125000152614a6c6000f3fe608060405234801561001057600080fd5b50600436106101f05760003560e01c806371aee1931161010f578063c68b49d1116100a2578063ddca3f4311610071578063ddca3f431461063d578063df9bcd241461065b578063e985e9c514610679578063efc81a8c146106a9576101f0565b8063c68b49d11461058f578063c76ab940146105bf578063c87b56dd146105ef578063d082e3811461061f576101f0565b806395d89b41116100de57806395d89b41146105095780639c1cd79514610527578063a22cb46514610557578063b88d4fde14610573576101f0565b806371aee1931461046f57806394985ddd1461049f578063949d225d146104bb578063955968d4146104d9576101f0565b806330d871c611610187578063624194c711610156578063624194c7146103c35780636352211e146103df5780636dcee4ca1461040f57806370a082311461043f576101f0565b806330d871c61461032957806333af59891461035957806342842e0e1461038957806361728f39146103a5576101f0565b8063095ea7b3116101c3578063095ea7b314610291578063219c0eee146102ad57806322881f88146102dd57806323b872dd1461030d576101f0565b806301f920c6146101f557806301ffc9a71461021357806306fdde0314610243578063081812fc14610261575b600080fd5b6101fd6106c7565b60405161020a9190613ccf565b60405180910390f35b61022d600480360381019061022891906130cc565b6106cd565b60405161023a9190613989565b60405180910390f35b61024b6107af565b6040516102589190613a2d565b60405180910390f35b61027b6004803603810190610276919061315f565b610841565b60405161028891906138e4565b60405180910390f35b6102ab60048036038101906102a69190613002565b6108c6565b005b6102c760048036038101906102c29190613067565b6109de565b6040516102d491906138e4565b60405180910390f35b6102f760048036038101906102f29190613067565b610a11565b6040516103049190613ccf565b60405180910390f35b61032760048036038101906103229190612efc565b610a29565b005b610343600480360381019061033e919061311e565b610a89565b6040516103509190613a2d565b60405180910390f35b610373600480360381019061036e919061315f565b610b22565b6040516103809190613a2d565b60405180910390f35b6103a3600480360381019061039e9190612efc565b610d16565b005b6103ad610d36565b6040516103ba91906139a4565b60405180910390f35b6103dd60048036038101906103d8919061315f565b610d3c565b005b6103f960048036038101906103f4919061315f565b610eaa565b60405161040691906138e4565b60405180910390f35b6104296004803603810190610424919061315f565b610f5c565b6040516104369190613a2d565b60405180910390f35b61045960048036038101906104549190612e97565b61105e565b6040516104669190613ccf565b60405180910390f35b6104896004803603810190610484919061311e565b611116565b6040516104969190613a2d565b60405180910390f35b6104b960048036038101906104b49190613090565b611166565b005b6104c3611202565b6040516104d09190613ccf565b60405180910390f35b6104f360048036038101906104ee919061315f565b611208565b6040516105009190613a2d565b60405180910390f35b6105116112b4565b60405161051e9190613a2d565b60405180910390f35b610541600480360381019061053c919061315f565b611346565b60405161054e9190613ccf565b60405180910390f35b610571600480360381019061056c9190612fc6565b61135e565b005b61058d60048036038101906105889190612f4b565b611374565b005b6105a960048036038101906105a4919061315f565b6113d6565b6040516105b69190613a2d565b60405180910390f35b6105d960048036038101906105d4919061315f565b611589565b6040516105e69190613a2d565b60405180910390f35b6106096004803603810190610604919061315f565b611635565b6040516106169190613a2d565b60405180910390f35b610627611787565b6040516106349190613ccf565b60405180910390f35b61064561178d565b6040516106529190613ccf565b60405180910390f35b610663611793565b6040516106709190613ccf565b60405180910390f35b610693600480360381019061068e9190612ec0565b611799565b6040516106a09190613989565b60405180910390f35b6106b161182d565b6040516106be91906139a4565b60405180910390f35b600b5481565b60007f80ac58cd000000000000000000000000000000000000000000000000000000007bffffffffffffffffffffffffffffffffffffffffffffffffffffffff1916827bffffffffffffffffffffffffffffffffffffffffffffffffffffffff1916148061079857507f5b5e139f000000000000000000000000000000000000000000000000000000007bffffffffffffffffffffffffffffffffffffffffffffffffffffffff1916827bffffffffffffffffffffffffffffffffffffffffffffffffffffffff1916145b806107a857506107a782611901565b5b9050919050565b6060600080546107be90613ff6565b80601f01602080910402602001604051908101604052809291908181526020018280546107ea90613ff6565b80156108375780601f1061080c57610100808354040283529160200191610837565b820191906000526020600020905b81548152906001019060200180831161081a57829003601f168201915b5050505050905090565b600061084c8261196b565b61088b576040517f08c379a000000000000000000000000000000000000000000000000000000000815260040161088290613bef565b60405180910390fd5b6004600083815260200190815260200160002060009054906101000a900473ffffffffffffffffffffffffffffffffffffffff169050919050565b60006108d182610eaa565b90508073ffffffffffffffffffffffffffffffffffffffff168373ffffffffffffffffffffffffffffffffffffffff161415610942576040517f08c379a000000000000000000000000000000000000000000000000000000000815260040161093990613c6f565b60405180910390fd5b8073ffffffffffffffffffffffffffffffffffffffff166109616119d7565b73ffffffffffffffffffffffffffffffffffffffff161480610990575061098f8161098a6119d7565b611799565b5b6109cf576040517f08c379a00000000000000000000000000000000000000000000000000000000081526004016109c690613b2f565b60405180910390fd5b6109d983836119df565b505050565b60106020528060005260406000206000915054906101000a900473ffffffffffffffffffffffffffffffffffffffff1681565b60116020528060005260406000206000915090505481565b610a3a610a346119d7565b82611a98565b610a79576040517f08c379a0000000000000000000000000000000000000000000000000000000008152600401610a7090613caf565b60405180910390fd5b610a84838383611b76565b505050565b606060006040518060400160405280601a81526020017f646174613a696d6167652f7376672b786d6c3b6261736536342c00000000000081525090506000610aef84604051602001610adb9190613744565b604051602081830303815290604052611ddd565b905060008282604051602001610b0692919061375b565b6040516020818303038152906040529050809350505050919050565b606060006001600c5484610b3691906140b6565b610b409190613ddd565b90506040518060400160405280600981526020017f3c7061746820643d270000000000000000000000000000000000000000000000815250915060005b81811015610c085760008482600d54610b969190613ddd565b604051602001610ba7929190613cea565b6040516020818303038152906040528051906020012060001c90506000610bcd826113d6565b90508481604051602001610be292919061375b565b604051602081830303815290604052945050508080610c0090614059565b915050610b7d565b506000600f808054905085610c1d91906140b6565b81548110610c54577f4e487b7100000000000000000000000000000000000000000000000000000000600052603260045260246000fd5b906000526020600020018054610c6990613ff6565b80601f0160208091040260200160405190810160405280929190818152602001828054610c9590613ff6565b8015610ce25780601f10610cb757610100808354040283529160200191610ce2565b820191906000526020600020905b815481529060010190602001808311610cc557829003601f168201915b50505050509050828182604051602001610cfe9392919061377f565b60405160208183030381529060405292505050919050565b610d3183838360405180602001604052806000815250611374565b505050565b60085481565b6000610d4782611635565b5114610d88576040517f08c379a0000000000000000000000000000000000000000000000000000000008152600401610d7f90613aef565b60405180910390fd5b80600a5411610dcc576040517f08c379a0000000000000000000000000000000000000000000000000000000008152600401610dc390613c8f565b60405180910390fd5b6000601260008381526020019081526020016000205411610e22576040517f08c379a0000000000000000000000000000000000000000000000000000000008152600401610e1990613c0f565b60405180910390fd5b6000601260008381526020019081526020016000205490506000610e4582610f5c565b90506000610e5282610a89565b90506000610e5f82611116565b9050610e6b8582611f7c565b847fcb25abd690c2dce293e6237b33535facf92481a7036a95e95ff3977eeaa6668882604051610e9b9190613a2d565b60405180910390a25050505050565b6000806002600084815260200190815260200160002060009054906101000a900473ffffffffffffffffffffffffffffffffffffffff169050600073ffffffffffffffffffffffffffffffffffffffff168173ffffffffffffffffffffffffffffffffffffffff161415610f53576040517f08c379a0000000000000000000000000000000000000000000000000000000008152600401610f4a90613b6f565b60405180910390fd5b80915050919050565b606060006002600b5484610f7091906140b6565b610f7a9190613ddd565b9050610f87600d54611ff0565b610f92600d54611ff0565b604051602001610fa392919061387d565b604051602081830303815290604052915060005b818110156110355760008482604051602001610fd4929190613cea565b6040516020818303038152906040528051906020012060001c90506000610ffa82610b22565b9050848160405160200161100f92919061375b565b60405160208183030381529060405294505050808061102d90614059565b915050610fb7565b50816040516020016110479190613818565b604051602081830303815290604052915050919050565b60008073ffffffffffffffffffffffffffffffffffffffff168273ffffffffffffffffffffffffffffffffffffffff1614156110cf576040517f08c379a00000000000000000000000000000000000000000000000000000000081526004016110c690613b4f565b60405180910390fd5b600360008373ffffffffffffffffffffffffffffffffffffffff1673ffffffffffffffffffffffffffffffffffffffff168152602001908152602001600020549050919050565b60606111408260405160200161112c919061383a565b604051602081830303815290604052611ddd565b60405160200161115091906138c2565b6040516020818303038152906040529050919050565b7f000000000000000000000000000000000000000000000000000000000000000073ffffffffffffffffffffffffffffffffffffffff163373ffffffffffffffffffffffffffffffffffffffff16146111f4576040517f08c379a00000000000000000000000000000000000000000000000000000000081526004016111eb90613c4f565b60405180910390fd5b6111fe82826121c5565b5050565b600d5481565b600e818154811061121857600080fd5b90600052602060002001600091509050805461123390613ff6565b80601f016020809104026020016040519081016040528092919081815260200182805461125f90613ff6565b80156112ac5780601f10611281576101008083540402835291602001916112ac565b820191906000526020600020905b81548152906001019060200180831161128f57829003601f168201915b505050505081565b6060600180546112c390613ff6565b80601f01602080910402602001604051908101604052809291908181526020018280546112ef90613ff6565b801561133c5780601f106113115761010080835404028352916020019161133c565b820191906000526020600020905b81548152906001019060200180831161131f57829003601f168201915b5050505050905090565b60126020528060005260406000206000915090505481565b6113706113696119d7565b8383612275565b5050565b61138561137f6119d7565b83611a98565b6113c4576040517f08c379a00000000000000000000000000000000000000000000000000000000081526004016113bb90613caf565b60405180910390fd5b6113d0848484846123e2565b50505050565b6060600e8080549050836113ea91906140b6565b81548110611421577f4e487b7100000000000000000000000000000000000000000000000000000000600052603260045260246000fd5b90600052602060002001805461143690613ff6565b80601f016020809104026020016040519081016040528092919081815260200182805461146290613ff6565b80156114af5780601f10611484576101008083540402835291602001916114af565b820191906000526020600020905b81548152906001019060200180831161149257829003601f168201915b505050505090506000600d54836002600d546114cb9190613e9b565b6040516020016114dc929190613cea565b6040516020818303038152906040528051906020012060001c6114ff91906140b6565b90506000600d54846003600d546115169190613e9b565b604051602001611527929190613cea565b6040516020818303038152906040528051906020012060001c61154a91906140b6565b90508261155683611ff0565b61155f83611ff0565b604051602001611571939291906137d1565b60405160208183030381529060405292505050919050565b600f818154811061159957600080fd5b9060005260206000200160009150905080546115b490613ff6565b80601f01602080910402602001604051908101604052809291908181526020018280546115e090613ff6565b801561162d5780601f106116025761010080835404028352916020019161162d565b820191906000526020600020905b81548152906001019060200180831161161057829003601f168201915b505050505081565b60606116408261196b565b61167f576040517f08c379a000000000000000000000000000000000000000000000000000000000815260040161167690613bcf565b60405180910390fd5b600060066000848152602001908152602001600020805461169f90613ff6565b80601f01602080910402602001604051908101604052809291908181526020018280546116cb90613ff6565b80156117185780601f106116ed57610100808354040283529160200191611718565b820191906000526020600020905b8154815290600101906020018083116116fb57829003601f168201915b50505050509050600061172961243e565b905060008151141561173f578192505050611782565b60008251111561177457808260405160200161175c92919061375b565b60405160208183030381529060405292505050611782565b61177d84612455565b925050505b919050565b600a5481565b60095481565b600c5481565b6000600560008473ffffffffffffffffffffffffffffffffffffffff1673ffffffffffffffffffffffffffffffffffffffff16815260200190815260200160002060008373ffffffffffffffffffffffffffffffffffffffff1673ffffffffffffffffffffffffffffffffffffffff16815260200190815260200160002060009054906101000a900460ff16905092915050565b600061183d6008546009546124fc565b9050336010600083815260200190815260200160002060006101000a81548173ffffffffffffffffffffffffffffffffffffffff021916908373ffffffffffffffffffffffffffffffffffffffff1602179055506000600a5490508060116000848152602001908152602001600020819055506001600a546118bf9190613ddd565b600a81905550817fd18cd6f82baac9078af064ea020dd3dc7bff649bd8d50684f972d5995fec6e69826040516118f59190613ccf565b60405180910390a25090565b60007f01ffc9a7000000000000000000000000000000000000000000000000000000007bffffffffffffffffffffffffffffffffffffffffffffffffffffffff1916827bffffffffffffffffffffffffffffffffffffffffffffffffffffffff1916149050919050565b60008073ffffffffffffffffffffffffffffffffffffffff166002600084815260200190815260200160002060009054906101000a900473ffffffffffffffffffffffffffffffffffffffff1673ffffffffffffffffffffffffffffffffffffffff1614159050919050565b600033905090565b816004600083815260200190815260200160002060006101000a81548173ffffffffffffffffffffffffffffffffffffffff021916908373ffffffffffffffffffffffffffffffffffffffff160217905550808273ffffffffffffffffffffffffffffffffffffffff16611a5283610eaa565b73ffffffffffffffffffffffffffffffffffffffff167f8c5be1e5ebec7d5bd14f71427d1e84f3dd0314c0f7b2291e5b200ac8c7c3b92560405160405180910390a45050565b6000611aa38261196b565b611ae2576040517f08c379a0000000000000000000000000000000000000000000000000000000008152600401611ad990613b0f565b60405180910390fd5b6000611aed83610eaa565b90508073ffffffffffffffffffffffffffffffffffffffff168473ffffffffffffffffffffffffffffffffffffffff161480611b5c57508373ffffffffffffffffffffffffffffffffffffffff16611b4484610841565b73ffffffffffffffffffffffffffffffffffffffff16145b80611b6d5750611b6c8185611799565b5b91505092915050565b8273ffffffffffffffffffffffffffffffffffffffff16611b9682610eaa565b73ffffffffffffffffffffffffffffffffffffffff1614611bec576040517f08c379a0000000000000000000000000000000000000000000000000000000008152600401611be390613a6f565b60405180910390fd5b600073ffffffffffffffffffffffffffffffffffffffff168273ffffffffffffffffffffffffffffffffffffffff161415611c5c576040517f08c379a0000000000000000000000000000000000000000000000000000000008152600401611c5390613aaf565b60405180910390fd5b611c6783838361265e565b611c726000826119df565b6001600360008573ffffffffffffffffffffffffffffffffffffffff1673ffffffffffffffffffffffffffffffffffffffff1681526020019081526020016000206000828254611cc29190613ef5565b925050819055506001600360008473ffffffffffffffffffffffffffffffffffffffff1673ffffffffffffffffffffffffffffffffffffffff1681526020019081526020016000206000828254611d199190613ddd565b92505081905550816002600083815260200190815260200160002060006101000a81548173ffffffffffffffffffffffffffffffffffffffff021916908373ffffffffffffffffffffffffffffffffffffffff160217905550808273ffffffffffffffffffffffffffffffffffffffff168473ffffffffffffffffffffffffffffffffffffffff167fddf252ad1be2c89b69c2b068fc378daa952ba7f163c4a11628f55a4df523b3ef60405160405180910390a4611dd8838383612663565b505050565b6060600082511415611e0057604051806020016040528060008152509050611f77565b60006040518060600160405280604081526020016149f76040913990506000600360028551611e2f9190613ddd565b611e399190613e6a565b6004611e459190613e9b565b90506000602082611e569190613ddd565b67ffffffffffffffff811115611e95577f4e487b7100000000000000000000000000000000000000000000000000000000600052604160045260246000fd5b6040519080825280601f01601f191660200182016040528015611ec75781602001600182028036833780820191505090505b509050818152600183018586518101602084015b81831015611f36576003830192508251603f8160121c168501518253600182019150603f81600c1c168501518253600182019150603f8160061c168501518253600182019150603f8116850151825360018201915050611edb565b600389510660018114611f505760028114611f6057611f6b565b613d3d60f01b6002830352611f6b565b603d60f81b60018303525b50505050508093505050505b919050565b611f858261196b565b611fc4576040517f08c379a0000000000000000000000000000000000000000000000000000000008152600401611fbb90613b8f565b60405180910390fd5b80600660008481526020019081526020016000209080519060200190611feb929190612c91565b505050565b60606000821415612038576040518060400160405280600181526020017f300000000000000000000000000000000000000000000000000000000000000081525090506121c0565b600082905060005b6000821461206a57808061205390614059565b915050600a826120639190613e6a565b9150612040565b60008167ffffffffffffffff8111156120ac577f4e487b7100000000000000000000000000000000000000000000000000000000600052604160045260246000fd5b6040519080825280601f01601f1916602001820160405280156120de5781602001600182028036833780820191505090505b50905060008290505b600086146121b8576001816120fc9190613ef5565b90506000600a808861210e9190613e6a565b6121189190613e9b565b876121239190613ef5565b603061212f9190613e33565b905060008160f81b905080848481518110612173577f4e487b7100000000000000000000000000000000000000000000000000000000600052603260045260246000fd5b60200101907effffffffffffffffffffffffffffffffffffffffffffffffffffffffffffff1916908160001a905350600a886121af9190613e6a565b975050506120e7565b819450505050505b919050565b60006010600084815260200190815260200160002060009054906101000a900473ffffffffffffffffffffffffffffffffffffffff16905060006011600085815260200190815260200160002054905061221f8282612668565b826012600083815260200190815260200160002081905550807faad5362ce528ed941024b95d4c18dfd49b8503e1f586a5c353631d98c2af41b7846040516122679190613ccf565b60405180910390a250505050565b8173ffffffffffffffffffffffffffffffffffffffff168373ffffffffffffffffffffffffffffffffffffffff1614156122e4576040517f08c379a00000000000000000000000000000000000000000000000000000000081526004016122db90613acf565b60405180910390fd5b80600560008573ffffffffffffffffffffffffffffffffffffffff1673ffffffffffffffffffffffffffffffffffffffff16815260200190815260200160002060008473ffffffffffffffffffffffffffffffffffffffff1673ffffffffffffffffffffffffffffffffffffffff16815260200190815260200160002060006101000a81548160ff0219169083151502179055508173ffffffffffffffffffffffffffffffffffffffff168373ffffffffffffffffffffffffffffffffffffffff167f17307eab39ab6107e8899845ad3d59bd9653f200f220920489ca2b5937696c31836040516123d59190613989565b60405180910390a3505050565b6123ed848484611b76565b6123f984848484612686565b612438576040517f08c379a000000000000000000000000000000000000000000000000000000000815260040161242f90613a4f565b60405180910390fd5b50505050565b606060405180602001604052806000815250905090565b60606124608261196b565b61249f576040517f08c379a000000000000000000000000000000000000000000000000000000000815260040161249690613c2f565b60405180910390fd5b60006124a961243e565b905060008151116124c957604051806020016040528060008152506124f4565b806124d38461281d565b6040516020016124e492919061375b565b6040516020818303038152906040525b915050919050565b60007f000000000000000000000000000000000000000000000000000000000000000073ffffffffffffffffffffffffffffffffffffffff16634000aea07f0000000000000000000000000000000000000000000000000000000000000000848660006040516020016125709291906139bf565b6040516020818303038152906040526040518463ffffffff1660e01b815260040161259d9392919061394b565b602060405180830381600087803b1580156125b757600080fd5b505af11580156125cb573d6000803e3d6000fd5b505050506040513d601f19601f820116820180604052508101906125ef919061303e565b5060006126128460003060076000898152602001908152602001600020546129ca565b9050600160076000868152602001908152602001600020546126349190613ddd565b60076000868152602001908152602001600020819055506126558482612a06565b91505092915050565b505050565b505050565b612682828260405180602001604052806000815250612a39565b5050565b60006126a78473ffffffffffffffffffffffffffffffffffffffff16612a94565b15612810578373ffffffffffffffffffffffffffffffffffffffff1663150b7a026126d06119d7565b8786866040518563ffffffff1660e01b81526004016126f294939291906138ff565b602060405180830381600087803b15801561270c57600080fd5b505af192505050801561273d57506040513d601f19601f8201168201806040525081019061273a91906130f5565b60015b6127c0573d806000811461276d576040519150601f19603f3d011682016040523d82523d6000602084013e612772565b606091505b506000815114156127b8576040517f08c379a00000000000000000000000000000000000000000000000000000000081526004016127af90613a4f565b60405180910390fd5b805181602001fd5b63150b7a0260e01b7bffffffffffffffffffffffffffffffffffffffffffffffffffffffff1916817bffffffffffffffffffffffffffffffffffffffffffffffffffffffff191614915050612815565b600190505b949350505050565b60606000821415612865576040518060400160405280600181526020017f300000000000000000000000000000000000000000000000000000000000000081525090506129c5565b600082905060005b6000821461289757808061288090614059565b915050600a826128909190613e6a565b915061286d565b60008167ffffffffffffffff8111156128d9577f4e487b7100000000000000000000000000000000000000000000000000000000600052604160045260246000fd5b6040519080825280601f01601f19166020018201604052801561290b5781602001600182028036833780820191505090505b5090505b600085146129be576001826129249190613ef5565b9150600a8561293391906140b6565b603061293f9190613ddd565b60f81b81838151811061297b577f4e487b7100000000000000000000000000000000000000000000000000000000600052603260045260246000fd5b60200101907effffffffffffffffffffffffffffffffffffffffffffffffffffffffffffff1916908160001a905350600a856129b79190613e6a565b945061290f565b8093505050505b919050565b6000848484846040516020016129e394939291906139e8565b6040516020818303038152906040528051906020012060001c9050949350505050565b60008282604051602001612a1b929190613718565b60405160208183030381529060405280519060200120905092915050565b612a438383612ab7565b612a506000848484612686565b612a8f576040517f08c379a0000000000000000000000000000000000000000000000000000000008152600401612a8690613a4f565b60405180910390fd5b505050565b6000808273ffffffffffffffffffffffffffffffffffffffff163b119050919050565b600073ffffffffffffffffffffffffffffffffffffffff168273ffffffffffffffffffffffffffffffffffffffff161415612b27576040517f08c379a0000000000000000000000000000000000000000000000000000000008152600401612b1e90613baf565b60405180910390fd5b612b308161196b565b15612b70576040517f08c379a0000000000000000000000000000000000000000000000000000000008152600401612b6790613a8f565b60405180910390fd5b612b7c6000838361265e565b6001600360008473ffffffffffffffffffffffffffffffffffffffff1673ffffffffffffffffffffffffffffffffffffffff1681526020019081526020016000206000828254612bcc9190613ddd565b92505081905550816002600083815260200190815260200160002060006101000a81548173ffffffffffffffffffffffffffffffffffffffff021916908373ffffffffffffffffffffffffffffffffffffffff160217905550808273ffffffffffffffffffffffffffffffffffffffff16600073ffffffffffffffffffffffffffffffffffffffff167fddf252ad1be2c89b69c2b068fc378daa952ba7f163c4a11628f55a4df523b3ef60405160405180910390a4612c8d60008383612663565b5050565b828054612c9d90613ff6565b90600052602060002090601f016020900481019282612cbf5760008555612d06565b82601f10612cd857805160ff1916838001178555612d06565b82800160010185558215612d06579182015b82811115612d05578251825591602001919060010190612cea565b5b509050612d139190612d17565b5090565b5b80821115612d30576000816000905550600101612d18565b5090565b6000612d47612d4284613d38565b613d13565b905082815260208101848484011115612d5f57600080fd5b612d6a848285613fb4565b509392505050565b6000612d85612d8084613d69565b613d13565b905082815260208101848484011115612d9d57600080fd5b612da8848285613fb4565b509392505050565b600081359050612dbf81614983565b92915050565b600081359050612dd48161499a565b92915050565b600081519050612de98161499a565b92915050565b600081359050612dfe816149b1565b92915050565b600081359050612e13816149c8565b92915050565b600081519050612e28816149c8565b92915050565b600082601f830112612e3f57600080fd5b8135612e4f848260208601612d34565b91505092915050565b600082601f830112612e6957600080fd5b8135612e79848260208601612d72565b91505092915050565b600081359050612e91816149df565b92915050565b600060208284031215612ea957600080fd5b6000612eb784828501612db0565b91505092915050565b60008060408385031215612ed357600080fd5b6000612ee185828601612db0565b9250506020612ef285828601612db0565b9150509250929050565b600080600060608486031215612f1157600080fd5b6000612f1f86828701612db0565b9350506020612f3086828701612db0565b9250506040612f4186828701612e82565b9150509250925092565b60008060008060808587031215612f6157600080fd5b6000612f6f87828801612db0565b9450506020612f8087828801612db0565b9350506040612f9187828801612e82565b925050606085013567ffffffffffffffff811115612fae57600080fd5b612fba87828801612e2e565b91505092959194509250565b60008060408385031215612fd957600080fd5b6000612fe785828601612db0565b9250506020612ff885828601612dc5565b9150509250929050565b6000806040838503121561301557600080fd5b600061302385828601612db0565b925050602061303485828601612e82565b9150509250929050565b60006020828403121561305057600080fd5b600061305e84828501612dda565b91505092915050565b60006020828403121561307957600080fd5b600061308784828501612def565b91505092915050565b600080604083850312156130a357600080fd5b60006130b185828601612def565b92505060206130c285828601612e82565b9150509250929050565b6000602082840312156130de57600080fd5b60006130ec84828501612e04565b91505092915050565b60006020828403121561310757600080fd5b600061311584828501612e19565b91505092915050565b60006020828403121561313057600080fd5b600082013567ffffffffffffffff81111561314a57600080fd5b61315684828501612e58565b91505092915050565b60006020828403121561317157600080fd5b600061317f84828501612e82565b91505092915050565b61319181613f29565b82525050565b6131a081613f3b565b82525050565b6131af81613f47565b82525050565b6131c66131c182613f47565b6140a2565b82525050565b60006131d782613d9a565b6131e18185613db0565b93506131f1818560208601613fc3565b6131fa816141a3565b840191505092915050565b600061321082613da5565b61321a8185613dc1565b935061322a818560208601613fc3565b613233816141a3565b840191505092915050565b600061324982613da5565b6132538185613dd2565b9350613263818560208601613fc3565b80840191505092915050565b600061327c600983613dd2565b9150613287826141b4565b600982019050919050565b600061329f603283613dc1565b91506132aa826141dd565b604082019050919050565b60006132c2602583613dc1565b91506132cd8261422c565b604082019050919050565b60006132e5601c83613dc1565b91506132f08261427b565b602082019050919050565b6000613308600883613dd2565b9150613313826142a4565b600882019050919050565b600061332b600a83613dd2565b9150613336826142cd565b600a82019050919050565b600061334e602483613dc1565b9150613359826142f6565b604082019050919050565b6000613371601983613dc1565b915061337c82614345565b602082019050919050565b6000613394601783613dc1565b915061339f8261436e565b602082019050919050565b60006133b7602c83613dc1565b91506133c282614397565b604082019050919050565b60006133da600183613dd2565b91506133e5826143e6565b600182019050919050565b60006133fd600383613dd2565b91506134088261440f565b600382019050919050565b6000613420600783613dd2565b915061342b82614438565b600782019050919050565b6000613443603883613dc1565b915061344e82614461565b604082019050919050565b6000613466602a83613dc1565b9150613471826144b0565b604082019050919050565b6000613489602983613dc1565b9150613494826144ff565b604082019050919050565b60006134ac602e83613dc1565b91506134b78261454e565b604082019050919050565b60006134cf600283613dd2565b91506134da8261459d565b600282019050919050565b60006134f2602083613dc1565b91506134fd826145c6565b602082019050919050565b6000613515603183613dc1565b9150613520826145ef565b604082019050919050565b6000613538602c83613dc1565b91506135438261463e565b604082019050919050565b600061355b602783613dc1565b91506135668261468d565b604082019050919050565b600061357e603083613dd2565b9150613589826146dc565b603082019050919050565b60006135a1602f83613dc1565b91506135ac8261472b565b604082019050919050565b60006135c4601f83613dc1565b91506135cf8261477a565b602082019050919050565b60006135e7604283613dd2565b91506135f2826147a3565b604282019050919050565b600061360a602183613dc1565b915061361582614818565b604082019050919050565b600061362d601d83613dd2565b915061363882614867565b601d82019050919050565b6000613650601f83613dc1565b915061365b82614890565b602082019050919050565b6000613673603183613dc1565b915061367e826148b9565b604082019050919050565b6000613696600283613dd2565b91506136a182614908565b600282019050919050565b60006136b9600683613dd2565b91506136c482614931565b600682019050919050565b60006136dc600983613dd2565b91506136e78261495a565b600982019050919050565b6136fb81613f9d565b82525050565b61371261370d82613f9d565b6140ac565b82525050565b600061372482856131b5565b6020820191506137348284613701565b6020820191508190509392505050565b6000613750828461323e565b915081905092915050565b6000613767828561323e565b9150613773828461323e565b91508190509392505050565b600061378b828661323e565b9150613796826132fb565b91506137a2828561323e565b91506137ad8261331e565b91506137b9828461323e565b91506137c4826133f0565b9150819050949350505050565b60006137dd828661323e565b91506137e8826133cd565b91506137f4828561323e565b91506137ff826133cd565b915061380b828461323e565b9150819050949350505050565b6000613824828461323e565b915061382f826136ac565b915081905092915050565b60006138458261326f565b915061385082613413565b915061385b826135da565b9150613867828461323e565b9150613872826134c2565b915081905092915050565b600061388882613571565b9150613894828561323e565b915061389f826136cf565b91506138ab828461323e565b91506138b682613689565b91508190509392505050565b60006138cd82613620565b91506138d9828461323e565b915081905092915050565b60006020820190506138f96000830184613188565b92915050565b60006080820190506139146000830187613188565b6139216020830186613188565b61392e60408301856136f2565b818103606083015261394081846131cc565b905095945050505050565b60006060820190506139606000830186613188565b61396d60208301856136f2565b818103604083015261397f81846131cc565b9050949350505050565b600060208201905061399e6000830184613197565b92915050565b60006020820190506139b960008301846131a6565b92915050565b60006040820190506139d460008301856131a6565b6139e160208301846136f2565b9392505050565b60006080820190506139fd60008301876131a6565b613a0a60208301866136f2565b613a176040830185613188565b613a2460608301846136f2565b95945050505050565b60006020820190508181036000830152613a478184613205565b905092915050565b60006020820190508181036000830152613a6881613292565b9050919050565b60006020820190508181036000830152613a88816132b5565b9050919050565b60006020820190508181036000830152613aa8816132d8565b9050919050565b60006020820190508181036000830152613ac881613341565b9050919050565b60006020820190508181036000830152613ae881613364565b9050919050565b60006020820190508181036000830152613b0881613387565b9050919050565b60006020820190508181036000830152613b28816133aa565b9050919050565b60006020820190508181036000830152613b4881613436565b9050919050565b60006020820190508181036000830152613b6881613459565b9050919050565b60006020820190508181036000830152613b888161347c565b9050919050565b60006020820190508181036000830152613ba88161349f565b9050919050565b60006020820190508181036000830152613bc8816134e5565b9050919050565b60006020820190508181036000830152613be881613508565b9050919050565b60006020820190508181036000830152613c088161352b565b9050919050565b60006020820190508181036000830152613c288161354e565b9050919050565b60006020820190508181036000830152613c4881613594565b9050919050565b60006020820190508181036000830152613c68816135b7565b9050919050565b60006020820190508181036000830152613c88816135fd565b9050919050565b60006020820190508181036000830152613ca881613643565b9050919050565b60006020820190508181036000830152613cc881613666565b9050919050565b6000602082019050613ce460008301846136f2565b92915050565b6000604082019050613cff60008301856136f2565b613d0c60208301846136f2565b9392505050565b6000613d1d613d2e565b9050613d298282614028565b919050565b6000604051905090565b600067ffffffffffffffff821115613d5357613d52614174565b5b613d5c826141a3565b9050602081019050919050565b600067ffffffffffffffff821115613d8457613d83614174565b5b613d8d826141a3565b9050602081019050919050565b600081519050919050565b600081519050919050565b600082825260208201905092915050565b600082825260208201905092915050565b600081905092915050565b6000613de882613f9d565b9150613df383613f9d565b9250827fffffffffffffffffffffffffffffffffffffffffffffffffffffffffffffffff03821115613e2857613e276140e7565b5b828201905092915050565b6000613e3e82613fa7565b9150613e4983613fa7565b92508260ff03821115613e5f57613e5e6140e7565b5b828201905092915050565b6000613e7582613f9d565b9150613e8083613f9d565b925082613e9057613e8f614116565b5b828204905092915050565b6000613ea682613f9d565b9150613eb183613f9d565b9250817fffffffffffffffffffffffffffffffffffffffffffffffffffffffffffffffff0483118215151615613eea57613ee96140e7565b5b828202905092915050565b6000613f0082613f9d565b9150613f0b83613f9d565b925082821015613f1e57613f1d6140e7565b5b828203905092915050565b6000613f3482613f7d565b9050919050565b60008115159050919050565b6000819050919050565b60007fffffffff0000000000000000000000000000000000000000000000000000000082169050919050565b600073ffffffffffffffffffffffffffffffffffffffff82169050919050565b6000819050919050565b600060ff82169050919050565b82818337600083830152505050565b60005b83811015613fe1578082015181840152602081019050613fc6565b83811115613ff0576000848401525b50505050565b6000600282049050600182168061400e57607f821691505b6020821081141561402257614021614145565b5b50919050565b614031826141a3565b810181811067ffffffffffffffff821117156140505761404f614174565b5b80604052505050565b600061406482613f9d565b91507fffffffffffffffffffffffffffffffffffffffffffffffffffffffffffffffff821415614097576140966140e7565b5b600182019050919050565b6000819050919050565b6000819050919050565b60006140c182613f9d565b91506140cc83613f9d565b9250826140dc576140db614116565b5b828206905092915050565b7f4e487b7100000000000000000000000000000000000000000000000000000000600052601160045260246000fd5b7f4e487b7100000000000000000000000000000000000000000000000000000000600052601260045260246000fd5b7f4e487b7100000000000000000000000000000000000000000000000000000000600052602260045260246000fd5b7f4e487b7100000000000000000000000000000000000000000000000000000000600052604160045260246000fd5b6000601f19601f8301169050919050565b7f7b226e616d65223a220000000000000000000000000000000000000000000000600082015250565b7f4552433732313a207472616e7366657220746f206e6f6e20455243373231526560008201527f63656976657220696d706c656d656e7465720000000000000000000000000000602082015250565b7f4552433732313a207472616e736665722066726f6d20696e636f72726563742060008201527f6f776e6572000000000000000000000000000000000000000000000000000000602082015250565b7f4552433732313a20746f6b656e20616c7265616479206d696e74656400000000600082015250565b7f272066696c6c3d27000000000000000000000000000000000000000000000000600082015250565b7f27207374726f6b653d2700000000000000000000000000000000000000000000600082015250565b7f4552433732313a207472616e7366657220746f20746865207a65726f2061646460008201527f7265737300000000000000000000000000000000000000000000000000000000602082015250565b7f4552433732313a20617070726f766520746f2063616c6c657200000000000000600082015250565b7f746f6b656e55524920697320616c726561647920736574000000000000000000600082015250565b7f4552433732313a206f70657261746f7220717565727920666f72206e6f6e657860008201527f697374656e7420746f6b656e0000000000000000000000000000000000000000602082015250565b7f2000000000000000000000000000000000000000000000000000000000000000600082015250565b7f272f3e0000000000000000000000000000000000000000000000000000000000600082015250565b7f535647204e465400000000000000000000000000000000000000000000000000600082015250565b7f4552433732313a20617070726f76652063616c6c6572206973206e6f74206f7760008201527f6e6572206e6f7220617070726f76656420666f7220616c6c0000000000000000602082015250565b7f4552433732313a2062616c616e636520717565727920666f7220746865207a6560008201527f726f206164647265737300000000000000000000000000000000000000000000602082015250565b7f4552433732313a206f776e657220717565727920666f72206e6f6e657869737460008201527f656e7420746f6b656e0000000000000000000000000000000000000000000000602082015250565b7f45524337323155524953746f726167653a2055524920736574206f66206e6f6e60008201527f6578697374656e7420746f6b656e000000000000000000000000000000000000602082015250565b7f227d000000000000000000000000000000000000000000000000000000000000600082015250565b7f4552433732313a206d696e7420746f20746865207a65726f2061646472657373600082015250565b7f45524337323155524953746f726167653a2055524920717565727920666f722060008201527f6e6f6e6578697374656e7420746f6b656e000000000000000000000000000000602082015250565b7f4552433732313a20617070726f76656420717565727920666f72206e6f6e657860008201527f697374656e7420746f6b656e0000000000000000000000000000000000000000602082015250565b7f52616e646f6d206e756d626572206e6f7420796574207265636965766564206660008201527f726f6d2056524600000000000000000000000000000000000000000000000000602082015250565b7f3c73766720786d6c6e733d27687474703a2f2f7777772e77332e6f72672f323060008201527f30302f73766727206865696768743d2700000000000000000000000000000000602082015250565b7f4552433732314d657461646174613a2055524920717565727920666f72206e6f60008201527f6e6578697374656e7420746f6b656e0000000000000000000000000000000000602082015250565b7f4f6e6c7920565246436f6f7264696e61746f722063616e2066756c66696c6c00600082015250565b7f222c20226465736372697074696f6e223a22416e204e4654206261736564206f60008201527f6e20535647222c202261747472696275746573223a22222c2022696d6167652260208201527f3a22000000000000000000000000000000000000000000000000000000000000604082015250565b7f4552433732313a20617070726f76616c20746f2063757272656e74206f776e6560008201527f7200000000000000000000000000000000000000000000000000000000000000602082015250565b7f646174613a6170706c69636174696f6e2f6a736f6e3b6261736536342c000000600082015250565b7f746f6b656e496420686173206e6f7420796574206265656e206d696e74656400600082015250565b7f4552433732313a207472616e736665722063616c6c6572206973206e6f74206f60008201527f776e6572206e6f7220617070726f766564000000000000000000000000000000602082015250565b7f273e000000000000000000000000000000000000000000000000000000000000600082015250565b7f3c2f7376673e0000000000000000000000000000000000000000000000000000600082015250565b7f272077696474683d270000000000000000000000000000000000000000000000600082015250565b61498c81613f29565b811461499757600080fd5b50565b6149a381613f3b565b81146149ae57600080fd5b50565b6149ba81613f47565b81146149c557600080fd5b50565b6149d181613f51565b81146149dc57600080fd5b50565b6149e881613f9d565b81146149f357600080fd5b5056fe4142434445464748494a4b4c4d4e4f505152535455565758595a6162636465666768696a6b6c6d6e6f707172737475767778797a303132333435363738392b2fa26469706673582212207b9932a6f8390cc87a48519b038a324c8f3cc1563caae300025447714299ce8664736f6c63430008010033",
  "devdoc": {
    "kind": "dev",
    "methods": {
      "approve(address,uint256)": {
        "details": "See {IERC721-approve}."
      },
      "balanceOf(address)": {
        "details": "See {IERC721-balanceOf}."
      },
      "getApproved(uint256)": {
        "details": "See {IERC721-getApproved}."
      },
      "isApprovedForAll(address,address)": {
        "details": "See {IERC721-isApprovedForAll}."
      },
      "name()": {
        "details": "See {IERC721Metadata-name}."
      },
      "ownerOf(uint256)": {
        "details": "See {IERC721-ownerOf}."
      },
      "safeTransferFrom(address,address,uint256)": {
        "details": "See {IERC721-safeTransferFrom}."
      },
      "safeTransferFrom(address,address,uint256,bytes)": {
        "details": "See {IERC721-safeTransferFrom}."
      },
      "setApprovalForAll(address,bool)": {
        "details": "See {IERC721-setApprovalForAll}."
      },
      "supportsInterface(bytes4)": {
        "details": "See {IERC165-supportsInterface}."
      },
      "symbol()": {
        "details": "See {IERC721Metadata-symbol}."
      },
      "tokenURI(uint256)": {
        "details": "See {IERC721Metadata-tokenURI}."
      },
      "transferFrom(address,address,uint256)": {
        "details": "See {IERC721-transferFrom}."
      }
    },
    "version": 1
  },
  "userdoc": {
    "kind": "user",
    "methods": {},
    "version": 1
  },
  "storageLayout": {
    "storage": [
      {
        "astId": 291,
        "contract": "contracts/RandomSVGNFT.sol:RandomSVGNFT",
        "label": "_name",
        "offset": 0,
        "slot": "0",
        "type": "t_string_storage"
      },
      {
        "astId": 293,
        "contract": "contracts/RandomSVGNFT.sol:RandomSVGNFT",
        "label": "_symbol",
        "offset": 0,
        "slot": "1",
        "type": "t_string_storage"
      },
      {
        "astId": 297,
        "contract": "contracts/RandomSVGNFT.sol:RandomSVGNFT",
        "label": "_owners",
        "offset": 0,
        "slot": "2",
        "type": "t_mapping(t_uint256,t_address)"
      },
      {
        "astId": 301,
        "contract": "contracts/RandomSVGNFT.sol:RandomSVGNFT",
        "label": "_balances",
        "offset": 0,
        "slot": "3",
        "type": "t_mapping(t_address,t_uint256)"
      },
      {
        "astId": 305,
        "contract": "contracts/RandomSVGNFT.sol:RandomSVGNFT",
        "label": "_tokenApprovals",
        "offset": 0,
        "slot": "4",
        "type": "t_mapping(t_uint256,t_address)"
      },
      {
        "astId": 311,
        "contract": "contracts/RandomSVGNFT.sol:RandomSVGNFT",
        "label": "_operatorApprovals",
        "offset": 0,
        "slot": "5",
        "type": "t_mapping(t_address,t_mapping(t_address,t_bool))"
      },
      {
        "astId": 1278,
        "contract": "contracts/RandomSVGNFT.sol:RandomSVGNFT",
        "label": "_tokenURIs",
        "offset": 0,
        "slot": "6",
        "type": "t_mapping(t_uint256,t_string_storage)"
      },
      {
        "astId": 79,
        "contract": "contracts/RandomSVGNFT.sol:RandomSVGNFT",
        "label": "nonces",
        "offset": 0,
        "slot": "7",
        "type": "t_mapping(t_bytes32,t_uint256)"
      },
      {
        "astId": 2102,
        "contract": "contracts/RandomSVGNFT.sol:RandomSVGNFT",
        "label": "keyHash",
        "offset": 0,
        "slot": "8",
        "type": "t_bytes32"
      },
      {
        "astId": 2104,
        "contract": "contracts/RandomSVGNFT.sol:RandomSVGNFT",
        "label": "fee",
        "offset": 0,
        "slot": "9",
        "type": "t_uint256"
      },
      {
        "astId": 2106,
        "contract": "contracts/RandomSVGNFT.sol:RandomSVGNFT",
        "label": "tokenCounter",
        "offset": 0,
        "slot": "10",
        "type": "t_uint256"
      },
      {
        "astId": 2108,
        "contract": "contracts/RandomSVGNFT.sol:RandomSVGNFT",
        "label": "maxPaths",
        "offset": 0,
        "slot": "11",
        "type": "t_uint256"
      },
      {
        "astId": 2110,
        "contract": "contracts/RandomSVGNFT.sol:RandomSVGNFT",
        "label": "maxPathCommands",
        "offset": 0,
        "slot": "12",
        "type": "t_uint256"
      },
      {
        "astId": 2112,
        "contract": "contracts/RandomSVGNFT.sol:RandomSVGNFT",
        "label": "size",
        "offset": 0,
        "slot": "13",
        "type": "t_uint256"
      },
      {
        "astId": 2115,
        "contract": "contracts/RandomSVGNFT.sol:RandomSVGNFT",
        "label": "pathCommands",
        "offset": 0,
        "slot": "14",
        "type": "t_array(t_string_storage)dyn_storage"
      },
      {
        "astId": 2118,
        "contract": "contracts/RandomSVGNFT.sol:RandomSVGNFT",
        "label": "colours",
        "offset": 0,
        "slot": "15",
        "type": "t_array(t_string_storage)dyn_storage"
      },
      {
        "astId": 2122,
        "contract": "contracts/RandomSVGNFT.sol:RandomSVGNFT",
        "label": "requestIdToSender",
        "offset": 0,
        "slot": "16",
        "type": "t_mapping(t_bytes32,t_address)"
      },
      {
        "astId": 2126,
        "contract": "contracts/RandomSVGNFT.sol:RandomSVGNFT",
        "label": "requestIdToTokenId",
        "offset": 0,
        "slot": "17",
        "type": "t_mapping(t_bytes32,t_uint256)"
      },
      {
        "astId": 2130,
        "contract": "contracts/RandomSVGNFT.sol:RandomSVGNFT",
        "label": "tokenIdToRandomNumber",
        "offset": 0,
        "slot": "18",
        "type": "t_mapping(t_uint256,t_uint256)"
      }
    ],
    "types": {
      "t_address": {
        "encoding": "inplace",
        "label": "address",
        "numberOfBytes": "20"
      },
      "t_array(t_string_storage)dyn_storage": {
        "base": "t_string_storage",
        "encoding": "dynamic_array",
        "label": "string[]",
        "numberOfBytes": "32"
      },
      "t_bool": {
        "encoding": "inplace",
        "label": "bool",
        "numberOfBytes": "1"
      },
      "t_bytes32": {
        "encoding": "inplace",
        "label": "bytes32",
        "numberOfBytes": "32"
      },
      "t_mapping(t_address,t_bool)": {
        "encoding": "mapping",
        "key": "t_address",
        "label": "mapping(address => bool)",
        "numberOfBytes": "32",
        "value": "t_bool"
      },
      "t_mapping(t_address,t_mapping(t_address,t_bool))": {
        "encoding": "mapping",
        "key": "t_address",
        "label": "mapping(address => mapping(address => bool))",
        "numberOfBytes": "32",
        "value": "t_mapping(t_address,t_bool)"
      },
      "t_mapping(t_address,t_uint256)": {
        "encoding": "mapping",
        "key": "t_address",
        "label": "mapping(address => uint256)",
        "numberOfBytes": "32",
        "value": "t_uint256"
      },
      "t_mapping(t_bytes32,t_address)": {
        "encoding": "mapping",
        "key": "t_bytes32",
        "label": "mapping(bytes32 => address)",
        "numberOfBytes": "32",
        "value": "t_address"
      },
      "t_mapping(t_bytes32,t_uint256)": {
        "encoding": "mapping",
        "key": "t_bytes32",
        "label": "mapping(bytes32 => uint256)",
        "numberOfBytes": "32",
        "value": "t_uint256"
      },
      "t_mapping(t_uint256,t_address)": {
        "encoding": "mapping",
        "key": "t_uint256",
        "label": "mapping(uint256 => address)",
        "numberOfBytes": "32",
        "value": "t_address"
      },
      "t_mapping(t_uint256,t_string_storage)": {
        "encoding": "mapping",
        "key": "t_uint256",
        "label": "mapping(uint256 => string)",
        "numberOfBytes": "32",
        "value": "t_string_storage"
      },
      "t_mapping(t_uint256,t_uint256)": {
        "encoding": "mapping",
        "key": "t_uint256",
        "label": "mapping(uint256 => uint256)",
        "numberOfBytes": "32",
        "value": "t_uint256"
      },
      "t_string_storage": {
        "encoding": "bytes",
        "label": "string",
        "numberOfBytes": "32"
      },
      "t_uint256": {
        "encoding": "inplace",
        "label": "uint256",
        "numberOfBytes": "32"
      }
    }
  }
}