{
  "address": "0xB00cE2a6cd2d08A195911dCe8EA7B8cC9AD549Ac",
  "abi": [
    {
      "inputs": [
        {
          "internalType": "address",
          "name": "_VRFCoordinator",
          "type": "address"
        },
        {
          "internalType": "address",
          "name": "_LinkToken",
          "type": "address"
        },
        {
          "internalType": "bytes32",
          "name": "_keyhash",
          "type": "bytes32"
        },
        {
          "internalType": "uint256",
          "name": "_fee",
          "type": "uint256"
        }
      ],
      "stateMutability": "nonpayable",
      "type": "constructor"
    },
    {
      "anonymous": false,
      "inputs": [
        {
          "indexed": true,
          "internalType": "address",
          "name": "owner",
          "type": "address"
        },
        {
          "indexed": true,
          "internalType": "address",
          "name": "approved",
          "type": "address"
        },
        {
          "indexed": true,
          "internalType": "uint256",
          "name": "tokenId",
          "type": "uint256"
        }
      ],
      "name": "Approval",
      "type": "event"
    },
    {
      "anonymous": false,
      "inputs": [
        {
          "indexed": true,
          "internalType": "address",
          "name": "owner",
          "type": "address"
        },
        {
          "indexed": true,
          "internalType": "address",
          "name": "operator",
          "type": "address"
        },
        {
          "indexed": false,
          "internalType": "bool",
          "name": "approved",
          "type": "bool"
        }
      ],
      "name": "ApprovalForAll",
      "type": "event"
    },
    {
      "anonymous": false,
      "inputs": [
        {
          "indexed": true,
          "internalType": "uint256",
          "name": "tokenId",
          "type": "uint256"
        },
        {
          "indexed": false,
          "internalType": "string",
          "name": "tokenURI",
          "type": "string"
        }
      ],
      "name": "CreatedRandomSVGNFT",
      "type": "event"
    },
    {
      "anonymous": false,
      "inputs": [
        {
          "indexed": true,
          "internalType": "uint256",
          "name": "tokenId",
          "type": "uint256"
        },
        {
          "indexed": false,
          "internalType": "uint256",
          "name": "randomNumber",
          "type": "uint256"
        }
      ],
      "name": "CreatedUnfinishedRandomSVG",
      "type": "event"
    },
    {
      "anonymous": false,
      "inputs": [
        {
          "indexed": true,
          "internalType": "bytes32",
          "name": "requestId",
          "type": "bytes32"
        },
        {
          "indexed": true,
          "internalType": "uint256",
          "name": "tokenId",
          "type": "uint256"
        }
      ],
      "name": "RequestedRandomSVG",
      "type": "event"
    },
    {
      "anonymous": false,
      "inputs": [
        {
          "indexed": true,
          "internalType": "address",
          "name": "from",
          "type": "address"
        },
        {
          "indexed": true,
          "internalType": "address",
          "name": "to",
          "type": "address"
        },
        {
          "indexed": true,
          "internalType": "uint256",
          "name": "tokenId",
          "type": "uint256"
        }
      ],
      "name": "Transfer",
      "type": "event"
    },
    {
      "inputs": [
        {
          "internalType": "address",
          "name": "to",
          "type": "address"
        },
        {
          "internalType": "uint256",
          "name": "tokenId",
          "type": "uint256"
        }
      ],
      "name": "approve",
      "outputs": [],
      "stateMutability": "nonpayable",
      "type": "function"
    },
    {
      "inputs": [
        {
          "internalType": "address",
          "name": "owner",
          "type": "address"
        }
      ],
      "name": "balanceOf",
      "outputs": [
        {
          "internalType": "uint256",
          "name": "",
          "type": "uint256"
        }
      ],
      "stateMutability": "view",
      "type": "function"
    },
    {
      "inputs": [
        {
          "internalType": "uint256",
          "name": "",
          "type": "uint256"
        }
      ],
      "name": "colours",
      "outputs": [
        {
          "internalType": "string",
          "name": "",
          "type": "string"
        }
      ],
      "stateMutability": "view",
      "type": "function"
    },
    {
      "inputs": [],
      "name": "create",
      "outputs": [
        {
          "internalType": "bytes32",
          "name": "requestId",
          "type": "bytes32"
        }
      ],
      "stateMutability": "payable",
      "type": "function"
    },
    {
      "inputs": [],
      "name": "fee",
      "outputs": [
        {
          "internalType": "uint256",
          "name": "",
          "type": "uint256"
        }
      ],
      "stateMutability": "view",
      "type": "function"
    },
    {
      "inputs": [
        {
          "internalType": "uint256",
          "name": "_tokenId",
          "type": "uint256"
        }
      ],
      "name": "finishMint",
      "outputs": [],
      "stateMutability": "nonpayable",
      "type": "function"
    },
    {
      "inputs": [
        {
          "internalType": "string",
          "name": "_imageURI",
          "type": "string"
        }
      ],
      "name": "formatTokenURI",
      "outputs": [
        {
          "internalType": "string",
          "name": "",
          "type": "string"
        }
      ],
      "stateMutability": "pure",
      "type": "function"
    },
    {
      "inputs": [
        {
          "internalType": "uint256",
          "name": "_randomNumber",
          "type": "uint256"
        }
      ],
      "name": "generatePath",
      "outputs": [
        {
          "internalType": "string",
          "name": "pathSVG",
          "type": "string"
        }
      ],
      "stateMutability": "view",
      "type": "function"
    },
    {
      "inputs": [
        {
          "internalType": "uint256",
          "name": "_randomNumber",
          "type": "uint256"
        },
        {
          "internalType": "string",
          "name": "_command",
          "type": "string"
        }
      ],
      "name": "generatePathCommand",
      "outputs": [
        {
          "internalType": "string",
          "name": "pathCommand",
          "type": "string"
        }
      ],
      "stateMutability": "view",
      "type": "function"
    },
    {
      "inputs": [
        {
          "internalType": "uint256",
          "name": "_randomNumber",
          "type": "uint256"
        }
      ],
      "name": "generateSVG",
      "outputs": [
        {
          "internalType": "string",
          "name": "finalSVG",
          "type": "string"
        }
      ],
      "stateMutability": "view",
      "type": "function"
    },
    {
      "inputs": [
        {
          "internalType": "uint256",
          "name": "tokenId",
          "type": "uint256"
        }
      ],
      "name": "getApproved",
      "outputs": [
        {
          "internalType": "address",
          "name": "",
          "type": "address"
        }
      ],
      "stateMutability": "view",
      "type": "function"
    },
    {
      "inputs": [
        {
          "internalType": "address",
          "name": "owner",
          "type": "address"
        },
        {
          "internalType": "address",
          "name": "operator",
          "type": "address"
        }
      ],
      "name": "isApprovedForAll",
      "outputs": [
        {
          "internalType": "bool",
          "name": "",
          "type": "bool"
        }
      ],
      "stateMutability": "view",
      "type": "function"
    },
    {
      "inputs": [],
      "name": "keyHash",
      "outputs": [
        {
          "internalType": "bytes32",
          "name": "",
          "type": "bytes32"
        }
      ],
      "stateMutability": "view",
      "type": "function"
    },
    {
      "inputs": [],
      "name": "maxPathCommands",
      "outputs": [
        {
          "internalType": "uint256",
          "name": "",
          "type": "uint256"
        }
      ],
      "stateMutability": "view",
      "type": "function"
    },
    {
      "inputs": [],
      "name": "maxPaths",
      "outputs": [
        {
          "internalType": "uint256",
          "name": "",
          "type": "uint256"
        }
      ],
      "stateMutability": "view",
      "type": "function"
    },
    {
      "inputs": [],
      "name": "mintPrice",
      "outputs": [
        {
          "internalType": "uint256",
          "name": "",
          "type": "uint256"
        }
      ],
      "stateMutability": "view",
      "type": "function"
    },
    {
      "inputs": [],
      "name": "name",
      "outputs": [
        {
          "internalType": "string",
          "name": "",
          "type": "string"
        }
      ],
      "stateMutability": "view",
      "type": "function"
    },
    {
      "inputs": [],
      "name": "owner",
      "outputs": [
        {
          "internalType": "address payable",
          "name": "",
          "type": "address"
        }
      ],
      "stateMutability": "view",
      "type": "function"
    },
    {
      "inputs": [
        {
          "internalType": "uint256",
          "name": "tokenId",
          "type": "uint256"
        }
      ],
      "name": "ownerOf",
      "outputs": [
        {
          "internalType": "address",
          "name": "",
          "type": "address"
        }
      ],
      "stateMutability": "view",
      "type": "function"
    },
    {
      "inputs": [
        {
          "internalType": "uint256",
          "name": "",
          "type": "uint256"
        }
      ],
      "name": "pathCommands",
      "outputs": [
        {
          "internalType": "string",
          "name": "",
          "type": "string"
        }
      ],
      "stateMutability": "view",
      "type": "function"
    },
    {
      "inputs": [
        {
          "internalType": "bytes32",
          "name": "requestId",
          "type": "bytes32"
        },
        {
          "internalType": "uint256",
          "name": "randomness",
          "type": "uint256"
        }
      ],
      "name": "rawFulfillRandomness",
      "outputs": [],
      "stateMutability": "nonpayable",
      "type": "function"
    },
    {
      "inputs": [
        {
          "internalType": "bytes32",
          "name": "",
          "type": "bytes32"
        }
      ],
      "name": "requestIdToSender",
      "outputs": [
        {
          "internalType": "address",
          "name": "",
          "type": "address"
        }
      ],
      "stateMutability": "view",
      "type": "function"
    },
    {
      "inputs": [
        {
          "internalType": "bytes32",
          "name": "",
          "type": "bytes32"
        }
      ],
      "name": "requestIdToTokenId",
      "outputs": [
        {
          "internalType": "uint256",
          "name": "",
          "type": "uint256"
        }
      ],
      "stateMutability": "view",
      "type": "function"
    },
    {
      "inputs": [
        {
          "internalType": "address",
          "name": "from",
          "type": "address"
        },
        {
          "internalType": "address",
          "name": "to",
          "type": "address"
        },
        {
          "internalType": "uint256",
          "name": "tokenId",
          "type": "uint256"
        }
      ],
      "name": "safeTransferFrom",
      "outputs": [],
      "stateMutability": "nonpayable",
      "type": "function"
    },
    {
      "inputs": [
        {
          "internalType": "address",
          "name": "from",
          "type": "address"
        },
        {
          "internalType": "address",
          "name": "to",
          "type": "address"
        },
        {
          "internalType": "uint256",
          "name": "tokenId",
          "type": "uint256"
        },
        {
          "internalType": "bytes",
          "name": "_data",
          "type": "bytes"
        }
      ],
      "name": "safeTransferFrom",
      "outputs": [],
      "stateMutability": "nonpayable",
      "type": "function"
    },
    {
      "inputs": [
        {
          "internalType": "address",
          "name": "operator",
          "type": "address"
        },
        {
          "internalType": "bool",
          "name": "approved",
          "type": "bool"
        }
      ],
      "name": "setApprovalForAll",
      "outputs": [],
      "stateMutability": "nonpayable",
      "type": "function"
    },
    {
      "inputs": [],
      "name": "size",
      "outputs": [
        {
          "internalType": "uint256",
          "name": "",
          "type": "uint256"
        }
      ],
      "stateMutability": "view",
      "type": "function"
    },
    {
      "inputs": [
        {
          "internalType": "bytes4",
          "name": "interfaceId",
          "type": "bytes4"
        }
      ],
      "name": "supportsInterface",
      "outputs": [
        {
          "internalType": "bool",
          "name": "",
          "type": "bool"
        }
      ],
      "stateMutability": "view",
      "type": "function"
    },
    {
      "inputs": [
        {
          "internalType": "string",
          "name": "_svg",
          "type": "string"
        }
      ],
      "name": "svgToImageURI",
      "outputs": [
        {
          "internalType": "string",
          "name": "",
          "type": "string"
        }
      ],
      "stateMutability": "pure",
      "type": "function"
    },
    {
      "inputs": [],
      "name": "symbol",
      "outputs": [
        {
          "internalType": "string",
          "name": "",
          "type": "string"
        }
      ],
      "stateMutability": "view",
      "type": "function"
    },
    {
      "inputs": [],
      "name": "tokenCounter",
      "outputs": [
        {
          "internalType": "uint256",
          "name": "",
          "type": "uint256"
        }
      ],
      "stateMutability": "view",
      "type": "function"
    },
    {
      "inputs": [
        {
          "internalType": "uint256",
          "name": "",
          "type": "uint256"
        }
      ],
      "name": "tokenIdToRandomNumber",
      "outputs": [
        {
          "internalType": "uint256",
          "name": "",
          "type": "uint256"
        }
      ],
      "stateMutability": "view",
      "type": "function"
    },
    {
      "inputs": [
        {
          "internalType": "uint256",
          "name": "tokenId",
          "type": "uint256"
        }
      ],
      "name": "tokenURI",
      "outputs": [
        {
          "internalType": "string",
          "name": "",
          "type": "string"
        }
      ],
      "stateMutability": "view",
      "type": "function"
    },
    {
      "inputs": [
        {
          "internalType": "address",
          "name": "from",
          "type": "address"
        },
        {
          "internalType": "address",
          "name": "to",
          "type": "address"
        },
        {
          "internalType": "uint256",
          "name": "tokenId",
          "type": "uint256"
        }
      ],
      "name": "transferFrom",
      "outputs": [],
      "stateMutability": "nonpayable",
      "type": "function"
    },
    {
      "inputs": [],
      "name": "withdraw",
      "outputs": [],
      "stateMutability": "payable",
      "type": "function"
    }
  ],
  "transactionHash": "0x49bdfac48b5a5ff569f246b3978cd37de1ad64d099d758263195d31accb8cf9a",
  "args": [
    "0xb3dCcb4Cf7a26f6cf6B120Cf5A73875B7BBc655B",
    "0x01be23585060835e02b77ef475b0cc51aa1e0709",
    "0x2ed0feb3e7fd2022120aa84fab1945545a9f2ffc9076fd6156fa96eaff4c1311",
    "100000000000000000"
  ],
  "numDeployments": 1,
  "solcInputHash": "9591eab6d8ab08722280770bf8fa4e06",
  "bytecode": "0x60c06040523480156200001157600080fd5b50604051620058433803806200584383398181016040528101906200003791906200064e565b83836040518060400160405280600c81526020017f52616e646f6d5356474e465400000000000000000000000000000000000000008152506040518060400160405280600581526020017f72734e46540000000000000000000000000000000000000000000000000000008152508160009080519060200190620000bd9291906200041d565b508060019080519060200190620000d69291906200041d565b5050508173ffffffffffffffffffffffffffffffffffffffff1660a08173ffffffffffffffffffffffffffffffffffffffff1660601b815250508073ffffffffffffffffffffffffffffffffffffffff1660808173ffffffffffffffffffffffffffffffffffffffff1660601b81525050505033600860006101000a81548173ffffffffffffffffffffffffffffffffffffffff021916908373ffffffffffffffffffffffffffffffffffffffff1602179055508160098190555080600a8190555067016345785d8a0000600c819055506000600b81905550600a600d819055506005600e819055506101f4600f8190555060405180604001604052806040518060400160405280600181526020017f4d0000000000000000000000000000000000000000000000000000000000000081525081526020016040518060400160405280600181526020017f4c00000000000000000000000000000000000000000000000000000000000000815250815250601090600262000259929190620004ae565b506040518060e001604052806040518060400160405280600581526020017f626c61636b00000000000000000000000000000000000000000000000000000081525081526020016040518060400160405280600481526020017f626c75650000000000000000000000000000000000000000000000000000000081525081526020016040518060400160405280600381526020017f726564000000000000000000000000000000000000000000000000000000000081525081526020016040518060400160405280600581526020017f677265656e00000000000000000000000000000000000000000000000000000081525081526020016040518060400160405280600681526020017f79656c6c6f77000000000000000000000000000000000000000000000000000081525081526020016040518060400160405280600681526020017f707572706c65000000000000000000000000000000000000000000000000000081525081526020016040518060400160405280600681526020017f6f72616e6765000000000000000000000000000000000000000000000000000081525081525060119060076200041292919062000515565b5050505050620007b5565b8280546200042b9062000702565b90600052602060002090601f0160209004810192826200044f57600085556200049b565b82601f106200046a57805160ff19168380011785556200049b565b828001600101855582156200049b579182015b828111156200049a5782518255916020019190600101906200047d565b5b509050620004aa91906200057c565b5090565b82805482825590600052602060002090810192821562000502579160200282015b8281111562000501578251829080519060200190620004f09291906200041d565b5091602001919060010190620004cf565b5b5090506200051191906200059b565b5090565b82805482825590600052602060002090810192821562000569579160200282015b8281111562000568578251829080519060200190620005579291906200041d565b509160200191906001019062000536565b5b5090506200057891906200059b565b5090565b5b80821115620005975760008160009055506001016200057d565b5090565b5b80821115620005bf5760008181620005b59190620005c3565b506001016200059c565b5090565b508054620005d19062000702565b6000825580601f10620005e5575062000606565b601f0160209004906000526020600020908101906200060591906200057c565b5b50565b6000815190506200061a8162000767565b92915050565b600081519050620006318162000781565b92915050565b60008151905062000648816200079b565b92915050565b600080600080608085870312156200066557600080fd5b6000620006758782880162000609565b9450506020620006888782880162000609565b93505060406200069b8782880162000620565b9250506060620006ae8782880162000637565b91505092959194509250565b6000620006c782620006d8565b9050919050565b6000819050919050565b600073ffffffffffffffffffffffffffffffffffffffff82169050919050565b6000819050919050565b600060028204905060018216806200071b57607f821691505b6020821081141562000732576200073162000738565b5b50919050565b7f4e487b7100000000000000000000000000000000000000000000000000000000600052602260045260246000fd5b6200077281620006ba565b81146200077e57600080fd5b50565b6200078c81620006ce565b81146200079857600080fd5b50565b620007a681620006f8565b8114620007b257600080fd5b50565b60805160601c60a05160601c61505b620007e86000396000818161169101526129c301526000612987015261505b6000f3fe6080604052600436106102045760003560e01c806370a0823111610118578063b88d4fde116100a0578063d082e3811161006f578063d082e381146107f2578063ddca3f431461081d578063df9bcd2414610848578063e985e9c514610873578063efc81a8c146108b057610204565b8063b88d4fde14610712578063c76ab9401461073b578063c87b56dd14610778578063ca0bc0ed146107b557610204565b8063949d225d116100e7578063949d225d14610619578063955968d41461064457806395d89b41146106815780639c1cd795146106ac578063a22cb465146106e957610204565b806370a082311461054b57806371aee193146105885780638da5cb5b146105c557806394985ddd146105f057610204565b806330d871c61161019b57806361728f391161016a57806361728f3914610452578063624194c71461047d5780636352211e146104a65780636817c76c146104e35780636dcee4ca1461050e57610204565b806330d871c6146103a557806333af5989146103e25780633ccfd60b1461041f57806342842e0e1461042957610204565b8063095ea7b3116101d7578063095ea7b3146102d9578063219c0eee1461030257806322881f881461033f57806323b872dd1461037c57610204565b806301f920c61461020957806301ffc9a71461023457806306fdde0314610271578063081812fc1461029c575b600080fd5b34801561021557600080fd5b5061021e6108ce565b60405161022b919061425a565b60405180910390f35b34801561024057600080fd5b5061025b60048036038101906102569190613553565b6108d4565b6040516102689190613ed4565b60405180910390f35b34801561027d57600080fd5b506102866109b6565b6040516102939190613f78565b60405180910390f35b3480156102a857600080fd5b506102c360048036038101906102be91906135e6565b610a48565b6040516102d09190613e14565b60405180910390f35b3480156102e557600080fd5b5061030060048036038101906102fb9190613489565b610acd565b005b34801561030e57600080fd5b50610329600480360381019061032491906134ee565b610be5565b6040516103369190613e14565b60405180910390f35b34801561034b57600080fd5b50610366600480360381019061036191906134ee565b610c18565b604051610373919061425a565b60405180910390f35b34801561038857600080fd5b506103a3600480360381019061039e9190613383565b610c30565b005b3480156103b157600080fd5b506103cc60048036038101906103c791906135a5565b610c90565b6040516103d99190613f78565b60405180910390f35b3480156103ee57600080fd5b50610409600480360381019061040491906135e6565b610d29565b6040516104169190613f78565b60405180910390f35b610427611118565b005b34801561043557600080fd5b50610450600480360381019061044b9190613383565b611213565b005b34801561045e57600080fd5b50610467611233565b6040516104749190613eef565b60405180910390f35b34801561048957600080fd5b506104a4600480360381019061049f91906135e6565b611239565b005b3480156104b257600080fd5b506104cd60048036038101906104c891906135e6565b6113a7565b6040516104da9190613e14565b60405180910390f35b3480156104ef57600080fd5b506104f8611459565b604051610505919061425a565b60405180910390f35b34801561051a57600080fd5b50610535600480360381019061053091906135e6565b61145f565b6040516105429190613f78565b60405180910390f35b34801561055757600080fd5b50610572600480360381019061056d919061331e565b611561565b60405161057f919061425a565b60405180910390f35b34801561059457600080fd5b506105af60048036038101906105aa91906135a5565b611619565b6040516105bc9190613f78565b60405180910390f35b3480156105d157600080fd5b506105da611669565b6040516105e79190613e2f565b60405180910390f35b3480156105fc57600080fd5b5061061760048036038101906106129190613517565b61168f565b005b34801561062557600080fd5b5061062e61172b565b60405161063b919061425a565b60405180910390f35b34801561065057600080fd5b5061066b600480360381019061066691906135e6565b611731565b6040516106789190613f78565b60405180910390f35b34801561068d57600080fd5b506106966117dd565b6040516106a39190613f78565b60405180910390f35b3480156106b857600080fd5b506106d360048036038101906106ce91906135e6565b61186f565b6040516106e0919061425a565b60405180910390f35b3480156106f557600080fd5b50610710600480360381019061070b919061344d565b611887565b005b34801561071e57600080fd5b50610739600480360381019061073491906133d2565b61189d565b005b34801561074757600080fd5b50610762600480360381019061075d91906135e6565b6118ff565b60405161076f9190613f78565b60405180910390f35b34801561078457600080fd5b5061079f600480360381019061079a91906135e6565b6119ab565b6040516107ac9190613f78565b60405180910390f35b3480156107c157600080fd5b506107dc60048036038101906107d7919061360f565b611afd565b6040516107e99190613f78565b60405180910390f35b3480156107fe57600080fd5b50610807611bd3565b604051610814919061425a565b60405180910390f35b34801561082957600080fd5b50610832611bd9565b60405161083f919061425a565b60405180910390f35b34801561085457600080fd5b5061085d611bdf565b60405161086a919061425a565b60405180910390f35b34801561087f57600080fd5b5061089a60048036038101906108959190613347565b611be5565b6040516108a79190613ed4565b60405180910390f35b6108b8611c79565b6040516108c59190613eef565b60405180910390f35b600d5481565b60007f80ac58cd000000000000000000000000000000000000000000000000000000007bffffffffffffffffffffffffffffffffffffffffffffffffffffffff1916827bffffffffffffffffffffffffffffffffffffffffffffffffffffffff1916148061099f57507f5b5e139f000000000000000000000000000000000000000000000000000000007bffffffffffffffffffffffffffffffffffffffffffffffffffffffff1916827bffffffffffffffffffffffffffffffffffffffffffffffffffffffff1916145b806109af57506109ae82611d88565b5b9050919050565b6060600080546109c590614593565b80601f01602080910402602001604051908101604052809291908181526020018280546109f190614593565b8015610a3e5780601f10610a1357610100808354040283529160200191610a3e565b820191906000526020600020905b815481529060010190602001808311610a2157829003601f168201915b5050505050905090565b6000610a5382611df2565b610a92576040517f08c379a0000000000000000000000000000000000000000000000000000000008152600401610a899061415a565b60405180910390fd5b6004600083815260200190815260200160002060009054906101000a900473ffffffffffffffffffffffffffffffffffffffff169050919050565b6000610ad8826113a7565b90508073ffffffffffffffffffffffffffffffffffffffff168373ffffffffffffffffffffffffffffffffffffffff161415610b49576040517f08c379a0000000000000000000000000000000000000000000000000000000008152600401610b40906141da565b60405180910390fd5b8073ffffffffffffffffffffffffffffffffffffffff16610b68611e5e565b73ffffffffffffffffffffffffffffffffffffffff161480610b975750610b9681610b91611e5e565b611be5565b5b610bd6576040517f08c379a0000000000000000000000000000000000000000000000000000000008152600401610bcd9061407a565b60405180910390fd5b610be08383611e66565b505050565b60126020528060005260406000206000915054906101000a900473ffffffffffffffffffffffffffffffffffffffff1681565b60136020528060005260406000206000915090505481565b610c41610c3b611e5e565b82611f1f565b610c80576040517f08c379a0000000000000000000000000000000000000000000000000000000008152600401610c779061421a565b60405180910390fd5b610c8b838383611ffd565b505050565b606060006040518060400160405280601a81526020017f646174613a696d6167652f7376672b786d6c3b6261736536342c00000000000081525090506000610cf684604051602001610ce29190613c74565b604051602081830303815290604052612264565b905060008282604051602001610d0d929190613c8b565b6040516020818303038152906040529050809350505050919050565b606060006002600e5484610d3d9190614653565b610d479190614368565b90506040518060400160405280600981526020017f3c7061746820643d2700000000000000000000000000000000000000000000008152509150600083600f54604051602001610d98929190614275565b6040516020818303038152906040528051906020012060001c90506000610e8c826010600081548110610df4577f4e487b7100000000000000000000000000000000000000000000000000000000600052603260045260246000fd5b906000526020600020018054610e0990614593565b80601f0160208091040260200160405190810160405280929190818152602001828054610e3590614593565b8015610e825780601f10610e5757610100808354040283529160200191610e82565b820191906000526020600020905b815481529060010190602001808311610e6557829003601f168201915b5050505050611afd565b90508381604051602001610ea1929190613c8b565b604051602081830303815290604052935060005b83811015611008578581600f54610ecc9190614368565b604051602001610edd929190614275565b6040516020818303038152906040528051906020012060001c9250610fcf836010600181548110610f37577f4e487b7100000000000000000000000000000000000000000000000000000000600052603260045260246000fd5b906000526020600020018054610f4c90614593565b80601f0160208091040260200160405190810160405280929190818152602001828054610f7890614593565b8015610fc55780601f10610f9a57610100808354040283529160200191610fc5565b820191906000526020600020905b815481529060010190602001808311610fa857829003601f168201915b5050505050611afd565b91508482604051602001610fe4929190613c8b565b60405160208183030381529060405294508080611000906145f6565b915050610eb5565b506000601180805490508761101d9190614653565b81548110611054577f4e487b7100000000000000000000000000000000000000000000000000000000600052603260045260246000fd5b90600052602060002001805461106990614593565b80601f016020809104026020016040519081016040528092919081815260200182805461109590614593565b80156110e25780601f106110b7576101008083540402835291602001916110e2565b820191906000526020600020905b8154815290600101906020018083116110c557829003601f168201915b505050505090508481826040516020016110fe93929190613cf6565b604051602081830303815290604052945050505050919050565b600860009054906101000a900473ffffffffffffffffffffffffffffffffffffffff1673ffffffffffffffffffffffffffffffffffffffff163373ffffffffffffffffffffffffffffffffffffffff16146111a8576040517f08c379a000000000000000000000000000000000000000000000000000000000815260040161119f906140fa565b60405180910390fd5b600860009054906101000a900473ffffffffffffffffffffffffffffffffffffffff1673ffffffffffffffffffffffffffffffffffffffff166108fc479081150290604051600060405180830381858888f19350505050158015611210573d6000803e3d6000fd5b50565b61122e8383836040518060200160405280600081525061189d565b505050565b60095481565b6000611244826119ab565b5114611285576040517f08c379a000000000000000000000000000000000000000000000000000000000815260040161127c9061403a565b60405180910390fd5b80600b54116112c9576040517f08c379a00000000000000000000000000000000000000000000000000000000081526004016112c0906141fa565b60405180910390fd5b600060146000838152602001908152602001600020541161131f576040517f08c379a00000000000000000000000000000000000000000000000000000000081526004016113169061417a565b60405180910390fd5b60006014600083815260200190815260200160002054905060006113428261145f565b9050600061134f82610c90565b9050600061135c82611619565b90506113688582612403565b847fcb25abd690c2dce293e6237b33535facf92481a7036a95e95ff3977eeaa66688826040516113989190613f78565b60405180910390a25050505050565b6000806002600084815260200190815260200160002060009054906101000a900473ffffffffffffffffffffffffffffffffffffffff169050600073ffffffffffffffffffffffffffffffffffffffff168173ffffffffffffffffffffffffffffffffffffffff161415611450576040517f08c379a0000000000000000000000000000000000000000000000000000000008152600401611447906140ba565b60405180910390fd5b80915050919050565b600c5481565b606060006002600d54846114739190614653565b61147d9190614368565b905061148a600f54612477565b611495600f54612477565b6040516020016114a6929190613dad565b604051602081830303815290604052915060005b8181101561153857600084826040516020016114d7929190614275565b6040516020818303038152906040528051906020012060001c905060006114fd82610d29565b90508481604051602001611512929190613c8b565b604051602081830303815290604052945050508080611530906145f6565b9150506114ba565b508160405160200161154a9190613d48565b604051602081830303815290604052915050919050565b60008073ffffffffffffffffffffffffffffffffffffffff168273ffffffffffffffffffffffffffffffffffffffff1614156115d2576040517f08c379a00000000000000000000000000000000000000000000000000000000081526004016115c99061409a565b60405180910390fd5b600360008373ffffffffffffffffffffffffffffffffffffffff1673ffffffffffffffffffffffffffffffffffffffff168152602001908152602001600020549050919050565b60606116438260405160200161162f9190613d6a565b604051602081830303815290604052612264565b6040516020016116539190613df2565b6040516020818303038152906040529050919050565b600860009054906101000a900473ffffffffffffffffffffffffffffffffffffffff1681565b7f000000000000000000000000000000000000000000000000000000000000000073ffffffffffffffffffffffffffffffffffffffff163373ffffffffffffffffffffffffffffffffffffffff161461171d576040517f08c379a0000000000000000000000000000000000000000000000000000000008152600401611714906141ba565b60405180910390fd5b611727828261264c565b5050565b600f5481565b6010818154811061174157600080fd5b90600052602060002001600091509050805461175c90614593565b80601f016020809104026020016040519081016040528092919081815260200182805461178890614593565b80156117d55780601f106117aa576101008083540402835291602001916117d5565b820191906000526020600020905b8154815290600101906020018083116117b857829003601f168201915b505050505081565b6060600180546117ec90614593565b80601f016020809104026020016040519081016040528092919081815260200182805461181890614593565b80156118655780601f1061183a57610100808354040283529160200191611865565b820191906000526020600020905b81548152906001019060200180831161184857829003601f168201915b5050505050905090565b60146020528060005260406000206000915090505481565b611899611892611e5e565b83836126fc565b5050565b6118ae6118a8611e5e565b83611f1f565b6118ed576040517f08c379a00000000000000000000000000000000000000000000000000000000081526004016118e49061421a565b60405180910390fd5b6118f984848484612869565b50505050565b6011818154811061190f57600080fd5b90600052602060002001600091509050805461192a90614593565b80601f016020809104026020016040519081016040528092919081815260200182805461195690614593565b80156119a35780601f10611978576101008083540402835291602001916119a3565b820191906000526020600020905b81548152906001019060200180831161198657829003601f168201915b505050505081565b60606119b682611df2565b6119f5576040517f08c379a00000000000000000000000000000000000000000000000000000000081526004016119ec9061413a565b60405180910390fd5b6000600660008481526020019081526020016000208054611a1590614593565b80601f0160208091040260200160405190810160405280929190818152602001828054611a4190614593565b8015611a8e5780601f10611a6357610100808354040283529160200191611a8e565b820191906000526020600020905b815481529060010190602001808311611a7157829003601f168201915b505050505090506000611a9f6128c5565b9050600081511415611ab5578192505050611af8565b600082511115611aea578082604051602001611ad2929190613c8b565b60405160208183030381529060405292505050611af8565b611af3846128dc565b925050505b919050565b60606000600f54846002600f54611b149190614426565b604051602001611b25929190614275565b6040516020818303038152906040528051906020012060001c611b489190614653565b90506000600f54856003600f54611b5f9190614426565b604051602001611b70929190614275565b6040516020818303038152906040528051906020012060001c611b939190614653565b905083611b9f83612477565b611ba883612477565b604051602001611bba93929190613caf565b6040516020818303038152906040529250505092915050565b600b5481565b600a5481565b600e5481565b6000600560008473ffffffffffffffffffffffffffffffffffffffff1673ffffffffffffffffffffffffffffffffffffffff16815260200190815260200160002060008373ffffffffffffffffffffffffffffffffffffffff1673ffffffffffffffffffffffffffffffffffffffff16815260200190815260200160002060009054906101000a900460ff16905092915050565b6000600c54341015611cc0576040517f08c379a0000000000000000000000000000000000000000000000000000000008152600401611cb79061423a565b60405180910390fd5b611cce600954600a54612983565b9050336012600083815260200190815260200160002060006101000a81548173ffffffffffffffffffffffffffffffffffffffff021916908373ffffffffffffffffffffffffffffffffffffffff1602179055506000600b5490508060136000848152602001908152602001600020819055506001600b54611d509190614368565b600b8190555080827fd18cd6f82baac9078af064ea020dd3dc7bff649bd8d50684f972d5995fec6e6960405160405180910390a35090565b60007f01ffc9a7000000000000000000000000000000000000000000000000000000007bffffffffffffffffffffffffffffffffffffffffffffffffffffffff1916827bffffffffffffffffffffffffffffffffffffffffffffffffffffffff1916149050919050565b60008073ffffffffffffffffffffffffffffffffffffffff166002600084815260200190815260200160002060009054906101000a900473ffffffffffffffffffffffffffffffffffffffff1673ffffffffffffffffffffffffffffffffffffffff1614159050919050565b600033905090565b816004600083815260200190815260200160002060006101000a81548173ffffffffffffffffffffffffffffffffffffffff021916908373ffffffffffffffffffffffffffffffffffffffff160217905550808273ffffffffffffffffffffffffffffffffffffffff16611ed9836113a7565b73ffffffffffffffffffffffffffffffffffffffff167f8c5be1e5ebec7d5bd14f71427d1e84f3dd0314c0f7b2291e5b200ac8c7c3b92560405160405180910390a45050565b6000611f2a82611df2565b611f69576040517f08c379a0000000000000000000000000000000000000000000000000000000008152600401611f609061405a565b60405180910390fd5b6000611f74836113a7565b90508073ffffffffffffffffffffffffffffffffffffffff168473ffffffffffffffffffffffffffffffffffffffff161480611fe357508373ffffffffffffffffffffffffffffffffffffffff16611fcb84610a48565b73ffffffffffffffffffffffffffffffffffffffff16145b80611ff45750611ff38185611be5565b5b91505092915050565b8273ffffffffffffffffffffffffffffffffffffffff1661201d826113a7565b73ffffffffffffffffffffffffffffffffffffffff1614612073576040517f08c379a000000000000000000000000000000000000000000000000000000000815260040161206a90613fba565b60405180910390fd5b600073ffffffffffffffffffffffffffffffffffffffff168273ffffffffffffffffffffffffffffffffffffffff1614156120e3576040517f08c379a00000000000000000000000000000000000000000000000000000000081526004016120da90613ffa565b60405180910390fd5b6120ee838383612ae5565b6120f9600082611e66565b6001600360008573ffffffffffffffffffffffffffffffffffffffff1673ffffffffffffffffffffffffffffffffffffffff16815260200190815260200160002060008282546121499190614480565b925050819055506001600360008473ffffffffffffffffffffffffffffffffffffffff1673ffffffffffffffffffffffffffffffffffffffff16815260200190815260200160002060008282546121a09190614368565b92505081905550816002600083815260200190815260200160002060006101000a81548173ffffffffffffffffffffffffffffffffffffffff021916908373ffffffffffffffffffffffffffffffffffffffff160217905550808273ffffffffffffffffffffffffffffffffffffffff168473ffffffffffffffffffffffffffffffffffffffff167fddf252ad1be2c89b69c2b068fc378daa952ba7f163c4a11628f55a4df523b3ef60405160405180910390a461225f838383612aea565b505050565b6060600082511415612287576040518060200160405280600081525090506123fe565b6000604051806060016040528060408152602001614fe660409139905060006003600285516122b69190614368565b6122c091906143f5565b60046122cc9190614426565b905060006020826122dd9190614368565b67ffffffffffffffff81111561231c577f4e487b7100000000000000000000000000000000000000000000000000000000600052604160045260246000fd5b6040519080825280601f01601f19166020018201604052801561234e5781602001600182028036833780820191505090505b509050818152600183018586518101602084015b818310156123bd576003830192508251603f8160121c168501518253600182019150603f81600c1c168501518253600182019150603f8160061c168501518253600182019150603f8116850151825360018201915050612362565b6003895106600181146123d757600281146123e7576123f2565b613d3d60f01b60028303526123f2565b603d60f81b60018303525b50505050508093505050505b919050565b61240c82611df2565b61244b576040517f08c379a0000000000000000000000000000000000000000000000000000000008152600401612442906140da565b60405180910390fd5b80600660008481526020019081526020016000209080519060200190612472929190613118565b505050565b606060008214156124bf576040518060400160405280600181526020017f30000000000000000000000000000000000000000000000000000000000000008152509050612647565b600082905060005b600082146124f15780806124da906145f6565b915050600a826124ea91906143f5565b91506124c7565b60008167ffffffffffffffff811115612533577f4e487b7100000000000000000000000000000000000000000000000000000000600052604160045260246000fd5b6040519080825280601f01601f1916602001820160405280156125655781602001600182028036833780820191505090505b50905060008290505b6000861461263f576001816125839190614480565b90506000600a808861259591906143f5565b61259f9190614426565b876125aa9190614480565b60306125b691906143be565b905060008160f81b9050808484815181106125fa577f4e487b7100000000000000000000000000000000000000000000000000000000600052603260045260246000fd5b60200101907effffffffffffffffffffffffffffffffffffffffffffffffffffffffffffff1916908160001a905350600a8861263691906143f5565b9750505061256e565b819450505050505b919050565b60006012600084815260200190815260200160002060009054906101000a900473ffffffffffffffffffffffffffffffffffffffff1690506000601360008581526020019081526020016000205490506126a68282612aef565b826014600083815260200190815260200160002081905550807faad5362ce528ed941024b95d4c18dfd49b8503e1f586a5c353631d98c2af41b7846040516126ee919061425a565b60405180910390a250505050565b8173ffffffffffffffffffffffffffffffffffffffff168373ffffffffffffffffffffffffffffffffffffffff16141561276b576040517f08c379a00000000000000000000000000000000000000000000000000000000081526004016127629061401a565b60405180910390fd5b80600560008573ffffffffffffffffffffffffffffffffffffffff1673ffffffffffffffffffffffffffffffffffffffff16815260200190815260200160002060008473ffffffffffffffffffffffffffffffffffffffff1673ffffffffffffffffffffffffffffffffffffffff16815260200190815260200160002060006101000a81548160ff0219169083151502179055508173ffffffffffffffffffffffffffffffffffffffff168373ffffffffffffffffffffffffffffffffffffffff167f17307eab39ab6107e8899845ad3d59bd9653f200f220920489ca2b5937696c318360405161285c9190613ed4565b60405180910390a3505050565b612874848484611ffd565b61288084848484612b0d565b6128bf576040517f08c379a00000000000000000000000000000000000000000000000000000000081526004016128b690613f9a565b60405180910390fd5b50505050565b606060405180602001604052806000815250905090565b60606128e782611df2565b612926576040517f08c379a000000000000000000000000000000000000000000000000000000000815260040161291d9061419a565b60405180910390fd5b60006129306128c5565b90506000815111612950576040518060200160405280600081525061297b565b8061295a84612ca4565b60405160200161296b929190613c8b565b6040516020818303038152906040525b915050919050565b60007f000000000000000000000000000000000000000000000000000000000000000073ffffffffffffffffffffffffffffffffffffffff16634000aea07f0000000000000000000000000000000000000000000000000000000000000000848660006040516020016129f7929190613f0a565b6040516020818303038152906040526040518463ffffffff1660e01b8152600401612a2493929190613e96565b602060405180830381600087803b158015612a3e57600080fd5b505af1158015612a52573d6000803e3d6000fd5b505050506040513d601f19601f82011682018060405250810190612a7691906134c5565b506000612a99846000306007600089815260200190815260200160002054612e51565b905060016007600086815260200190815260200160002054612abb9190614368565b6007600086815260200190815260200160002081905550612adc8482612e8d565b91505092915050565b505050565b505050565b612b09828260405180602001604052806000815250612ec0565b5050565b6000612b2e8473ffffffffffffffffffffffffffffffffffffffff16612f1b565b15612c97578373ffffffffffffffffffffffffffffffffffffffff1663150b7a02612b57611e5e565b8786866040518563ffffffff1660e01b8152600401612b799493929190613e4a565b602060405180830381600087803b158015612b9357600080fd5b505af1925050508015612bc457506040513d601f19601f82011682018060405250810190612bc1919061357c565b60015b612c47573d8060008114612bf4576040519150601f19603f3d011682016040523d82523d6000602084013e612bf9565b606091505b50600081511415612c3f576040517f08c379a0000000000000000000000000000000000000000000000000000000008152600401612c3690613f9a565b60405180910390fd5b805181602001fd5b63150b7a0260e01b7bffffffffffffffffffffffffffffffffffffffffffffffffffffffff1916817bffffffffffffffffffffffffffffffffffffffffffffffffffffffff191614915050612c9c565b600190505b949350505050565b60606000821415612cec576040518060400160405280600181526020017f30000000000000000000000000000000000000000000000000000000000000008152509050612e4c565b600082905060005b60008214612d1e578080612d07906145f6565b915050600a82612d1791906143f5565b9150612cf4565b60008167ffffffffffffffff811115612d60577f4e487b7100000000000000000000000000000000000000000000000000000000600052604160045260246000fd5b6040519080825280601f01601f191660200182016040528015612d925781602001600182028036833780820191505090505b5090505b60008514612e4557600182612dab9190614480565b9150600a85612dba9190614653565b6030612dc69190614368565b60f81b818381518110612e02577f4e487b7100000000000000000000000000000000000000000000000000000000600052603260045260246000fd5b60200101907effffffffffffffffffffffffffffffffffffffffffffffffffffffffffffff1916908160001a905350600a85612e3e91906143f5565b9450612d96565b8093505050505b919050565b600084848484604051602001612e6a9493929190613f33565b6040516020818303038152906040528051906020012060001c9050949350505050565b60008282604051602001612ea2929190613c48565b60405160208183030381529060405280519060200120905092915050565b612eca8383612f3e565b612ed76000848484612b0d565b612f16576040517f08c379a0000000000000000000000000000000000000000000000000000000008152600401612f0d90613f9a565b60405180910390fd5b505050565b6000808273ffffffffffffffffffffffffffffffffffffffff163b119050919050565b600073ffffffffffffffffffffffffffffffffffffffff168273ffffffffffffffffffffffffffffffffffffffff161415612fae576040517f08c379a0000000000000000000000000000000000000000000000000000000008152600401612fa59061411a565b60405180910390fd5b612fb781611df2565b15612ff7576040517f08c379a0000000000000000000000000000000000000000000000000000000008152600401612fee90613fda565b60405180910390fd5b61300360008383612ae5565b6001600360008473ffffffffffffffffffffffffffffffffffffffff1673ffffffffffffffffffffffffffffffffffffffff16815260200190815260200160002060008282546130539190614368565b92505081905550816002600083815260200190815260200160002060006101000a81548173ffffffffffffffffffffffffffffffffffffffff021916908373ffffffffffffffffffffffffffffffffffffffff160217905550808273ffffffffffffffffffffffffffffffffffffffff16600073ffffffffffffffffffffffffffffffffffffffff167fddf252ad1be2c89b69c2b068fc378daa952ba7f163c4a11628f55a4df523b3ef60405160405180910390a461311460008383612aea565b5050565b82805461312490614593565b90600052602060002090601f016020900481019282613146576000855561318d565b82601f1061315f57805160ff191683800117855561318d565b8280016001018555821561318d579182015b8281111561318c578251825591602001919060010190613171565b5b50905061319a919061319e565b5090565b5b808211156131b757600081600090555060010161319f565b5090565b60006131ce6131c9846142c3565b61429e565b9050828152602081018484840111156131e657600080fd5b6131f1848285614551565b509392505050565b600061320c613207846142f4565b61429e565b90508281526020810184848401111561322457600080fd5b61322f848285614551565b509392505050565b60008135905061324681614f72565b92915050565b60008135905061325b81614f89565b92915050565b60008151905061327081614f89565b92915050565b60008135905061328581614fa0565b92915050565b60008135905061329a81614fb7565b92915050565b6000815190506132af81614fb7565b92915050565b600082601f8301126132c657600080fd5b81356132d68482602086016131bb565b91505092915050565b600082601f8301126132f057600080fd5b81356133008482602086016131f9565b91505092915050565b60008135905061331881614fce565b92915050565b60006020828403121561333057600080fd5b600061333e84828501613237565b91505092915050565b6000806040838503121561335a57600080fd5b600061336885828601613237565b925050602061337985828601613237565b9150509250929050565b60008060006060848603121561339857600080fd5b60006133a686828701613237565b93505060206133b786828701613237565b92505060406133c886828701613309565b9150509250925092565b600080600080608085870312156133e857600080fd5b60006133f687828801613237565b945050602061340787828801613237565b935050604061341887828801613309565b925050606085013567ffffffffffffffff81111561343557600080fd5b613441878288016132b5565b91505092959194509250565b6000806040838503121561346057600080fd5b600061346e85828601613237565b925050602061347f8582860161324c565b9150509250929050565b6000806040838503121561349c57600080fd5b60006134aa85828601613237565b92505060206134bb85828601613309565b9150509250929050565b6000602082840312156134d757600080fd5b60006134e584828501613261565b91505092915050565b60006020828403121561350057600080fd5b600061350e84828501613276565b91505092915050565b6000806040838503121561352a57600080fd5b600061353885828601613276565b925050602061354985828601613309565b9150509250929050565b60006020828403121561356557600080fd5b60006135738482850161328b565b91505092915050565b60006020828403121561358e57600080fd5b600061359c848285016132a0565b91505092915050565b6000602082840312156135b757600080fd5b600082013567ffffffffffffffff8111156135d157600080fd5b6135dd848285016132df565b91505092915050565b6000602082840312156135f857600080fd5b600061360684828501613309565b91505092915050565b6000806040838503121561362257600080fd5b600061363085828601613309565b925050602083013567ffffffffffffffff81111561364d57600080fd5b613659858286016132df565b9150509250929050565b61366c816144c6565b82525050565b61367b816144b4565b82525050565b61368a816144d8565b82525050565b613699816144e4565b82525050565b6136b06136ab826144e4565b61463f565b82525050565b60006136c182614325565b6136cb818561433b565b93506136db818560208601614560565b6136e481614740565b840191505092915050565b60006136fa82614330565b613704818561434c565b9350613714818560208601614560565b61371d81614740565b840191505092915050565b600061373382614330565b61373d818561435d565b935061374d818560208601614560565b80840191505092915050565b600061376660098361435d565b915061377182614751565b600982019050919050565b600061378960328361434c565b91506137948261477a565b604082019050919050565b60006137ac60258361434c565b91506137b7826147c9565b604082019050919050565b60006137cf601c8361434c565b91506137da82614818565b602082019050919050565b60006137f260088361435d565b91506137fd82614841565b600882019050919050565b6000613815600a8361435d565b91506138208261486a565b600a82019050919050565b600061383860248361434c565b915061384382614893565b604082019050919050565b600061385b60198361434c565b9150613866826148e2565b602082019050919050565b600061387e60178361434c565b91506138898261490b565b602082019050919050565b60006138a1602c8361434c565b91506138ac82614934565b604082019050919050565b60006138c460018361435d565b91506138cf82614983565b600182019050919050565b60006138e760038361435d565b91506138f2826149ac565b600382019050919050565b600061390a60078361435d565b9150613915826149d5565b600782019050919050565b600061392d60388361434c565b9150613938826149fe565b604082019050919050565b6000613950602a8361434c565b915061395b82614a4d565b604082019050919050565b600061397360298361434c565b915061397e82614a9c565b604082019050919050565b6000613996602e8361434c565b91506139a182614aeb565b604082019050919050565b60006139b960188361434c565b91506139c482614b3a565b602082019050919050565b60006139dc60028361435d565b91506139e782614b63565b600282019050919050565b60006139ff60208361434c565b9150613a0a82614b8c565b602082019050919050565b6000613a2260318361434c565b9150613a2d82614bb5565b604082019050919050565b6000613a45602c8361434c565b9150613a5082614c04565b604082019050919050565b6000613a6860278361434c565b9150613a7382614c53565b604082019050919050565b6000613a8b60308361435d565b9150613a9682614ca2565b603082019050919050565b6000613aae602f8361434c565b9150613ab982614cf1565b604082019050919050565b6000613ad1601f8361434c565b9150613adc82614d40565b602082019050919050565b6000613af460428361435d565b9150613aff82614d69565b604282019050919050565b6000613b1760218361434c565b9150613b2282614dde565b604082019050919050565b6000613b3a601d8361435d565b9150613b4582614e2d565b601d82019050919050565b6000613b5d601f8361434c565b9150613b6882614e56565b602082019050919050565b6000613b8060318361434c565b9150613b8b82614e7f565b604082019050919050565b6000613ba360168361434c565b9150613bae82614ece565b602082019050919050565b6000613bc660028361435d565b9150613bd182614ef7565b600282019050919050565b6000613be960068361435d565b9150613bf482614f20565b600682019050919050565b6000613c0c60098361435d565b9150613c1782614f49565b600982019050919050565b613c2b8161453a565b82525050565b613c42613c3d8261453a565b614649565b82525050565b6000613c54828561369f565b602082019150613c648284613c31565b6020820191508190509392505050565b6000613c808284613728565b915081905092915050565b6000613c978285613728565b9150613ca38284613728565b91508190509392505050565b6000613cbb8286613728565b9150613cc78285613728565b9150613cd2826138b7565b9150613cde8284613728565b9150613ce9826138b7565b9150819050949350505050565b6000613d028286613728565b9150613d0d826137e5565b9150613d198285613728565b9150613d2482613808565b9150613d308284613728565b9150613d3b826138da565b9150819050949350505050565b6000613d548284613728565b9150613d5f82613bdc565b915081905092915050565b6000613d7582613759565b9150613d80826138fd565b9150613d8b82613ae7565b9150613d978284613728565b9150613da2826139cf565b915081905092915050565b6000613db882613a7e565b9150613dc48285613728565b9150613dcf82613bff565b9150613ddb8284613728565b9150613de682613bb9565b91508190509392505050565b6000613dfd82613b2d565b9150613e098284613728565b915081905092915050565b6000602082019050613e296000830184613672565b92915050565b6000602082019050613e446000830184613663565b92915050565b6000608082019050613e5f6000830187613672565b613e6c6020830186613672565b613e796040830185613c22565b8181036060830152613e8b81846136b6565b905095945050505050565b6000606082019050613eab6000830186613672565b613eb86020830185613c22565b8181036040830152613eca81846136b6565b9050949350505050565b6000602082019050613ee96000830184613681565b92915050565b6000602082019050613f046000830184613690565b92915050565b6000604082019050613f1f6000830185613690565b613f2c6020830184613c22565b9392505050565b6000608082019050613f486000830187613690565b613f556020830186613c22565b613f626040830185613672565b613f6f6060830184613c22565b95945050505050565b60006020820190508181036000830152613f9281846136ef565b905092915050565b60006020820190508181036000830152613fb38161377c565b9050919050565b60006020820190508181036000830152613fd38161379f565b9050919050565b60006020820190508181036000830152613ff3816137c2565b9050919050565b600060208201905081810360008301526140138161382b565b9050919050565b600060208201905081810360008301526140338161384e565b9050919050565b6000602082019050818103600083015261405381613871565b9050919050565b6000602082019050818103600083015261407381613894565b9050919050565b6000602082019050818103600083015261409381613920565b9050919050565b600060208201905081810360008301526140b381613943565b9050919050565b600060208201905081810360008301526140d381613966565b9050919050565b600060208201905081810360008301526140f381613989565b9050919050565b60006020820190508181036000830152614113816139ac565b9050919050565b60006020820190508181036000830152614133816139f2565b9050919050565b6000602082019050818103600083015261415381613a15565b9050919050565b6000602082019050818103600083015261417381613a38565b9050919050565b6000602082019050818103600083015261419381613a5b565b9050919050565b600060208201905081810360008301526141b381613aa1565b9050919050565b600060208201905081810360008301526141d381613ac4565b9050919050565b600060208201905081810360008301526141f381613b0a565b9050919050565b6000602082019050818103600083015261421381613b50565b9050919050565b6000602082019050818103600083015261423381613b73565b9050919050565b6000602082019050818103600083015261425381613b96565b9050919050565b600060208201905061426f6000830184613c22565b92915050565b600060408201905061428a6000830185613c22565b6142976020830184613c22565b9392505050565b60006142a86142b9565b90506142b482826145c5565b919050565b6000604051905090565b600067ffffffffffffffff8211156142de576142dd614711565b5b6142e782614740565b9050602081019050919050565b600067ffffffffffffffff82111561430f5761430e614711565b5b61431882614740565b9050602081019050919050565b600081519050919050565b600081519050919050565b600082825260208201905092915050565b600082825260208201905092915050565b600081905092915050565b60006143738261453a565b915061437e8361453a565b9250827fffffffffffffffffffffffffffffffffffffffffffffffffffffffffffffffff038211156143b3576143b2614684565b5b828201905092915050565b60006143c982614544565b91506143d483614544565b92508260ff038211156143ea576143e9614684565b5b828201905092915050565b60006144008261453a565b915061440b8361453a565b92508261441b5761441a6146b3565b5b828204905092915050565b60006144318261453a565b915061443c8361453a565b9250817fffffffffffffffffffffffffffffffffffffffffffffffffffffffffffffffff048311821515161561447557614474614684565b5b828202905092915050565b600061448b8261453a565b91506144968361453a565b9250828210156144a9576144a8614684565b5b828203905092915050565b60006144bf8261451a565b9050919050565b60006144d18261451a565b9050919050565b60008115159050919050565b6000819050919050565b60007fffffffff0000000000000000000000000000000000000000000000000000000082169050919050565b600073ffffffffffffffffffffffffffffffffffffffff82169050919050565b6000819050919050565b600060ff82169050919050565b82818337600083830152505050565b60005b8381101561457e578082015181840152602081019050614563565b8381111561458d576000848401525b50505050565b600060028204905060018216806145ab57607f821691505b602082108114156145bf576145be6146e2565b5b50919050565b6145ce82614740565b810181811067ffffffffffffffff821117156145ed576145ec614711565b5b80604052505050565b60006146018261453a565b91507fffffffffffffffffffffffffffffffffffffffffffffffffffffffffffffffff82141561463457614633614684565b5b600182019050919050565b6000819050919050565b6000819050919050565b600061465e8261453a565b91506146698361453a565b925082614679576146786146b3565b5b828206905092915050565b7f4e487b7100000000000000000000000000000000000000000000000000000000600052601160045260246000fd5b7f4e487b7100000000000000000000000000000000000000000000000000000000600052601260045260246000fd5b7f4e487b7100000000000000000000000000000000000000000000000000000000600052602260045260246000fd5b7f4e487b7100000000000000000000000000000000000000000000000000000000600052604160045260246000fd5b6000601f19601f8301169050919050565b7f7b226e616d65223a220000000000000000000000000000000000000000000000600082015250565b7f4552433732313a207472616e7366657220746f206e6f6e20455243373231526560008201527f63656976657220696d706c656d656e7465720000000000000000000000000000602082015250565b7f4552433732313a207472616e736665722066726f6d20696e636f72726563742060008201527f6f776e6572000000000000000000000000000000000000000000000000000000602082015250565b7f4552433732313a20746f6b656e20616c7265616479206d696e74656400000000600082015250565b7f272066696c6c3d27000000000000000000000000000000000000000000000000600082015250565b7f27207374726f6b653d2700000000000000000000000000000000000000000000600082015250565b7f4552433732313a207472616e7366657220746f20746865207a65726f2061646460008201527f7265737300000000000000000000000000000000000000000000000000000000602082015250565b7f4552433732313a20617070726f766520746f2063616c6c657200000000000000600082015250565b7f746f6b656e55524920697320616c726561647920736574000000000000000000600082015250565b7f4552433732313a206f70657261746f7220717565727920666f72206e6f6e657860008201527f697374656e7420746f6b656e0000000000000000000000000000000000000000602082015250565b7f2000000000000000000000000000000000000000000000000000000000000000600082015250565b7f272f3e0000000000000000000000000000000000000000000000000000000000600082015250565b7f535647204e465400000000000000000000000000000000000000000000000000600082015250565b7f4552433732313a20617070726f76652063616c6c6572206973206e6f74206f7760008201527f6e6572206e6f7220617070726f76656420666f7220616c6c0000000000000000602082015250565b7f4552433732313a2062616c616e636520717565727920666f7220746865207a6560008201527f726f206164647265737300000000000000000000000000000000000000000000602082015250565b7f4552433732313a206f776e657220717565727920666f72206e6f6e657869737460008201527f656e7420746f6b656e0000000000000000000000000000000000000000000000602082015250565b7f45524337323155524953746f726167653a2055524920736574206f66206e6f6e60008201527f6578697374656e7420746f6b656e000000000000000000000000000000000000602082015250565b7f4f6e6c79206f6e7765722063616e207769746861647261770000000000000000600082015250565b7f227d000000000000000000000000000000000000000000000000000000000000600082015250565b7f4552433732313a206d696e7420746f20746865207a65726f2061646472657373600082015250565b7f45524337323155524953746f726167653a2055524920717565727920666f722060008201527f6e6f6e6578697374656e7420746f6b656e000000000000000000000000000000602082015250565b7f4552433732313a20617070726f76656420717565727920666f72206e6f6e657860008201527f697374656e7420746f6b656e0000000000000000000000000000000000000000602082015250565b7f52616e646f6d206e756d626572206e6f7420796574207265636965766564206660008201527f726f6d2056524600000000000000000000000000000000000000000000000000602082015250565b7f3c73766720786d6c6e733d27687474703a2f2f7777772e77332e6f72672f323060008201527f30302f73766727206865696768743d2700000000000000000000000000000000602082015250565b7f4552433732314d657461646174613a2055524920717565727920666f72206e6f60008201527f6e6578697374656e7420746f6b656e0000000000000000000000000000000000602082015250565b7f4f6e6c7920565246436f6f7264696e61746f722063616e2066756c66696c6c00600082015250565b7f222c20226465736372697074696f6e223a22416e204e4654206261736564206f60008201527f6e20535647222c202261747472696275746573223a22222c2022696d6167652260208201527f3a22000000000000000000000000000000000000000000000000000000000000604082015250565b7f4552433732313a20617070726f76616c20746f2063757272656e74206f776e6560008201527f7200000000000000000000000000000000000000000000000000000000000000602082015250565b7f646174613a6170706c69636174696f6e2f6a736f6e3b6261736536342c000000600082015250565b7f746f6b656e496420686173206e6f7420796574206265656e206d696e74656400600082015250565b7f4552433732313a207472616e736665722063616c6c6572206973206e6f74206f60008201527f776e6572206e6f7220617070726f766564000000000000000000000000000000602082015250565b7f4d696e742070726963652069733a20302e312045544800000000000000000000600082015250565b7f273e000000000000000000000000000000000000000000000000000000000000600082015250565b7f3c2f7376673e0000000000000000000000000000000000000000000000000000600082015250565b7f272077696474683d270000000000000000000000000000000000000000000000600082015250565b614f7b816144b4565b8114614f8657600080fd5b50565b614f92816144d8565b8114614f9d57600080fd5b50565b614fa9816144e4565b8114614fb457600080fd5b50565b614fc0816144ee565b8114614fcb57600080fd5b50565b614fd78161453a565b8114614fe257600080fd5b5056fe4142434445464748494a4b4c4d4e4f505152535455565758595a6162636465666768696a6b6c6d6e6f707172737475767778797a303132333435363738392b2fa26469706673582212209566d781bdb7c98fc4b0c5a377fe34bfa1253348f3827d925d2a8125f5850e0a64736f6c63430008010033",
  "devdoc": {
    "kind": "dev",
    "methods": {
      "approve(address,uint256)": {
        "details": "See {IERC721-approve}."
      },
      "balanceOf(address)": {
        "details": "See {IERC721-balanceOf}."
      },
      "getApproved(uint256)": {
        "details": "See {IERC721-getApproved}."
      },
      "isApprovedForAll(address,address)": {
        "details": "See {IERC721-isApprovedForAll}."
      },
      "name()": {
        "details": "See {IERC721Metadata-name}."
      },
      "ownerOf(uint256)": {
        "details": "See {IERC721-ownerOf}."
      },
      "safeTransferFrom(address,address,uint256)": {
        "details": "See {IERC721-safeTransferFrom}."
      },
      "safeTransferFrom(address,address,uint256,bytes)": {
        "details": "See {IERC721-safeTransferFrom}."
      },
      "setApprovalForAll(address,bool)": {
        "details": "See {IERC721-setApprovalForAll}."
      },
      "supportsInterface(bytes4)": {
        "details": "See {IERC165-supportsInterface}."
      },
      "symbol()": {
        "details": "See {IERC721Metadata-symbol}."
      },
      "tokenURI(uint256)": {
        "details": "See {IERC721Metadata-tokenURI}."
      },
      "transferFrom(address,address,uint256)": {
        "details": "See {IERC721-transferFrom}."
      }
    },
    "version": 1
  },
  "userdoc": {
    "kind": "user",
    "methods": {},
    "version": 1
  },
  "storageLayout": {
    "storage": [
      {
        "astId": 291,
        "contract": "contracts/RandomSVGNFT.sol:RandomSVGNFT",
        "label": "_name",
        "offset": 0,
        "slot": "0",
        "type": "t_string_storage"
      },
      {
        "astId": 293,
        "contract": "contracts/RandomSVGNFT.sol:RandomSVGNFT",
        "label": "_symbol",
        "offset": 0,
        "slot": "1",
        "type": "t_string_storage"
      },
      {
        "astId": 297,
        "contract": "contracts/RandomSVGNFT.sol:RandomSVGNFT",
        "label": "_owners",
        "offset": 0,
        "slot": "2",
        "type": "t_mapping(t_uint256,t_address)"
      },
      {
        "astId": 301,
        "contract": "contracts/RandomSVGNFT.sol:RandomSVGNFT",
        "label": "_balances",
        "offset": 0,
        "slot": "3",
        "type": "t_mapping(t_address,t_uint256)"
      },
      {
        "astId": 305,
        "contract": "contracts/RandomSVGNFT.sol:RandomSVGNFT",
        "label": "_tokenApprovals",
        "offset": 0,
        "slot": "4",
        "type": "t_mapping(t_uint256,t_address)"
      },
      {
        "astId": 311,
        "contract": "contracts/RandomSVGNFT.sol:RandomSVGNFT",
        "label": "_operatorApprovals",
        "offset": 0,
        "slot": "5",
        "type": "t_mapping(t_address,t_mapping(t_address,t_bool))"
      },
      {
        "astId": 1278,
        "contract": "contracts/RandomSVGNFT.sol:RandomSVGNFT",
        "label": "_tokenURIs",
        "offset": 0,
        "slot": "6",
        "type": "t_mapping(t_uint256,t_string_storage)"
      },
      {
        "astId": 79,
        "contract": "contracts/RandomSVGNFT.sol:RandomSVGNFT",
        "label": "nonces",
        "offset": 0,
        "slot": "7",
        "type": "t_mapping(t_bytes32,t_uint256)"
      },
      {
        "astId": 2102,
        "contract": "contracts/RandomSVGNFT.sol:RandomSVGNFT",
        "label": "owner",
        "offset": 0,
        "slot": "8",
        "type": "t_address_payable"
      },
      {
        "astId": 2104,
        "contract": "contracts/RandomSVGNFT.sol:RandomSVGNFT",
        "label": "keyHash",
        "offset": 0,
        "slot": "9",
        "type": "t_bytes32"
      },
      {
        "astId": 2106,
        "contract": "contracts/RandomSVGNFT.sol:RandomSVGNFT",
        "label": "fee",
        "offset": 0,
        "slot": "10",
        "type": "t_uint256"
      },
      {
        "astId": 2108,
        "contract": "contracts/RandomSVGNFT.sol:RandomSVGNFT",
        "label": "tokenCounter",
        "offset": 0,
        "slot": "11",
        "type": "t_uint256"
      },
      {
        "astId": 2110,
        "contract": "contracts/RandomSVGNFT.sol:RandomSVGNFT",
        "label": "mintPrice",
        "offset": 0,
        "slot": "12",
        "type": "t_uint256"
      },
      {
        "astId": 2112,
        "contract": "contracts/RandomSVGNFT.sol:RandomSVGNFT",
        "label": "maxPaths",
        "offset": 0,
        "slot": "13",
        "type": "t_uint256"
      },
      {
        "astId": 2114,
        "contract": "contracts/RandomSVGNFT.sol:RandomSVGNFT",
        "label": "maxPathCommands",
        "offset": 0,
        "slot": "14",
        "type": "t_uint256"
      },
      {
        "astId": 2116,
        "contract": "contracts/RandomSVGNFT.sol:RandomSVGNFT",
        "label": "size",
        "offset": 0,
        "slot": "15",
        "type": "t_uint256"
      },
      {
        "astId": 2119,
        "contract": "contracts/RandomSVGNFT.sol:RandomSVGNFT",
        "label": "pathCommands",
        "offset": 0,
        "slot": "16",
        "type": "t_array(t_string_storage)dyn_storage"
      },
      {
        "astId": 2122,
        "contract": "contracts/RandomSVGNFT.sol:RandomSVGNFT",
        "label": "colours",
        "offset": 0,
        "slot": "17",
        "type": "t_array(t_string_storage)dyn_storage"
      },
      {
        "astId": 2126,
        "contract": "contracts/RandomSVGNFT.sol:RandomSVGNFT",
        "label": "requestIdToSender",
        "offset": 0,
        "slot": "18",
        "type": "t_mapping(t_bytes32,t_address)"
      },
      {
        "astId": 2130,
        "contract": "contracts/RandomSVGNFT.sol:RandomSVGNFT",
        "label": "requestIdToTokenId",
        "offset": 0,
        "slot": "19",
        "type": "t_mapping(t_bytes32,t_uint256)"
      },
      {
        "astId": 2134,
        "contract": "contracts/RandomSVGNFT.sol:RandomSVGNFT",
        "label": "tokenIdToRandomNumber",
        "offset": 0,
        "slot": "20",
        "type": "t_mapping(t_uint256,t_uint256)"
      }
    ],
    "types": {
      "t_address": {
        "encoding": "inplace",
        "label": "address",
        "numberOfBytes": "20"
      },
      "t_address_payable": {
        "encoding": "inplace",
        "label": "address payable",
        "numberOfBytes": "20"
      },
      "t_array(t_string_storage)dyn_storage": {
        "base": "t_string_storage",
        "encoding": "dynamic_array",
        "label": "string[]",
        "numberOfBytes": "32"
      },
      "t_bool": {
        "encoding": "inplace",
        "label": "bool",
        "numberOfBytes": "1"
      },
      "t_bytes32": {
        "encoding": "inplace",
        "label": "bytes32",
        "numberOfBytes": "32"
      },
      "t_mapping(t_address,t_bool)": {
        "encoding": "mapping",
        "key": "t_address",
        "label": "mapping(address => bool)",
        "numberOfBytes": "32",
        "value": "t_bool"
      },
      "t_mapping(t_address,t_mapping(t_address,t_bool))": {
        "encoding": "mapping",
        "key": "t_address",
        "label": "mapping(address => mapping(address => bool))",
        "numberOfBytes": "32",
        "value": "t_mapping(t_address,t_bool)"
      },
      "t_mapping(t_address,t_uint256)": {
        "encoding": "mapping",
        "key": "t_address",
        "label": "mapping(address => uint256)",
        "numberOfBytes": "32",
        "value": "t_uint256"
      },
      "t_mapping(t_bytes32,t_address)": {
        "encoding": "mapping",
        "key": "t_bytes32",
        "label": "mapping(bytes32 => address)",
        "numberOfBytes": "32",
        "value": "t_address"
      },
      "t_mapping(t_bytes32,t_uint256)": {
        "encoding": "mapping",
        "key": "t_bytes32",
        "label": "mapping(bytes32 => uint256)",
        "numberOfBytes": "32",
        "value": "t_uint256"
      },
      "t_mapping(t_uint256,t_address)": {
        "encoding": "mapping",
        "key": "t_uint256",
        "label": "mapping(uint256 => address)",
        "numberOfBytes": "32",
        "value": "t_address"
      },
      "t_mapping(t_uint256,t_string_storage)": {
        "encoding": "mapping",
        "key": "t_uint256",
        "label": "mapping(uint256 => string)",
        "numberOfBytes": "32",
        "value": "t_string_storage"
      },
      "t_mapping(t_uint256,t_uint256)": {
        "encoding": "mapping",
        "key": "t_uint256",
        "label": "mapping(uint256 => uint256)",
        "numberOfBytes": "32",
        "value": "t_uint256"
      },
      "t_string_storage": {
        "encoding": "bytes",
        "label": "string",
        "numberOfBytes": "32"
      },
      "t_uint256": {
        "encoding": "inplace",
        "label": "uint256",
        "numberOfBytes": "32"
      }
    }
  }
}