{
  "address": "0x5720dE9A786dC3072Aec985cA44F23181Cfa5490",
  "abi": [
    {
      "inputs": [],
      "stateMutability": "nonpayable",
      "type": "constructor"
    },
    {
      "anonymous": false,
      "inputs": [
        {
          "indexed": true,
          "internalType": "address",
          "name": "owner",
          "type": "address"
        },
        {
          "indexed": true,
          "internalType": "address",
          "name": "approved",
          "type": "address"
        },
        {
          "indexed": true,
          "internalType": "uint256",
          "name": "tokenId",
          "type": "uint256"
        }
      ],
      "name": "Approval",
      "type": "event"
    },
    {
      "anonymous": false,
      "inputs": [
        {
          "indexed": true,
          "internalType": "address",
          "name": "owner",
          "type": "address"
        },
        {
          "indexed": true,
          "internalType": "address",
          "name": "operator",
          "type": "address"
        },
        {
          "indexed": false,
          "internalType": "bool",
          "name": "approved",
          "type": "bool"
        }
      ],
      "name": "ApprovalForAll",
      "type": "event"
    },
    {
      "anonymous": false,
      "inputs": [
        {
          "indexed": true,
          "internalType": "uint256",
          "name": "tokenId",
          "type": "uint256"
        },
        {
          "indexed": false,
          "internalType": "string",
          "name": "tokenURI",
          "type": "string"
        }
      ],
      "name": "CreatedSVGNFT",
      "type": "event"
    },
    {
      "anonymous": false,
      "inputs": [
        {
          "indexed": true,
          "internalType": "address",
          "name": "from",
          "type": "address"
        },
        {
          "indexed": true,
          "internalType": "address",
          "name": "to",
          "type": "address"
        },
        {
          "indexed": true,
          "internalType": "uint256",
          "name": "tokenId",
          "type": "uint256"
        }
      ],
      "name": "Transfer",
      "type": "event"
    },
    {
      "inputs": [
        {
          "internalType": "address",
          "name": "to",
          "type": "address"
        },
        {
          "internalType": "uint256",
          "name": "tokenId",
          "type": "uint256"
        }
      ],
      "name": "approve",
      "outputs": [],
      "stateMutability": "nonpayable",
      "type": "function"
    },
    {
      "inputs": [
        {
          "internalType": "address",
          "name": "owner",
          "type": "address"
        }
      ],
      "name": "balanceOf",
      "outputs": [
        {
          "internalType": "uint256",
          "name": "",
          "type": "uint256"
        }
      ],
      "stateMutability": "view",
      "type": "function"
    },
    {
      "inputs": [
        {
          "internalType": "string",
          "name": "_svg",
          "type": "string"
        }
      ],
      "name": "create",
      "outputs": [],
      "stateMutability": "nonpayable",
      "type": "function"
    },
    {
      "inputs": [
        {
          "internalType": "string",
          "name": "_imageURI",
          "type": "string"
        }
      ],
      "name": "formatTokenURI",
      "outputs": [
        {
          "internalType": "string",
          "name": "",
          "type": "string"
        }
      ],
      "stateMutability": "pure",
      "type": "function"
    },
    {
      "inputs": [
        {
          "internalType": "uint256",
          "name": "tokenId",
          "type": "uint256"
        }
      ],
      "name": "getApproved",
      "outputs": [
        {
          "internalType": "address",
          "name": "",
          "type": "address"
        }
      ],
      "stateMutability": "view",
      "type": "function"
    },
    {
      "inputs": [
        {
          "internalType": "address",
          "name": "owner",
          "type": "address"
        },
        {
          "internalType": "address",
          "name": "operator",
          "type": "address"
        }
      ],
      "name": "isApprovedForAll",
      "outputs": [
        {
          "internalType": "bool",
          "name": "",
          "type": "bool"
        }
      ],
      "stateMutability": "view",
      "type": "function"
    },
    {
      "inputs": [],
      "name": "name",
      "outputs": [
        {
          "internalType": "string",
          "name": "",
          "type": "string"
        }
      ],
      "stateMutability": "view",
      "type": "function"
    },
    {
      "inputs": [
        {
          "internalType": "uint256",
          "name": "tokenId",
          "type": "uint256"
        }
      ],
      "name": "ownerOf",
      "outputs": [
        {
          "internalType": "address",
          "name": "",
          "type": "address"
        }
      ],
      "stateMutability": "view",
      "type": "function"
    },
    {
      "inputs": [
        {
          "internalType": "address",
          "name": "from",
          "type": "address"
        },
        {
          "internalType": "address",
          "name": "to",
          "type": "address"
        },
        {
          "internalType": "uint256",
          "name": "tokenId",
          "type": "uint256"
        }
      ],
      "name": "safeTransferFrom",
      "outputs": [],
      "stateMutability": "nonpayable",
      "type": "function"
    },
    {
      "inputs": [
        {
          "internalType": "address",
          "name": "from",
          "type": "address"
        },
        {
          "internalType": "address",
          "name": "to",
          "type": "address"
        },
        {
          "internalType": "uint256",
          "name": "tokenId",
          "type": "uint256"
        },
        {
          "internalType": "bytes",
          "name": "_data",
          "type": "bytes"
        }
      ],
      "name": "safeTransferFrom",
      "outputs": [],
      "stateMutability": "nonpayable",
      "type": "function"
    },
    {
      "inputs": [
        {
          "internalType": "address",
          "name": "operator",
          "type": "address"
        },
        {
          "internalType": "bool",
          "name": "approved",
          "type": "bool"
        }
      ],
      "name": "setApprovalForAll",
      "outputs": [],
      "stateMutability": "nonpayable",
      "type": "function"
    },
    {
      "inputs": [
        {
          "internalType": "bytes4",
          "name": "interfaceId",
          "type": "bytes4"
        }
      ],
      "name": "supportsInterface",
      "outputs": [
        {
          "internalType": "bool",
          "name": "",
          "type": "bool"
        }
      ],
      "stateMutability": "view",
      "type": "function"
    },
    {
      "inputs": [
        {
          "internalType": "string",
          "name": "_svg",
          "type": "string"
        }
      ],
      "name": "svgToImageURI",
      "outputs": [
        {
          "internalType": "string",
          "name": "",
          "type": "string"
        }
      ],
      "stateMutability": "pure",
      "type": "function"
    },
    {
      "inputs": [],
      "name": "symbol",
      "outputs": [
        {
          "internalType": "string",
          "name": "",
          "type": "string"
        }
      ],
      "stateMutability": "view",
      "type": "function"
    },
    {
      "inputs": [],
      "name": "tokenCounter",
      "outputs": [
        {
          "internalType": "uint256",
          "name": "",
          "type": "uint256"
        }
      ],
      "stateMutability": "view",
      "type": "function"
    },
    {
      "inputs": [
        {
          "internalType": "uint256",
          "name": "tokenId",
          "type": "uint256"
        }
      ],
      "name": "tokenURI",
      "outputs": [
        {
          "internalType": "string",
          "name": "",
          "type": "string"
        }
      ],
      "stateMutability": "view",
      "type": "function"
    },
    {
      "inputs": [
        {
          "internalType": "address",
          "name": "from",
          "type": "address"
        },
        {
          "internalType": "address",
          "name": "to",
          "type": "address"
        },
        {
          "internalType": "uint256",
          "name": "tokenId",
          "type": "uint256"
        }
      ],
      "name": "transferFrom",
      "outputs": [],
      "stateMutability": "nonpayable",
      "type": "function"
    }
  ],
  "transactionHash": "0xc02330017d09f47d70d11eda4853350347cea6eb23717238e08b0e77ccdb35c5",
  "args": [],
  "numDeployments": 1,
  "solcInputHash": "f1f71a169bdc87c73c177771c9716c9e",
  "bytecode": "0x60806040523480156200001157600080fd5b506040518060400160405280600781526020017f535647204e4654000000000000000000000000000000000000000000000000008152506040518060400160405280600681526020017f7376674e46540000000000000000000000000000000000000000000000000000815250816000908051906020019062000096929190620000c0565b508060019080519060200190620000af929190620000c0565b5050506000600781905550620001d5565b828054620000ce9062000170565b90600052602060002090601f016020900481019282620000f257600085556200013e565b82601f106200010d57805160ff19168380011785556200013e565b828001600101855582156200013e579182015b828111156200013d57825182559160200191906001019062000120565b5b5090506200014d919062000151565b5090565b5b808211156200016c57600081600090555060010162000152565b5090565b600060028204905060018216806200018957607f821691505b60208210811415620001a0576200019f620001a6565b5b50919050565b7f4e487b7100000000000000000000000000000000000000000000000000000000600052602260045260246000fd5b61322180620001e56000396000f3fe608060405234801561001057600080fd5b506004361061010b5760003560e01c806370a08231116100a2578063b6a46b3b11610071578063b6a46b3b146102dc578063b88d4fde146102f8578063c87b56dd14610314578063d082e38114610344578063e985e9c5146103625761010b565b806370a082311461024257806371aee1931461027257806395d89b41146102a2578063a22cb465146102c05761010b565b806323b872dd116100de57806323b872dd146101aa57806330d871c6146101c657806342842e0e146101f65780636352211e146102125761010b565b806301ffc9a71461011057806306fdde0314610140578063081812fc1461015e578063095ea7b31461018e575b600080fd5b61012a60048036038101906101259190611faf565b610392565b6040516101379190612521565b60405180910390f35b610148610474565b604051610155919061253c565b60405180910390f35b61017860048036038101906101739190612042565b610506565b60405161018591906124ba565b60405180910390f35b6101a860048036038101906101a39190611f73565b61058b565b005b6101c460048036038101906101bf9190611e6d565b6106a3565b005b6101e060048036038101906101db9190612001565b610703565b6040516101ed919061253c565b60405180910390f35b610210600480360381019061020b9190611e6d565b61079c565b005b61022c60048036038101906102279190612042565b6107bc565b60405161023991906124ba565b60405180910390f35b61025c60048036038101906102579190611e08565b61086e565b604051610269919061275e565b60405180910390f35b61028c60048036038101906102879190612001565b610926565b604051610299919061253c565b60405180910390f35b6102aa610976565b6040516102b7919061253c565b60405180910390f35b6102da60048036038101906102d59190611f37565b610a08565b005b6102f660048036038101906102f19190612001565b610a1e565b005b610312600480360381019061030d9190611ebc565b610aa4565b005b61032e60048036038101906103299190612042565b610b06565b60405161033b919061253c565b60405180910390f35b61034c610c58565b604051610359919061275e565b60405180910390f35b61037c60048036038101906103779190611e31565b610c5e565b6040516103899190612521565b60405180910390f35b60007f80ac58cd000000000000000000000000000000000000000000000000000000007bffffffffffffffffffffffffffffffffffffffffffffffffffffffff1916827bffffffffffffffffffffffffffffffffffffffffffffffffffffffff1916148061045d57507f5b5e139f000000000000000000000000000000000000000000000000000000007bffffffffffffffffffffffffffffffffffffffffffffffffffffffff1916827bffffffffffffffffffffffffffffffffffffffffffffffffffffffff1916145b8061046d575061046c82610cf2565b5b9050919050565b60606000805461048390612a0e565b80601f01602080910402602001604051908101604052809291908181526020018280546104af90612a0e565b80156104fc5780601f106104d1576101008083540402835291602001916104fc565b820191906000526020600020905b8154815290600101906020018083116104df57829003601f168201915b5050505050905090565b600061051182610d5c565b610550576040517f08c379a0000000000000000000000000000000000000000000000000000000008152600401610547906126de565b60405180910390fd5b6004600083815260200190815260200160002060009054906101000a900473ffffffffffffffffffffffffffffffffffffffff169050919050565b6000610596826107bc565b90508073ffffffffffffffffffffffffffffffffffffffff168373ffffffffffffffffffffffffffffffffffffffff161415610607576040517f08c379a00000000000000000000000000000000000000000000000000000000081526004016105fe9061271e565b60405180910390fd5b8073ffffffffffffffffffffffffffffffffffffffff16610626610dc8565b73ffffffffffffffffffffffffffffffffffffffff16148061065557506106548161064f610dc8565b610c5e565b5b610694576040517f08c379a000000000000000000000000000000000000000000000000000000000815260040161068b9061261e565b60405180910390fd5b61069e8383610dd0565b505050565b6106b46106ae610dc8565b82610e89565b6106f3576040517f08c379a00000000000000000000000000000000000000000000000000000000081526004016106ea9061273e565b60405180910390fd5b6106fe838383610f67565b505050565b606060006040518060400160405280601a81526020017f646174613a696d6167652f7376672b786d6c3b6261736536342c0000000000008152509050600061076984604051602001610755919061241a565b6040516020818303038152906040526111ce565b905060008282604051602001610780929190612431565b6040516020818303038152906040529050809350505050919050565b6107b783838360405180602001604052806000815250610aa4565b505050565b6000806002600084815260200190815260200160002060009054906101000a900473ffffffffffffffffffffffffffffffffffffffff169050600073ffffffffffffffffffffffffffffffffffffffff168173ffffffffffffffffffffffffffffffffffffffff161415610865576040517f08c379a000000000000000000000000000000000000000000000000000000000815260040161085c9061265e565b60405180910390fd5b80915050919050565b60008073ffffffffffffffffffffffffffffffffffffffff168273ffffffffffffffffffffffffffffffffffffffff1614156108df576040517f08c379a00000000000000000000000000000000000000000000000000000000081526004016108d69061263e565b60405180910390fd5b600360008373ffffffffffffffffffffffffffffffffffffffff1673ffffffffffffffffffffffffffffffffffffffff168152602001908152602001600020549050919050565b60606109508260405160200161093c9190612455565b6040516020818303038152906040526111ce565b6040516020016109609190612498565b6040516020818303038152906040529050919050565b60606001805461098590612a0e565b80601f01602080910402602001604051908101604052809291908181526020018280546109b190612a0e565b80156109fe5780601f106109d3576101008083540402835291602001916109fe565b820191906000526020600020905b8154815290600101906020018083116109e157829003601f168201915b5050505050905090565b610a1a610a13610dc8565b838361136d565b5050565b610a2a336007546114da565b6000610a3582610703565b90506000610a4282610926565b9050610a50600754826114f8565b6007547ff5acc616aa8ecd00e5d76674d7812f9c3c3571d662c9fba4499deefa6d0be12d82604051610a82919061253c565b60405180910390a26001600754610a999190612843565b600781905550505050565b610ab5610aaf610dc8565b83610e89565b610af4576040517f08c379a0000000000000000000000000000000000000000000000000000000008152600401610aeb9061273e565b60405180910390fd5b610b008484848461156c565b50505050565b6060610b1182610d5c565b610b50576040517f08c379a0000000000000000000000000000000000000000000000000000000008152600401610b47906126be565b60405180910390fd5b6000600660008481526020019081526020016000208054610b7090612a0e565b80601f0160208091040260200160405190810160405280929190818152602001828054610b9c90612a0e565b8015610be95780601f10610bbe57610100808354040283529160200191610be9565b820191906000526020600020905b815481529060010190602001808311610bcc57829003601f168201915b505050505090506000610bfa6115c8565b9050600081511415610c10578192505050610c53565b600082511115610c45578082604051602001610c2d929190612431565b60405160208183030381529060405292505050610c53565b610c4e846115df565b925050505b919050565b60075481565b6000600560008473ffffffffffffffffffffffffffffffffffffffff1673ffffffffffffffffffffffffffffffffffffffff16815260200190815260200160002060008373ffffffffffffffffffffffffffffffffffffffff1673ffffffffffffffffffffffffffffffffffffffff16815260200190815260200160002060009054906101000a900460ff16905092915050565b60007f01ffc9a7000000000000000000000000000000000000000000000000000000007bffffffffffffffffffffffffffffffffffffffffffffffffffffffff1916827bffffffffffffffffffffffffffffffffffffffffffffffffffffffff1916149050919050565b60008073ffffffffffffffffffffffffffffffffffffffff166002600084815260200190815260200160002060009054906101000a900473ffffffffffffffffffffffffffffffffffffffff1673ffffffffffffffffffffffffffffffffffffffff1614159050919050565b600033905090565b816004600083815260200190815260200160002060006101000a81548173ffffffffffffffffffffffffffffffffffffffff021916908373ffffffffffffffffffffffffffffffffffffffff160217905550808273ffffffffffffffffffffffffffffffffffffffff16610e43836107bc565b73ffffffffffffffffffffffffffffffffffffffff167f8c5be1e5ebec7d5bd14f71427d1e84f3dd0314c0f7b2291e5b200ac8c7c3b92560405160405180910390a45050565b6000610e9482610d5c565b610ed3576040517f08c379a0000000000000000000000000000000000000000000000000000000008152600401610eca906125fe565b60405180910390fd5b6000610ede836107bc565b90508073ffffffffffffffffffffffffffffffffffffffff168473ffffffffffffffffffffffffffffffffffffffff161480610f4d57508373ffffffffffffffffffffffffffffffffffffffff16610f3584610506565b73ffffffffffffffffffffffffffffffffffffffff16145b80610f5e5750610f5d8185610c5e565b5b91505092915050565b8273ffffffffffffffffffffffffffffffffffffffff16610f87826107bc565b73ffffffffffffffffffffffffffffffffffffffff1614610fdd576040517f08c379a0000000000000000000000000000000000000000000000000000000008152600401610fd49061257e565b60405180910390fd5b600073ffffffffffffffffffffffffffffffffffffffff168273ffffffffffffffffffffffffffffffffffffffff16141561104d576040517f08c379a0000000000000000000000000000000000000000000000000000000008152600401611044906125be565b60405180910390fd5b611058838383611686565b611063600082610dd0565b6001600360008573ffffffffffffffffffffffffffffffffffffffff1673ffffffffffffffffffffffffffffffffffffffff16815260200190815260200160002060008282546110b39190612924565b925050819055506001600360008473ffffffffffffffffffffffffffffffffffffffff1673ffffffffffffffffffffffffffffffffffffffff168152602001908152602001600020600082825461110a9190612843565b92505081905550816002600083815260200190815260200160002060006101000a81548173ffffffffffffffffffffffffffffffffffffffff021916908373ffffffffffffffffffffffffffffffffffffffff160217905550808273ffffffffffffffffffffffffffffffffffffffff168473ffffffffffffffffffffffffffffffffffffffff167fddf252ad1be2c89b69c2b068fc378daa952ba7f163c4a11628f55a4df523b3ef60405160405180910390a46111c983838361168b565b505050565b60606000825114156111f157604051806020016040528060008152509050611368565b60006040518060600160405280604081526020016131ac60409139905060006003600285516112209190612843565b61122a9190612899565b600461123691906128ca565b905060006020826112479190612843565b67ffffffffffffffff811115611286577f4e487b7100000000000000000000000000000000000000000000000000000000600052604160045260246000fd5b6040519080825280601f01601f1916602001820160405280156112b85781602001600182028036833780820191505090505b509050818152600183018586518101602084015b81831015611327576003830192508251603f8160121c168501518253600182019150603f81600c1c168501518253600182019150603f8160061c168501518253600182019150603f81168501518253600182019150506112cc565b60038951066001811461134157600281146113515761135c565b613d3d60f01b600283035261135c565b603d60f81b60018303525b50505050508093505050505b919050565b8173ffffffffffffffffffffffffffffffffffffffff168373ffffffffffffffffffffffffffffffffffffffff1614156113dc576040517f08c379a00000000000000000000000000000000000000000000000000000000081526004016113d3906125de565b60405180910390fd5b80600560008573ffffffffffffffffffffffffffffffffffffffff1673ffffffffffffffffffffffffffffffffffffffff16815260200190815260200160002060008473ffffffffffffffffffffffffffffffffffffffff1673ffffffffffffffffffffffffffffffffffffffff16815260200190815260200160002060006101000a81548160ff0219169083151502179055508173ffffffffffffffffffffffffffffffffffffffff168373ffffffffffffffffffffffffffffffffffffffff167f17307eab39ab6107e8899845ad3d59bd9653f200f220920489ca2b5937696c31836040516114cd9190612521565b60405180910390a3505050565b6114f4828260405180602001604052806000815250611690565b5050565b61150182610d5c565b611540576040517f08c379a00000000000000000000000000000000000000000000000000000000081526004016115379061267e565b60405180910390fd5b80600660008481526020019081526020016000209080519060200190611567929190611c2c565b505050565b611577848484610f67565b611583848484846116eb565b6115c2576040517f08c379a00000000000000000000000000000000000000000000000000000000081526004016115b99061255e565b60405180910390fd5b50505050565b606060405180602001604052806000815250905090565b60606115ea82610d5c565b611629576040517f08c379a0000000000000000000000000000000000000000000000000000000008152600401611620906126fe565b60405180910390fd5b60006116336115c8565b90506000815111611653576040518060200160405280600081525061167e565b8061165d84611882565b60405160200161166e929190612431565b6040516020818303038152906040525b915050919050565b505050565b505050565b61169a8383611a2f565b6116a760008484846116eb565b6116e6576040517f08c379a00000000000000000000000000000000000000000000000000000000081526004016116dd9061255e565b60405180910390fd5b505050565b600061170c8473ffffffffffffffffffffffffffffffffffffffff16611c09565b15611875578373ffffffffffffffffffffffffffffffffffffffff1663150b7a02611735610dc8565b8786866040518563ffffffff1660e01b815260040161175794939291906124d5565b602060405180830381600087803b15801561177157600080fd5b505af19250505080156117a257506040513d601f19601f8201168201806040525081019061179f9190611fd8565b60015b611825573d80600081146117d2576040519150601f19603f3d011682016040523d82523d6000602084013e6117d7565b606091505b5060008151141561181d576040517f08c379a00000000000000000000000000000000000000000000000000000000081526004016118149061255e565b60405180910390fd5b805181602001fd5b63150b7a0260e01b7bffffffffffffffffffffffffffffffffffffffffffffffffffffffff1916817bffffffffffffffffffffffffffffffffffffffffffffffffffffffff19161491505061187a565b600190505b949350505050565b606060008214156118ca576040518060400160405280600181526020017f30000000000000000000000000000000000000000000000000000000000000008152509050611a2a565b600082905060005b600082146118fc5780806118e590612a71565b915050600a826118f59190612899565b91506118d2565b60008167ffffffffffffffff81111561193e577f4e487b7100000000000000000000000000000000000000000000000000000000600052604160045260246000fd5b6040519080825280601f01601f1916602001820160405280156119705781602001600182028036833780820191505090505b5090505b60008514611a23576001826119899190612924565b9150600a856119989190612aba565b60306119a49190612843565b60f81b8183815181106119e0577f4e487b7100000000000000000000000000000000000000000000000000000000600052603260045260246000fd5b60200101907effffffffffffffffffffffffffffffffffffffffffffffffffffffffffffff1916908160001a905350600a85611a1c9190612899565b9450611974565b8093505050505b919050565b600073ffffffffffffffffffffffffffffffffffffffff168273ffffffffffffffffffffffffffffffffffffffff161415611a9f576040517f08c379a0000000000000000000000000000000000000000000000000000000008152600401611a969061269e565b60405180910390fd5b611aa881610d5c565b15611ae8576040517f08c379a0000000000000000000000000000000000000000000000000000000008152600401611adf9061259e565b60405180910390fd5b611af460008383611686565b6001600360008473ffffffffffffffffffffffffffffffffffffffff1673ffffffffffffffffffffffffffffffffffffffff1681526020019081526020016000206000828254611b449190612843565b92505081905550816002600083815260200190815260200160002060006101000a81548173ffffffffffffffffffffffffffffffffffffffff021916908373ffffffffffffffffffffffffffffffffffffffff160217905550808273ffffffffffffffffffffffffffffffffffffffff16600073ffffffffffffffffffffffffffffffffffffffff167fddf252ad1be2c89b69c2b068fc378daa952ba7f163c4a11628f55a4df523b3ef60405160405180910390a4611c056000838361168b565b5050565b6000808273ffffffffffffffffffffffffffffffffffffffff163b119050919050565b828054611c3890612a0e565b90600052602060002090601f016020900481019282611c5a5760008555611ca1565b82601f10611c7357805160ff1916838001178555611ca1565b82800160010185558215611ca1579182015b82811115611ca0578251825591602001919060010190611c85565b5b509050611cae9190611cb2565b5090565b5b80821115611ccb576000816000905550600101611cb3565b5090565b6000611ce2611cdd8461279e565b612779565b905082815260208101848484011115611cfa57600080fd5b611d058482856129cc565b509392505050565b6000611d20611d1b846127cf565b612779565b905082815260208101848484011115611d3857600080fd5b611d438482856129cc565b509392505050565b600081359050611d5a8161314f565b92915050565b600081359050611d6f81613166565b92915050565b600081359050611d848161317d565b92915050565b600081519050611d998161317d565b92915050565b600082601f830112611db057600080fd5b8135611dc0848260208601611ccf565b91505092915050565b600082601f830112611dda57600080fd5b8135611dea848260208601611d0d565b91505092915050565b600081359050611e0281613194565b92915050565b600060208284031215611e1a57600080fd5b6000611e2884828501611d4b565b91505092915050565b60008060408385031215611e4457600080fd5b6000611e5285828601611d4b565b9250506020611e6385828601611d4b565b9150509250929050565b600080600060608486031215611e8257600080fd5b6000611e9086828701611d4b565b9350506020611ea186828701611d4b565b9250506040611eb286828701611df3565b9150509250925092565b60008060008060808587031215611ed257600080fd5b6000611ee087828801611d4b565b9450506020611ef187828801611d4b565b9350506040611f0287828801611df3565b925050606085013567ffffffffffffffff811115611f1f57600080fd5b611f2b87828801611d9f565b91505092959194509250565b60008060408385031215611f4a57600080fd5b6000611f5885828601611d4b565b9250506020611f6985828601611d60565b9150509250929050565b60008060408385031215611f8657600080fd5b6000611f9485828601611d4b565b9250506020611fa585828601611df3565b9150509250929050565b600060208284031215611fc157600080fd5b6000611fcf84828501611d75565b91505092915050565b600060208284031215611fea57600080fd5b6000611ff884828501611d8a565b91505092915050565b60006020828403121561201357600080fd5b600082013567ffffffffffffffff81111561202d57600080fd5b61203984828501611dc9565b91505092915050565b60006020828403121561205457600080fd5b600061206284828501611df3565b91505092915050565b61207481612958565b82525050565b6120838161296a565b82525050565b600061209482612800565b61209e8185612816565b93506120ae8185602086016129db565b6120b781612ba7565b840191505092915050565b60006120cd8261280b565b6120d78185612827565b93506120e78185602086016129db565b6120f081612ba7565b840191505092915050565b60006121068261280b565b6121108185612838565b93506121208185602086016129db565b80840191505092915050565b6000612139600983612838565b915061214482612bb8565b600982019050919050565b600061215c603283612827565b915061216782612be1565b604082019050919050565b600061217f602583612827565b915061218a82612c30565b604082019050919050565b60006121a2601c83612827565b91506121ad82612c7f565b602082019050919050565b60006121c5602483612827565b91506121d082612ca8565b604082019050919050565b60006121e8601983612827565b91506121f382612cf7565b602082019050919050565b600061220b602c83612827565b915061221682612d20565b604082019050919050565b600061222e600783612838565b915061223982612d6f565b600782019050919050565b6000612251603883612827565b915061225c82612d98565b604082019050919050565b6000612274602a83612827565b915061227f82612de7565b604082019050919050565b6000612297602983612827565b91506122a282612e36565b604082019050919050565b60006122ba602e83612827565b91506122c582612e85565b604082019050919050565b60006122dd600283612838565b91506122e882612ed4565b600282019050919050565b6000612300602083612827565b915061230b82612efd565b602082019050919050565b6000612323603183612827565b915061232e82612f26565b604082019050919050565b6000612346602c83612827565b915061235182612f75565b604082019050919050565b6000612369602f83612827565b915061237482612fc4565b604082019050919050565b600061238c604283612838565b915061239782613013565b604282019050919050565b60006123af602183612827565b91506123ba82613088565b604082019050919050565b60006123d2601d83612838565b91506123dd826130d7565b601d82019050919050565b60006123f5603183612827565b915061240082613100565b604082019050919050565b612414816129c2565b82525050565b600061242682846120fb565b915081905092915050565b600061243d82856120fb565b915061244982846120fb565b91508190509392505050565b60006124608261212c565b915061246b82612221565b91506124768261237f565b915061248282846120fb565b915061248d826122d0565b915081905092915050565b60006124a3826123c5565b91506124af82846120fb565b915081905092915050565b60006020820190506124cf600083018461206b565b92915050565b60006080820190506124ea600083018761206b565b6124f7602083018661206b565b612504604083018561240b565b81810360608301526125168184612089565b905095945050505050565b6000602082019050612536600083018461207a565b92915050565b6000602082019050818103600083015261255681846120c2565b905092915050565b600060208201905081810360008301526125778161214f565b9050919050565b6000602082019050818103600083015261259781612172565b9050919050565b600060208201905081810360008301526125b781612195565b9050919050565b600060208201905081810360008301526125d7816121b8565b9050919050565b600060208201905081810360008301526125f7816121db565b9050919050565b60006020820190508181036000830152612617816121fe565b9050919050565b6000602082019050818103600083015261263781612244565b9050919050565b6000602082019050818103600083015261265781612267565b9050919050565b600060208201905081810360008301526126778161228a565b9050919050565b60006020820190508181036000830152612697816122ad565b9050919050565b600060208201905081810360008301526126b7816122f3565b9050919050565b600060208201905081810360008301526126d781612316565b9050919050565b600060208201905081810360008301526126f781612339565b9050919050565b600060208201905081810360008301526127178161235c565b9050919050565b60006020820190508181036000830152612737816123a2565b9050919050565b60006020820190508181036000830152612757816123e8565b9050919050565b6000602082019050612773600083018461240b565b92915050565b6000612783612794565b905061278f8282612a40565b919050565b6000604051905090565b600067ffffffffffffffff8211156127b9576127b8612b78565b5b6127c282612ba7565b9050602081019050919050565b600067ffffffffffffffff8211156127ea576127e9612b78565b5b6127f382612ba7565b9050602081019050919050565b600081519050919050565b600081519050919050565b600082825260208201905092915050565b600082825260208201905092915050565b600081905092915050565b600061284e826129c2565b9150612859836129c2565b9250827fffffffffffffffffffffffffffffffffffffffffffffffffffffffffffffffff0382111561288e5761288d612aeb565b5b828201905092915050565b60006128a4826129c2565b91506128af836129c2565b9250826128bf576128be612b1a565b5b828204905092915050565b60006128d5826129c2565b91506128e0836129c2565b9250817fffffffffffffffffffffffffffffffffffffffffffffffffffffffffffffffff048311821515161561291957612918612aeb565b5b828202905092915050565b600061292f826129c2565b915061293a836129c2565b92508282101561294d5761294c612aeb565b5b828203905092915050565b6000612963826129a2565b9050919050565b60008115159050919050565b60007fffffffff0000000000000000000000000000000000000000000000000000000082169050919050565b600073ffffffffffffffffffffffffffffffffffffffff82169050919050565b6000819050919050565b82818337600083830152505050565b60005b838110156129f95780820151818401526020810190506129de565b83811115612a08576000848401525b50505050565b60006002820490506001821680612a2657607f821691505b60208210811415612a3a57612a39612b49565b5b50919050565b612a4982612ba7565b810181811067ffffffffffffffff82111715612a6857612a67612b78565b5b80604052505050565b6000612a7c826129c2565b91507fffffffffffffffffffffffffffffffffffffffffffffffffffffffffffffffff821415612aaf57612aae612aeb565b5b600182019050919050565b6000612ac5826129c2565b9150612ad0836129c2565b925082612ae057612adf612b1a565b5b828206905092915050565b7f4e487b7100000000000000000000000000000000000000000000000000000000600052601160045260246000fd5b7f4e487b7100000000000000000000000000000000000000000000000000000000600052601260045260246000fd5b7f4e487b7100000000000000000000000000000000000000000000000000000000600052602260045260246000fd5b7f4e487b7100000000000000000000000000000000000000000000000000000000600052604160045260246000fd5b6000601f19601f8301169050919050565b7f7b226e616d65223a220000000000000000000000000000000000000000000000600082015250565b7f4552433732313a207472616e7366657220746f206e6f6e20455243373231526560008201527f63656976657220696d706c656d656e7465720000000000000000000000000000602082015250565b7f4552433732313a207472616e736665722066726f6d20696e636f72726563742060008201527f6f776e6572000000000000000000000000000000000000000000000000000000602082015250565b7f4552433732313a20746f6b656e20616c7265616479206d696e74656400000000600082015250565b7f4552433732313a207472616e7366657220746f20746865207a65726f2061646460008201527f7265737300000000000000000000000000000000000000000000000000000000602082015250565b7f4552433732313a20617070726f766520746f2063616c6c657200000000000000600082015250565b7f4552433732313a206f70657261746f7220717565727920666f72206e6f6e657860008201527f697374656e7420746f6b656e0000000000000000000000000000000000000000602082015250565b7f535647204e465400000000000000000000000000000000000000000000000000600082015250565b7f4552433732313a20617070726f76652063616c6c6572206973206e6f74206f7760008201527f6e6572206e6f7220617070726f76656420666f7220616c6c0000000000000000602082015250565b7f4552433732313a2062616c616e636520717565727920666f7220746865207a6560008201527f726f206164647265737300000000000000000000000000000000000000000000602082015250565b7f4552433732313a206f776e657220717565727920666f72206e6f6e657869737460008201527f656e7420746f6b656e0000000000000000000000000000000000000000000000602082015250565b7f45524337323155524953746f726167653a2055524920736574206f66206e6f6e60008201527f6578697374656e7420746f6b656e000000000000000000000000000000000000602082015250565b7f227d000000000000000000000000000000000000000000000000000000000000600082015250565b7f4552433732313a206d696e7420746f20746865207a65726f2061646472657373600082015250565b7f45524337323155524953746f726167653a2055524920717565727920666f722060008201527f6e6f6e6578697374656e7420746f6b656e000000000000000000000000000000602082015250565b7f4552433732313a20617070726f76656420717565727920666f72206e6f6e657860008201527f697374656e7420746f6b656e0000000000000000000000000000000000000000602082015250565b7f4552433732314d657461646174613a2055524920717565727920666f72206e6f60008201527f6e6578697374656e7420746f6b656e0000000000000000000000000000000000602082015250565b7f222c20226465736372697074696f6e223a22416e204e4654206261736564206f60008201527f6e20535647222c202261747472696275746573223a22222c2022696d6167652260208201527f3a22000000000000000000000000000000000000000000000000000000000000604082015250565b7f4552433732313a20617070726f76616c20746f2063757272656e74206f776e6560008201527f7200000000000000000000000000000000000000000000000000000000000000602082015250565b7f646174613a6170706c69636174696f6e2f6a736f6e3b6261736536342c000000600082015250565b7f4552433732313a207472616e736665722063616c6c6572206973206e6f74206f60008201527f776e6572206e6f7220617070726f766564000000000000000000000000000000602082015250565b61315881612958565b811461316357600080fd5b50565b61316f8161296a565b811461317a57600080fd5b50565b61318681612976565b811461319157600080fd5b50565b61319d816129c2565b81146131a857600080fd5b5056fe4142434445464748494a4b4c4d4e4f505152535455565758595a6162636465666768696a6b6c6d6e6f707172737475767778797a303132333435363738392b2fa264697066735822122033b8b186d80e6eb7957ee6a5f5bb1d3e256f897ae3b8646115f89d92f15d965a64736f6c63430008040033",
  "devdoc": {
    "kind": "dev",
    "methods": {
      "approve(address,uint256)": {
        "details": "See {IERC721-approve}."
      },
      "balanceOf(address)": {
        "details": "See {IERC721-balanceOf}."
      },
      "getApproved(uint256)": {
        "details": "See {IERC721-getApproved}."
      },
      "isApprovedForAll(address,address)": {
        "details": "See {IERC721-isApprovedForAll}."
      },
      "name()": {
        "details": "See {IERC721Metadata-name}."
      },
      "ownerOf(uint256)": {
        "details": "See {IERC721-ownerOf}."
      },
      "safeTransferFrom(address,address,uint256)": {
        "details": "See {IERC721-safeTransferFrom}."
      },
      "safeTransferFrom(address,address,uint256,bytes)": {
        "details": "See {IERC721-safeTransferFrom}."
      },
      "setApprovalForAll(address,bool)": {
        "details": "See {IERC721-setApprovalForAll}."
      },
      "supportsInterface(bytes4)": {
        "details": "See {IERC165-supportsInterface}."
      },
      "symbol()": {
        "details": "See {IERC721Metadata-symbol}."
      },
      "tokenURI(uint256)": {
        "details": "See {IERC721Metadata-tokenURI}."
      },
      "transferFrom(address,address,uint256)": {
        "details": "See {IERC721-transferFrom}."
      }
    },
    "version": 1
  },
  "userdoc": {
    "kind": "user",
    "methods": {},
    "version": 1
  },
  "storageLayout": {
    "storage": [
      {
        "astId": 25,
        "contract": "contracts/SVGNFT.sol:SVGNFT",
        "label": "_name",
        "offset": 0,
        "slot": "0",
        "type": "t_string_storage"
      },
      {
        "astId": 27,
        "contract": "contracts/SVGNFT.sol:SVGNFT",
        "label": "_symbol",
        "offset": 0,
        "slot": "1",
        "type": "t_string_storage"
      },
      {
        "astId": 31,
        "contract": "contracts/SVGNFT.sol:SVGNFT",
        "label": "_owners",
        "offset": 0,
        "slot": "2",
        "type": "t_mapping(t_uint256,t_address)"
      },
      {
        "astId": 35,
        "contract": "contracts/SVGNFT.sol:SVGNFT",
        "label": "_balances",
        "offset": 0,
        "slot": "3",
        "type": "t_mapping(t_address,t_uint256)"
      },
      {
        "astId": 39,
        "contract": "contracts/SVGNFT.sol:SVGNFT",
        "label": "_tokenApprovals",
        "offset": 0,
        "slot": "4",
        "type": "t_mapping(t_uint256,t_address)"
      },
      {
        "astId": 45,
        "contract": "contracts/SVGNFT.sol:SVGNFT",
        "label": "_operatorApprovals",
        "offset": 0,
        "slot": "5",
        "type": "t_mapping(t_address,t_mapping(t_address,t_bool))"
      },
      {
        "astId": 1012,
        "contract": "contracts/SVGNFT.sol:SVGNFT",
        "label": "_tokenURIs",
        "offset": 0,
        "slot": "6",
        "type": "t_mapping(t_uint256,t_string_storage)"
      },
      {
        "astId": 1833,
        "contract": "contracts/SVGNFT.sol:SVGNFT",
        "label": "tokenCounter",
        "offset": 0,
        "slot": "7",
        "type": "t_uint256"
      }
    ],
    "types": {
      "t_address": {
        "encoding": "inplace",
        "label": "address",
        "numberOfBytes": "20"
      },
      "t_bool": {
        "encoding": "inplace",
        "label": "bool",
        "numberOfBytes": "1"
      },
      "t_mapping(t_address,t_bool)": {
        "encoding": "mapping",
        "key": "t_address",
        "label": "mapping(address => bool)",
        "numberOfBytes": "32",
        "value": "t_bool"
      },
      "t_mapping(t_address,t_mapping(t_address,t_bool))": {
        "encoding": "mapping",
        "key": "t_address",
        "label": "mapping(address => mapping(address => bool))",
        "numberOfBytes": "32",
        "value": "t_mapping(t_address,t_bool)"
      },
      "t_mapping(t_address,t_uint256)": {
        "encoding": "mapping",
        "key": "t_address",
        "label": "mapping(address => uint256)",
        "numberOfBytes": "32",
        "value": "t_uint256"
      },
      "t_mapping(t_uint256,t_address)": {
        "encoding": "mapping",
        "key": "t_uint256",
        "label": "mapping(uint256 => address)",
        "numberOfBytes": "32",
        "value": "t_address"
      },
      "t_mapping(t_uint256,t_string_storage)": {
        "encoding": "mapping",
        "key": "t_uint256",
        "label": "mapping(uint256 => string)",
        "numberOfBytes": "32",
        "value": "t_string_storage"
      },
      "t_string_storage": {
        "encoding": "bytes",
        "label": "string",
        "numberOfBytes": "32"
      },
      "t_uint256": {
        "encoding": "inplace",
        "label": "uint256",
        "numberOfBytes": "32"
      }
    }
  }
}